{
  "contractName": "DeTrace",
  "abi": [
    {
      "inputs": [],
      "stateMutability": "nonpayable",
      "type": "constructor"
    },
    {
      "anonymous": false,
      "inputs": [
        {
          "indexed": false,
          "internalType": "string",
          "name": "_message",
          "type": "string"
        }
      ],
      "name": "DeTrace_deployed",
      "type": "event"
    },
    {
      "anonymous": false,
      "inputs": [
        {
          "indexed": false,
          "internalType": "uint256",
          "name": "_productId",
          "type": "uint256"
        },
        {
          "indexed": false,
          "internalType": "address",
          "name": "_manufacturerAddress",
          "type": "address"
        }
      ],
      "name": "Product_Added",
      "type": "event"
    },
    {
      "anonymous": false,
      "inputs": [
        {
          "indexed": false,
          "internalType": "uint256",
          "name": "_productId",
          "type": "uint256"
        },
        {
          "indexed": false,
          "internalType": "address",
          "name": "_manufacturerAddress",
          "type": "address"
        },
        {
          "indexed": false,
          "internalType": "address",
          "name": "_retailerAddress",
          "type": "address"
        }
      ],
      "name": "Product_Released",
      "type": "event"
    },
    {
      "anonymous": false,
      "inputs": [
        {
          "indexed": false,
          "internalType": "uint256",
          "name": "_productId",
          "type": "uint256"
        },
        {
          "indexed": false,
          "internalType": "address",
          "name": "_retailerAddress",
          "type": "address"
        },
        {
          "indexed": false,
          "internalType": "address",
          "name": "_customerAddress",
          "type": "address"
        }
      ],
      "name": "Product_Sold",
      "type": "event"
    },
    {
      "inputs": [
        {
          "internalType": "uint256",
          "name": "",
          "type": "uint256"
        },
        {
          "internalType": "uint256",
          "name": "",
          "type": "uint256"
        }
      ],
      "name": "Product_Retailers",
      "outputs": [
        {
          "internalType": "address",
          "name": "",
          "type": "address"
        }
      ],
      "stateMutability": "view",
      "type": "function",
      "constant": true
    },
    {
      "inputs": [
        {
          "internalType": "address",
          "name": "",
          "type": "address"
        }
      ],
      "name": "customers",
      "outputs": [
        {
          "internalType": "address",
          "name": "id",
          "type": "address"
        },
        {
          "internalType": "string",
          "name": "name",
          "type": "string"
        }
      ],
      "stateMutability": "view",
      "type": "function",
      "constant": true
    },
    {
      "inputs": [
        {
          "internalType": "address",
          "name": "",
          "type": "address"
        }
      ],
      "name": "manufacturers",
      "outputs": [
        {
          "internalType": "address",
          "name": "id",
          "type": "address"
        },
        {
          "internalType": "string",
          "name": "name",
          "type": "string"
        }
      ],
      "stateMutability": "view",
      "type": "function",
      "constant": true
    },
    {
      "inputs": [
        {
          "internalType": "uint256",
          "name": "",
          "type": "uint256"
        }
      ],
      "name": "products",
      "outputs": [
        {
          "internalType": "uint256",
          "name": "id",
          "type": "uint256"
        },
        {
          "internalType": "string",
          "name": "name",
          "type": "string"
        },
        {
          "internalType": "uint256",
          "name": "price",
          "type": "uint256"
        },
        {
          "internalType": "string",
          "name": "ipfs_hash",
          "type": "string"
        },
        {
          "internalType": "enum DeTrace.Stage",
          "name": "stage",
          "type": "uint8"
        },
        {
          "internalType": "address",
          "name": "manufacturer",
          "type": "address"
        },
        {
          "internalType": "uint256",
          "name": "total_retailers",
          "type": "uint256"
        },
        {
          "internalType": "address",
          "name": "customer",
          "type": "address"
        }
      ],
      "stateMutability": "view",
      "type": "function",
      "constant": true
    },
    {
      "inputs": [
        {
          "internalType": "address",
          "name": "",
          "type": "address"
        }
      ],
      "name": "retailers",
      "outputs": [
        {
          "internalType": "address",
          "name": "id",
          "type": "address"
        },
        {
          "internalType": "string",
          "name": "name",
          "type": "string"
        }
      ],
      "stateMutability": "view",
      "type": "function",
      "constant": true
    },
    {
      "inputs": [],
      "name": "total_products",
      "outputs": [
        {
          "internalType": "uint256",
          "name": "",
          "type": "uint256"
        }
      ],
      "stateMutability": "view",
      "type": "function",
      "constant": true
    },
    {
      "inputs": [
        {
          "internalType": "string",
          "name": "_name",
          "type": "string"
        }
      ],
      "name": "addManufacturer",
      "outputs": [
        {
          "components": [
            {
              "internalType": "address",
              "name": "id",
              "type": "address"
            },
            {
              "internalType": "string",
              "name": "name",
              "type": "string"
            }
          ],
          "internalType": "struct DeTrace.Manufacturer",
          "name": "",
          "type": "tuple"
        }
      ],
      "stateMutability": "payable",
      "type": "function",
      "payable": true
    },
    {
      "inputs": [
        {
          "internalType": "string",
          "name": "_name",
          "type": "string"
        }
      ],
      "name": "addRetailer",
      "outputs": [
        {
          "components": [
            {
              "internalType": "address",
              "name": "id",
              "type": "address"
            },
            {
              "internalType": "string",
              "name": "name",
              "type": "string"
            }
          ],
          "internalType": "struct DeTrace.Retailer",
          "name": "",
          "type": "tuple"
        }
      ],
      "stateMutability": "payable",
      "type": "function",
      "payable": true
    },
    {
      "inputs": [
        {
          "internalType": "string",
          "name": "_name",
          "type": "string"
        }
      ],
      "name": "addCustomer",
      "outputs": [
        {
          "components": [
            {
              "internalType": "address",
              "name": "id",
              "type": "address"
            },
            {
              "internalType": "string",
              "name": "name",
              "type": "string"
            }
          ],
          "internalType": "struct DeTrace.Customer",
          "name": "",
          "type": "tuple"
        }
      ],
      "stateMutability": "payable",
      "type": "function",
      "payable": true
    },
    {
      "inputs": [
        {
          "internalType": "string",
          "name": "_name",
          "type": "string"
        },
        {
          "internalType": "uint256",
          "name": "_price",
          "type": "uint256"
        },
        {
          "internalType": "string",
          "name": "_ipfs_hash",
          "type": "string"
        }
      ],
      "name": "addProduct",
      "outputs": [
        {
          "components": [
            {
              "internalType": "uint256",
              "name": "id",
              "type": "uint256"
            },
            {
              "internalType": "string",
              "name": "name",
              "type": "string"
            },
            {
              "internalType": "uint256",
              "name": "price",
              "type": "uint256"
            },
            {
              "internalType": "string",
              "name": "ipfs_hash",
              "type": "string"
            },
            {
              "internalType": "enum DeTrace.Stage",
              "name": "stage",
              "type": "uint8"
            },
            {
              "internalType": "address",
              "name": "manufacturer",
              "type": "address"
            },
            {
              "internalType": "uint256",
              "name": "total_retailers",
              "type": "uint256"
            },
            {
              "internalType": "address",
              "name": "customer",
              "type": "address"
            }
          ],
          "internalType": "struct DeTrace.Product",
          "name": "",
          "type": "tuple"
        }
      ],
      "stateMutability": "payable",
      "type": "function",
      "payable": true
    },
    {
      "inputs": [
        {
          "internalType": "uint256",
          "name": "_productId",
          "type": "uint256"
        }
      ],
      "name": "releaseProduct",
      "outputs": [
        {
          "components": [
            {
              "internalType": "uint256",
              "name": "id",
              "type": "uint256"
            },
            {
              "internalType": "string",
              "name": "name",
              "type": "string"
            },
            {
              "internalType": "uint256",
              "name": "price",
              "type": "uint256"
            },
            {
              "internalType": "string",
              "name": "ipfs_hash",
              "type": "string"
            },
            {
              "internalType": "enum DeTrace.Stage",
              "name": "stage",
              "type": "uint8"
            },
            {
              "internalType": "address",
              "name": "manufacturer",
              "type": "address"
            },
            {
              "internalType": "uint256",
              "name": "total_retailers",
              "type": "uint256"
            },
            {
              "internalType": "address",
              "name": "customer",
              "type": "address"
            }
          ],
          "internalType": "struct DeTrace.Product",
          "name": "",
          "type": "tuple"
        }
      ],
      "stateMutability": "payable",
      "type": "function",
      "payable": true
    },
    {
      "inputs": [
        {
          "internalType": "uint256",
          "name": "_productId",
          "type": "uint256"
        }
      ],
      "name": "buyProduct",
      "outputs": [
        {
          "components": [
            {
              "internalType": "uint256",
              "name": "id",
              "type": "uint256"
            },
            {
              "internalType": "string",
              "name": "name",
              "type": "string"
            },
            {
              "internalType": "uint256",
              "name": "price",
              "type": "uint256"
            },
            {
              "internalType": "string",
              "name": "ipfs_hash",
              "type": "string"
            },
            {
              "internalType": "enum DeTrace.Stage",
              "name": "stage",
              "type": "uint8"
            },
            {
              "internalType": "address",
              "name": "manufacturer",
              "type": "address"
            },
            {
              "internalType": "uint256",
              "name": "total_retailers",
              "type": "uint256"
            },
            {
              "internalType": "address",
              "name": "customer",
              "type": "address"
            }
          ],
          "internalType": "struct DeTrace.Product",
          "name": "",
          "type": "tuple"
        }
      ],
      "stateMutability": "payable",
      "type": "function",
      "payable": true
    },
    {
      "inputs": [
        {
          "internalType": "address",
          "name": "_manufacturerId",
          "type": "address"
        }
      ],
      "name": "getManufacturerDetails",
      "outputs": [
        {
          "components": [
            {
              "internalType": "address",
              "name": "id",
              "type": "address"
            },
            {
              "internalType": "string",
              "name": "name",
              "type": "string"
            }
          ],
          "internalType": "struct DeTrace.Manufacturer",
          "name": "",
          "type": "tuple"
        }
      ],
      "stateMutability": "view",
      "type": "function",
      "constant": true
    },
    {
      "inputs": [
        {
          "internalType": "address",
          "name": "_retailerId",
          "type": "address"
        }
      ],
      "name": "getRetailerDetails",
      "outputs": [
        {
          "components": [
            {
              "internalType": "address",
              "name": "id",
              "type": "address"
            },
            {
              "internalType": "string",
              "name": "name",
              "type": "string"
            }
          ],
          "internalType": "struct DeTrace.Retailer",
          "name": "",
          "type": "tuple"
        }
      ],
      "stateMutability": "view",
      "type": "function",
      "constant": true
    },
    {
      "inputs": [
        {
          "internalType": "address",
          "name": "_customerId",
          "type": "address"
        }
      ],
      "name": "getCustomerDetails",
      "outputs": [
        {
          "components": [
            {
              "internalType": "address",
              "name": "id",
              "type": "address"
            },
            {
              "internalType": "string",
              "name": "name",
              "type": "string"
            }
          ],
          "internalType": "struct DeTrace.Customer",
          "name": "",
          "type": "tuple"
        }
      ],
      "stateMutability": "view",
      "type": "function",
      "constant": true
    },
    {
      "inputs": [
        {
          "internalType": "uint256",
          "name": "_productId",
          "type": "uint256"
        }
      ],
      "name": "getProductDetails",
      "outputs": [
        {
          "components": [
            {
              "internalType": "uint256",
              "name": "id",
              "type": "uint256"
            },
            {
              "internalType": "string",
              "name": "name",
              "type": "string"
            },
            {
              "internalType": "uint256",
              "name": "price",
              "type": "uint256"
            },
            {
              "internalType": "string",
              "name": "ipfs_hash",
              "type": "string"
            },
            {
              "internalType": "enum DeTrace.Stage",
              "name": "stage",
              "type": "uint8"
            },
            {
              "internalType": "address",
              "name": "manufacturer",
              "type": "address"
            },
            {
              "internalType": "uint256",
              "name": "total_retailers",
              "type": "uint256"
            },
            {
              "internalType": "address",
              "name": "customer",
              "type": "address"
            }
          ],
          "internalType": "struct DeTrace.Product",
          "name": "",
          "type": "tuple"
        },
        {
          "components": [
            {
              "internalType": "address",
              "name": "id",
              "type": "address"
            },
            {
              "internalType": "string",
              "name": "name",
              "type": "string"
            }
          ],
          "internalType": "struct DeTrace.Retailer[]",
          "name": "",
          "type": "tuple[]"
        },
        {
          "components": [
            {
              "internalType": "address",
              "name": "id",
              "type": "address"
            },
            {
              "internalType": "string",
              "name": "name",
              "type": "string"
            }
          ],
          "internalType": "struct DeTrace.Manufacturer",
          "name": "",
          "type": "tuple"
        },
        {
          "components": [
            {
              "internalType": "address",
              "name": "id",
              "type": "address"
            },
            {
              "internalType": "string",
              "name": "name",
              "type": "string"
            }
          ],
          "internalType": "struct DeTrace.Customer",
          "name": "",
          "type": "tuple"
        }
      ],
      "stateMutability": "view",
      "type": "function",
      "constant": true
    },
    {
      "inputs": [
        {
          "internalType": "uint256",
          "name": "_productId",
          "type": "uint256"
        }
      ],
      "name": "getCurrentStatus",
      "outputs": [
        {
          "internalType": "enum DeTrace.Stage",
          "name": "",
          "type": "uint8"
        },
        {
          "internalType": "address",
          "name": "",
          "type": "address"
        },
        {
          "components": [
            {
              "internalType": "address",
              "name": "id",
              "type": "address"
            },
            {
              "internalType": "string",
              "name": "name",
              "type": "string"
            }
          ],
          "internalType": "struct DeTrace.Manufacturer",
          "name": "",
          "type": "tuple"
        },
        {
          "components": [
            {
              "internalType": "address",
              "name": "id",
              "type": "address"
            },
            {
              "internalType": "string",
              "name": "name",
              "type": "string"
            }
          ],
          "internalType": "struct DeTrace.Customer",
          "name": "",
          "type": "tuple"
        },
        {
          "components": [
            {
              "internalType": "address",
              "name": "id",
              "type": "address"
            },
            {
              "internalType": "string",
              "name": "name",
              "type": "string"
            }
          ],
          "internalType": "struct DeTrace.Retailer",
          "name": "",
          "type": "tuple"
        }
      ],
      "stateMutability": "view",
      "type": "function",
      "constant": true
    }
  ],
  "bytecode": "0x60806040523480156200001157600080fd5b50600080819055507f7b156246723a58575721985ed99046dbbecb42c4dc7265035b5f6e3a9ceab4dc6040516200004890620000b7565b60405180910390a1620000d9565b600082825260208201905092915050565b7f4465547261636520686173206265656e206465706c6f79656400000000000000600082015250565b60006200009f60198362000056565b9150620000ac8262000067565b602082019050919050565b60006020820190508181036000830152620000d28162000090565b9050919050565b613bda80620000e96000396000f3fe6080604052600436106100fe5760003560e01c80637acc0b20116100955780638f5ae799116100645780638f5ae799146103a557806395d00407146103d55780639a268f3514610405578063a0aa13c614610443578063c41381a914610484576100fe565b80637acc0b20146102d65780637efa69591461031a5780638642269e146103455780638f29695a14610375576100fe565b8063336989ae116100d1578063336989ae146101dd57806363ba83151461021b5780636813b53b146102585780636b5eb09c14610298576100fe565b806303dd3d81146101035780630756be1f146101335780630c60f83d1461016357806322713cc7146101a0575b600080fd5b61011d60048036038101906101189190612e26565b6104c1565b60405161012a9190612f75565b60405180910390f35b61014d60048036038101906101489190612fcd565b610653565b60405161015a9190613137565b60405180910390f35b34801561016f57600080fd5b5061018a60048036038101906101859190613185565b610ba4565b6040516101979190612f75565b60405180910390f35b3480156101ac57600080fd5b506101c760048036038101906101c29190613185565b610ceb565b6040516101d491906131ef565b60405180910390f35b3480156101e957600080fd5b5061020460048036038101906101ff9190613185565b610e32565b60405161021292919061326a565b60405180910390f35b34801561022757600080fd5b50610242600480360381019061023d9190613185565b610efe565b60405161024f91906132d7565b60405180910390f35b34801561026457600080fd5b5061027f600480360381019061027a9190612fcd565b611045565b60405161028f94939291906133f8565b60405180910390f35b3480156102a457600080fd5b506102bf60048036038101906102ba9190613185565b6113f3565b6040516102cd92919061326a565b60405180910390f35b3480156102e257600080fd5b506102fd60048036038101906102f89190612fcd565b6114bf565b604051610311989796959493929190613477565b60405180910390f35b34801561032657600080fd5b5061032f611674565b60405161033c9190613503565b60405180910390f35b61035f600480360381019061035a9190612fcd565b61167a565b60405161036c9190613137565b60405180910390f35b61038f600480360381019061038a919061351e565b611e54565b60405161039c9190613137565b60405180910390f35b6103bf60048036038101906103ba9190612e26565b6122da565b6040516103cc91906131ef565b60405180910390f35b6103ef60048036038101906103ea9190612e26565b61246c565b6040516103fc91906132d7565b60405180910390f35b34801561041157600080fd5b5061042c60048036038101906104279190613185565b6125fe565b60405161043a92919061326a565b60405180910390f35b34801561044f57600080fd5b5061046a60048036038101906104659190612fcd565b6126ca565b60405161047b9594939291906135a9565b60405180910390f35b34801561049057600080fd5b506104ab60048036038101906104a69190613611565b612a76565b6040516104b89190613651565b60405180910390f35b6104c9612ac4565b6000600460003373ffffffffffffffffffffffffffffffffffffffff1673ffffffffffffffffffffffffffffffffffffffff16815260200190815260200160002060010180546105189061369b565b90501461055a576040517f08c379a00000000000000000000000000000000000000000000000000000000081526004016105519061373f565b60405180910390fd5b610562612ac4565b33816000019073ffffffffffffffffffffffffffffffffffffffff16908173ffffffffffffffffffffffffffffffffffffffff168152505082816020018190525080600460003373ffffffffffffffffffffffffffffffffffffffff1673ffffffffffffffffffffffffffffffffffffffff16815260200190815260200160002060008201518160000160006101000a81548173ffffffffffffffffffffffffffffffffffffffff021916908373ffffffffffffffffffffffffffffffffffffffff1602179055506020820151816001019080519060200190610646929190612af4565b5090505080915050919050565b61065b612b7a565b600054821061069f576040517f08c379a0000000000000000000000000000000000000000000000000000000008152600401610696906137ab565b60405180910390fd5b6000600183815481106106b5576106b46137cb565b5b906000526020600020906007020160405180610100016040529081600082015481526020016001820180546106e99061369b565b80601f01602080910402602001604051908101604052809291908181526020018280546107159061369b565b80156107625780601f1061073757610100808354040283529160200191610762565b820191906000526020600020905b81548152906001019060200180831161074557829003601f168201915b50505050508152602001600282015481526020016003820180546107859061369b565b80601f01602080910402602001604051908101604052809291908181526020018280546107b19061369b565b80156107fe5780601f106107d3576101008083540402835291602001916107fe565b820191906000526020600020905b8154815290600101906020018083116107e157829003601f168201915b505050505081526020016004820160009054906101000a900460ff16600281111561082c5761082b613009565b5b600281111561083e5761083d613009565b5b81526020016004820160019054906101000a900473ffffffffffffffffffffffffffffffffffffffff1673ffffffffffffffffffffffffffffffffffffffff1673ffffffffffffffffffffffffffffffffffffffff168152602001600582015481526020016006820160009054906101000a900473ffffffffffffffffffffffffffffffffffffffff1673ffffffffffffffffffffffffffffffffffffffff1673ffffffffffffffffffffffffffffffffffffffff168152505090506000600281111561090e5761090d613009565b5b8160800151600281111561092557610924613009565b5b14610965576040517f08c379a000000000000000000000000000000000000000000000000000000000815260040161095c9061386c565b60405180910390fd5b60056000848152602001908152602001600020339080600181540180825580915050600190039060005260206000200160009091909190916101000a81548173ffffffffffffffffffffffffffffffffffffffff021916908373ffffffffffffffffffffffffffffffffffffffff1602179055508060c00180518091906109eb906138bb565b81525050600181608001906002811115610a0857610a07613009565b5b90816002811115610a1c57610a1b613009565b5b815250508060018481548110610a3557610a346137cb565b5b9060005260206000209060070201600082015181600001556020820151816001019080519060200190610a69929190612af4565b50604082015181600201556060820151816003019080519060200190610a90929190612af4565b5060808201518160040160006101000a81548160ff02191690836002811115610abc57610abb613009565b5b021790555060a08201518160040160016101000a81548173ffffffffffffffffffffffffffffffffffffffff021916908373ffffffffffffffffffffffffffffffffffffffff16021790555060c0820151816005015560e08201518160060160006101000a81548173ffffffffffffffffffffffffffffffffffffffff021916908373ffffffffffffffffffffffffffffffffffffffff1602179055509050507fbecca2d2f326ada9f4428c9cf79b47f0fa927aacb38c32ada338ced2c0ead166838260a0015133604051610b9393929190613904565b60405180910390a180915050919050565b610bac612ac4565b6000600460008473ffffffffffffffffffffffffffffffffffffffff1673ffffffffffffffffffffffffffffffffffffffff1681526020019081526020016000206040518060400160405290816000820160009054906101000a900473ffffffffffffffffffffffffffffffffffffffff1673ffffffffffffffffffffffffffffffffffffffff1673ffffffffffffffffffffffffffffffffffffffff168152602001600182018054610c5e9061369b565b80601f0160208091040260200160405190810160405280929190818152602001828054610c8a9061369b565b8015610cd75780601f10610cac57610100808354040283529160200191610cd7565b820191906000526020600020905b815481529060010190602001808311610cba57829003601f168201915b505050505081525050905080915050919050565b610cf3612bfd565b6000600260008473ffffffffffffffffffffffffffffffffffffffff1673ffffffffffffffffffffffffffffffffffffffff1681526020019081526020016000206040518060400160405290816000820160009054906101000a900473ffffffffffffffffffffffffffffffffffffffff1673ffffffffffffffffffffffffffffffffffffffff1673ffffffffffffffffffffffffffffffffffffffff168152602001600182018054610da59061369b565b80601f0160208091040260200160405190810160405280929190818152602001828054610dd19061369b565b8015610e1e5780601f10610df357610100808354040283529160200191610e1e565b820191906000526020600020905b815481529060010190602001808311610e0157829003601f168201915b505050505081525050905080915050919050565b60046020528060005260406000206000915090508060000160009054906101000a900473ffffffffffffffffffffffffffffffffffffffff1690806001018054610e7b9061369b565b80601f0160208091040260200160405190810160405280929190818152602001828054610ea79061369b565b8015610ef45780601f10610ec957610100808354040283529160200191610ef4565b820191906000526020600020905b815481529060010190602001808311610ed757829003601f168201915b5050505050905082565b610f06612c2d565b6000600360008473ffffffffffffffffffffffffffffffffffffffff1673ffffffffffffffffffffffffffffffffffffffff1681526020019081526020016000206040518060400160405290816000820160009054906101000a900473ffffffffffffffffffffffffffffffffffffffff1673ffffffffffffffffffffffffffffffffffffffff1673ffffffffffffffffffffffffffffffffffffffff168152602001600182018054610fb89061369b565b80601f0160208091040260200160405190810160405280929190818152602001828054610fe49061369b565b80156110315780601f1061100657610100808354040283529160200191611031565b820191906000526020600020905b81548152906001019060200180831161101457829003601f168201915b505050505081525050905080915050919050565b61104d612b7a565b6060611057612bfd565b61105f612ac4565b600060018681548110611075576110746137cb565b5b906000526020600020906007020160405180610100016040529081600082015481526020016001820180546110a99061369b565b80601f01602080910402602001604051908101604052809291908181526020018280546110d59061369b565b80156111225780601f106110f757610100808354040283529160200191611122565b820191906000526020600020905b81548152906001019060200180831161110557829003601f168201915b50505050508152602001600282015481526020016003820180546111459061369b565b80601f01602080910402602001604051908101604052809291908181526020018280546111719061369b565b80156111be5780601f10611193576101008083540402835291602001916111be565b820191906000526020600020905b8154815290600101906020018083116111a157829003601f168201915b505050505081526020016004820160009054906101000a900460ff1660028111156111ec576111eb613009565b5b60028111156111fe576111fd613009565b5b81526020016004820160019054906101000a900473ffffffffffffffffffffffffffffffffffffffff1673ffffffffffffffffffffffffffffffffffffffff1673ffffffffffffffffffffffffffffffffffffffff168152602001600582015481526020016006820160009054906101000a900473ffffffffffffffffffffffffffffffffffffffff1673ffffffffffffffffffffffffffffffffffffffff1673ffffffffffffffffffffffffffffffffffffffff1681525050905060006005600088815260200190815260200160002080548060200260200160405190810160405280929190818152602001828054801561134f57602002820191906000526020600020905b8160009054906101000a900473ffffffffffffffffffffffffffffffffffffffff1673ffffffffffffffffffffffffffffffffffffffff1681526020019060010190808311611305575b50505050509050606060006113678460a00151610ceb565b905060006113788560e00151610ba4565b905060005b84518110156113da576113a985828151811061139c5761139b6137cb565b5b6020026020010151610efe565b8482815181106113bc576113bb6137cb565b5b602002602001018190525080806113d2906138bb565b91505061137d565b5084838383985098509850985050505050509193509193565b60026020528060005260406000206000915090508060000160009054906101000a900473ffffffffffffffffffffffffffffffffffffffff169080600101805461143c9061369b565b80601f01602080910402602001604051908101604052809291908181526020018280546114689061369b565b80156114b55780601f1061148a576101008083540402835291602001916114b5565b820191906000526020600020905b81548152906001019060200180831161149857829003601f168201915b5050505050905082565b600181815481106114cf57600080fd5b90600052602060002090600702016000915090508060000154908060010180546114f89061369b565b80601f01602080910402602001604051908101604052809291908181526020018280546115249061369b565b80156115715780601f1061154657610100808354040283529160200191611571565b820191906000526020600020905b81548152906001019060200180831161155457829003601f168201915b50505050509080600201549080600301805461158c9061369b565b80601f01602080910402602001604051908101604052809291908181526020018280546115b89061369b565b80156116055780601f106115da57610100808354040283529160200191611605565b820191906000526020600020905b8154815290600101906020018083116115e857829003601f168201915b5050505050908060040160009054906101000a900460ff16908060040160019054906101000a900473ffffffffffffffffffffffffffffffffffffffff16908060050154908060060160009054906101000a900473ffffffffffffffffffffffffffffffffffffffff16905088565b60005481565b611682612b7a565b60005482106116c6576040517f08c379a00000000000000000000000000000000000000000000000000000000081526004016116bd906137ab565b60405180910390fd5b6000600183815481106116dc576116db6137cb565b5b906000526020600020906007020160405180610100016040529081600082015481526020016001820180546117109061369b565b80601f016020809104026020016040519081016040528092919081815260200182805461173c9061369b565b80156117895780601f1061175e57610100808354040283529160200191611789565b820191906000526020600020905b81548152906001019060200180831161176c57829003601f168201915b50505050508152602001600282015481526020016003820180546117ac9061369b565b80601f01602080910402602001604051908101604052809291908181526020018280546117d89061369b565b80156118255780601f106117fa57610100808354040283529160200191611825565b820191906000526020600020905b81548152906001019060200180831161180857829003601f168201915b505050505081526020016004820160009054906101000a900460ff16600281111561185357611852613009565b5b600281111561186557611864613009565b5b81526020016004820160019054906101000a900473ffffffffffffffffffffffffffffffffffffffff1673ffffffffffffffffffffffffffffffffffffffff1673ffffffffffffffffffffffffffffffffffffffff168152602001600582015481526020016006820160009054906101000a900473ffffffffffffffffffffffffffffffffffffffff1673ffffffffffffffffffffffffffffffffffffffff1673ffffffffffffffffffffffffffffffffffffffff168152505090506001600281111561193557611934613009565b5b8160800151600281111561194c5761194b613009565b5b1461198c576040517f08c379a0000000000000000000000000000000000000000000000000000000008152600401611983906139ad565b60405180910390fd5b6000600560008360000151815260200190815260200160002060018360c001516119b691906139cd565b815481106119c7576119c66137cb565b5b9060005260206000200160009054906101000a900473ffffffffffffffffffffffffffffffffffffffff1690506000600360008373ffffffffffffffffffffffffffffffffffffffff1673ffffffffffffffffffffffffffffffffffffffff1681526020019081526020016000206040518060400160405290816000820160009054906101000a900473ffffffffffffffffffffffffffffffffffffffff1673ffffffffffffffffffffffffffffffffffffffff1673ffffffffffffffffffffffffffffffffffffffff168152602001600182018054611aa69061369b565b80601f0160208091040260200160405190810160405280929190818152602001828054611ad29061369b565b8015611b1f5780601f10611af457610100808354040283529160200191611b1f565b820191906000526020600020905b815481529060010190602001808311611b0257829003601f168201915b50505050508152505090506000600460003373ffffffffffffffffffffffffffffffffffffffff1673ffffffffffffffffffffffffffffffffffffffff1681526020019081526020016000206040518060400160405290816000820160009054906101000a900473ffffffffffffffffffffffffffffffffffffffff1673ffffffffffffffffffffffffffffffffffffffff1673ffffffffffffffffffffffffffffffffffffffff168152602001600182018054611bdc9061369b565b80601f0160208091040260200160405190810160405280929190818152602001828054611c089061369b565b8015611c555780601f10611c2a57610100808354040283529160200191611c55565b820191906000526020600020905b815481529060010190602001808311611c3857829003601f168201915b5050505050815250509050600284608001906002811115611c7957611c78613009565b5b90816002811115611c8d57611c8c613009565b5b8152505080600001518460e0019073ffffffffffffffffffffffffffffffffffffffff16908173ffffffffffffffffffffffffffffffffffffffff16815250508360018781548110611ce257611ce16137cb565b5b9060005260206000209060070201600082015181600001556020820151816001019080519060200190611d16929190612af4565b50604082015181600201556060820151816003019080519060200190611d3d929190612af4565b5060808201518160040160006101000a81548160ff02191690836002811115611d6957611d68613009565b5b021790555060a08201518160040160016101000a81548173ffffffffffffffffffffffffffffffffffffffff021916908373ffffffffffffffffffffffffffffffffffffffff16021790555060c0820151816005015560e08201518160060160006101000a81548173ffffffffffffffffffffffffffffffffffffffff021916908373ffffffffffffffffffffffffffffffffffffffff1602179055509050507f41ead87203d5b5ee8e9a8625ba6db3143d789ed55263a7bfb72626e95348f4f686836000015133604051611e4093929190613904565b60405180910390a183945050505050919050565b611e5c612b7a565b600073ffffffffffffffffffffffffffffffffffffffff16600260003373ffffffffffffffffffffffffffffffffffffffff1673ffffffffffffffffffffffffffffffffffffffff16815260200190815260200160002060000160009054906101000a900473ffffffffffffffffffffffffffffffffffffffff1673ffffffffffffffffffffffffffffffffffffffff161415611f2e576040517f08c379a0000000000000000000000000000000000000000000000000000000008152600401611f2590613a73565b60405180910390fd5b6000600260003373ffffffffffffffffffffffffffffffffffffffff1673ffffffffffffffffffffffffffffffffffffffff1681526020019081526020016000206040518060400160405290816000820160009054906101000a900473ffffffffffffffffffffffffffffffffffffffff1673ffffffffffffffffffffffffffffffffffffffff1673ffffffffffffffffffffffffffffffffffffffff168152602001600182018054611fe09061369b565b80601f016020809104026020016040519081016040528092919081815260200182805461200c9061369b565b80156120595780601f1061202e57610100808354040283529160200191612059565b820191906000526020600020905b81548152906001019060200180831161203c57829003601f168201915b505050505081525050905061206c612b7a565b6000548160000181815250508581602001819052508481604001818152505083816060018190525081600001518160a0019073ffffffffffffffffffffffffffffffffffffffff16908173ffffffffffffffffffffffffffffffffffffffff16815250506000816080019060028111156120e9576120e8613009565b5b908160028111156120fd576120fc613009565b5b8152505060008160c0018181525050600181908060018154018082558091505060019003906000526020600020906007020160009091909190915060008201518160000155602082015181600101908051906020019061215e929190612af4565b50604082015181600201556060820151816003019080519060200190612185929190612af4565b5060808201518160040160006101000a81548160ff021916908360028111156121b1576121b0613009565b5b021790555060a08201518160040160016101000a81548173ffffffffffffffffffffffffffffffffffffffff021916908373ffffffffffffffffffffffffffffffffffffffff16021790555060c0820151816005015560e08201518160060160006101000a81548173ffffffffffffffffffffffffffffffffffffffff021916908373ffffffffffffffffffffffffffffffffffffffff160217905550505060016000808282546122629190613a93565b9250508190555060066005600083600001518152602001908152602001600020908054612290929190612c5d565b507f7729e6201ef9e0ddfbfd62dadbf36f7a731e6667ccb2411649655c253f3555b78160000151336040516122c6929190613ae9565b60405180910390a180925050509392505050565b6122e2612bfd565b6000600260003373ffffffffffffffffffffffffffffffffffffffff1673ffffffffffffffffffffffffffffffffffffffff16815260200190815260200160002060010180546123319061369b565b905014612373576040517f08c379a000000000000000000000000000000000000000000000000000000000815260040161236a90613b84565b60405180910390fd5b61237b612bfd565b33816000019073ffffffffffffffffffffffffffffffffffffffff16908173ffffffffffffffffffffffffffffffffffffffff168152505082816020018190525080600260003373ffffffffffffffffffffffffffffffffffffffff1673ffffffffffffffffffffffffffffffffffffffff16815260200190815260200160002060008201518160000160006101000a81548173ffffffffffffffffffffffffffffffffffffffff021916908373ffffffffffffffffffffffffffffffffffffffff160217905550602082015181600101908051906020019061245f929190612af4565b5090505080915050919050565b612474612c2d565b6000600360003373ffffffffffffffffffffffffffffffffffffffff1673ffffffffffffffffffffffffffffffffffffffff16815260200190815260200160002060010180546124c39061369b565b905014612505576040517f08c379a00000000000000000000000000000000000000000000000000000000081526004016124fc9061373f565b60405180910390fd5b61250d612c2d565b33816000019073ffffffffffffffffffffffffffffffffffffffff16908173ffffffffffffffffffffffffffffffffffffffff168152505082816020018190525080600360003373ffffffffffffffffffffffffffffffffffffffff1673ffffffffffffffffffffffffffffffffffffffff16815260200190815260200160002060008201518160000160006101000a81548173ffffffffffffffffffffffffffffffffffffffff021916908373ffffffffffffffffffffffffffffffffffffffff16021790555060208201518160010190805190602001906125f1929190612af4565b5090505080915050919050565b60036020528060005260406000206000915090508060000160009054906101000a900473ffffffffffffffffffffffffffffffffffffffff16908060010180546126479061369b565b80601f01602080910402602001604051908101604052809291908181526020018280546126739061369b565b80156126c05780601f10612695576101008083540402835291602001916126c0565b820191906000526020600020905b8154815290600101906020018083116126a357829003601f168201915b5050505050905082565b6000806126d5612bfd565b6126dd612ac4565b6126e5612c2d565b600080600188815481106126fc576126fb6137cb565b5b906000526020600020906007020160405180610100016040529081600082015481526020016001820180546127309061369b565b80601f016020809104026020016040519081016040528092919081815260200182805461275c9061369b565b80156127a95780601f1061277e576101008083540402835291602001916127a9565b820191906000526020600020905b81548152906001019060200180831161278c57829003601f168201915b50505050508152602001600282015481526020016003820180546127cc9061369b565b80601f01602080910402602001604051908101604052809291908181526020018280546127f89061369b565b80156128455780601f1061281a57610100808354040283529160200191612845565b820191906000526020600020905b81548152906001019060200180831161282857829003601f168201915b505050505081526020016004820160009054906101000a900460ff16600281111561287357612872613009565b5b600281111561288557612884613009565b5b81526020016004820160019054906101000a900473ffffffffffffffffffffffffffffffffffffffff1673ffffffffffffffffffffffffffffffffffffffff1673ffffffffffffffffffffffffffffffffffffffff168152602001600582015481526020016006820160009054906101000a900473ffffffffffffffffffffffffffffffffffffffff1673ffffffffffffffffffffffffffffffffffffffff1673ffffffffffffffffffffffffffffffffffffffff16815250509050600081608001519050612952612bfd565b61295a612ac4565b612962612c2d565b6000600281111561297657612975613009565b5b84600281111561298957612988613009565b5b14156129a6578460a00151955061299f86610ceb565b9250612a58565b6002808111156129b9576129b8613009565b5b8460028111156129cc576129cb613009565b5b14156129e9578460e0015195506129e286610ba4565b9150612a57565b600560008d815260200190815260200160002060018660c00151612a0d91906139cd565b81548110612a1e57612a1d6137cb565b5b9060005260206000200160009054906101000a900473ffffffffffffffffffffffffffffffffffffffff169550612a5486610efe565b90505b5b83868484849a509a509a509a509a5050505050505091939590929450565b60056020528160005260406000208181548110612a9257600080fd5b906000526020600020016000915091509054906101000a900473ffffffffffffffffffffffffffffffffffffffff1681565b6040518060400160405280600073ffffffffffffffffffffffffffffffffffffffff168152602001606081525090565b828054612b009061369b565b90600052602060002090601f016020900481019282612b225760008555612b69565b82601f10612b3b57805160ff1916838001178555612b69565b82800160010185558215612b69579182015b82811115612b68578251825591602001919060010190612b4d565b5b509050612b769190612caf565b5090565b6040518061010001604052806000815260200160608152602001600081526020016060815260200160006002811115612bb657612bb5613009565b5b8152602001600073ffffffffffffffffffffffffffffffffffffffff16815260200160008152602001600073ffffffffffffffffffffffffffffffffffffffff1681525090565b6040518060400160405280600073ffffffffffffffffffffffffffffffffffffffff168152602001606081525090565b6040518060400160405280600073ffffffffffffffffffffffffffffffffffffffff168152602001606081525090565b828054828255906000526020600020908101928215612c9e5760005260206000209182015b82811115612c9d578254825591600101919060010190612c82565b5b509050612cab9190612caf565b5090565b5b80821115612cc8576000816000905550600101612cb0565b5090565b6000604051905090565b600080fd5b600080fd5b600080fd5b600080fd5b6000601f19601f8301169050919050565b7f4e487b7100000000000000000000000000000000000000000000000000000000600052604160045260246000fd5b612d3382612cea565b810181811067ffffffffffffffff82111715612d5257612d51612cfb565b5b80604052505050565b6000612d65612ccc565b9050612d718282612d2a565b919050565b600067ffffffffffffffff821115612d9157612d90612cfb565b5b612d9a82612cea565b9050602081019050919050565b82818337600083830152505050565b6000612dc9612dc484612d76565b612d5b565b905082815260208101848484011115612de557612de4612ce5565b5b612df0848285612da7565b509392505050565b600082601f830112612e0d57612e0c612ce0565b5b8135612e1d848260208601612db6565b91505092915050565b600060208284031215612e3c57612e3b612cd6565b5b600082013567ffffffffffffffff811115612e5a57612e59612cdb565b5b612e6684828501612df8565b91505092915050565b600073ffffffffffffffffffffffffffffffffffffffff82169050919050565b6000612e9a82612e6f565b9050919050565b612eaa81612e8f565b82525050565b600081519050919050565b600082825260208201905092915050565b60005b83811015612eea578082015181840152602081019050612ecf565b83811115612ef9576000848401525b50505050565b6000612f0a82612eb0565b612f148185612ebb565b9350612f24818560208601612ecc565b612f2d81612cea565b840191505092915050565b6000604083016000830151612f506000860182612ea1565b5060208301518482036020860152612f688282612eff565b9150508091505092915050565b60006020820190508181036000830152612f8f8184612f38565b905092915050565b6000819050919050565b612faa81612f97565b8114612fb557600080fd5b50565b600081359050612fc781612fa1565b92915050565b600060208284031215612fe357612fe2612cd6565b5b6000612ff184828501612fb8565b91505092915050565b61300381612f97565b82525050565b7f4e487b7100000000000000000000000000000000000000000000000000000000600052602160045260246000fd5b6003811061304957613048613009565b5b50565b600081905061305a82613038565b919050565b600061306a8261304c565b9050919050565b61307a8161305f565b82525050565b6000610100830160008301516130996000860182612ffa565b50602083015184820360208601526130b18282612eff565b91505060408301516130c66040860182612ffa565b50606083015184820360608601526130de8282612eff565b91505060808301516130f36080860182613071565b5060a083015161310660a0860182612ea1565b5060c083015161311960c0860182612ffa565b5060e083015161312c60e0860182612ea1565b508091505092915050565b600060208201905081810360008301526131518184613080565b905092915050565b61316281612e8f565b811461316d57600080fd5b50565b60008135905061317f81613159565b92915050565b60006020828403121561319b5761319a612cd6565b5b60006131a984828501613170565b91505092915050565b60006040830160008301516131ca6000860182612ea1565b50602083015184820360208601526131e28282612eff565b9150508091505092915050565b6000602082019050818103600083015261320981846131b2565b905092915050565b61321a81612e8f565b82525050565b600082825260208201905092915050565b600061323c82612eb0565b6132468185613220565b9350613256818560208601612ecc565b61325f81612cea565b840191505092915050565b600060408201905061327f6000830185613211565b81810360208301526132918184613231565b90509392505050565b60006040830160008301516132b26000860182612ea1565b50602083015184820360208601526132ca8282612eff565b9150508091505092915050565b600060208201905081810360008301526132f1818461329a565b905092915050565b600081519050919050565b600082825260208201905092915050565b6000819050602082019050919050565b600060408301600083015161333d6000860182612ea1565b50602083015184820360208601526133558282612eff565b9150508091505092915050565b600061336e8383613325565b905092915050565b6000602082019050919050565b600061338e826132f9565b6133988185613304565b9350836020820285016133aa85613315565b8060005b858110156133e657848403895281516133c78582613362565b94506133d283613376565b925060208a019950506001810190506133ae565b50829750879550505050505092915050565b600060808201905081810360008301526134128187613080565b905081810360208301526134268186613383565b9050818103604083015261343a81856131b2565b9050818103606083015261344e8184612f38565b905095945050505050565b61346281612f97565b82525050565b6134718161305f565b82525050565b60006101008201905061348d600083018b613459565b818103602083015261349f818a613231565b90506134ae6040830189613459565b81810360608301526134c08188613231565b90506134cf6080830187613468565b6134dc60a0830186613211565b6134e960c0830185613459565b6134f660e0830184613211565b9998505050505050505050565b60006020820190506135186000830184613459565b92915050565b60008060006060848603121561353757613536612cd6565b5b600084013567ffffffffffffffff81111561355557613554612cdb565b5b61356186828701612df8565b935050602061357286828701612fb8565b925050604084013567ffffffffffffffff81111561359357613592612cdb565b5b61359f86828701612df8565b9150509250925092565b600060a0820190506135be6000830188613468565b6135cb6020830187613211565b81810360408301526135dd81866131b2565b905081810360608301526135f18185612f38565b90508181036080830152613605818461329a565b90509695505050505050565b6000806040838503121561362857613627612cd6565b5b600061363685828601612fb8565b925050602061364785828601612fb8565b9150509250929050565b60006020820190506136666000830184613211565b92915050565b7f4e487b7100000000000000000000000000000000000000000000000000000000600052602260045260246000fd5b600060028204905060018216806136b357607f821691505b602082108114156136c7576136c661366c565b5b50919050565b7f54686973206164647265737320697320616c726561647920726567697374657260008201527f65642061732072657461696c6572000000000000000000000000000000000000602082015250565b6000613729602e83613220565b9150613734826136cd565b604082019050919050565b600060208201905081810360008301526137588161371c565b9050919050565b7f50726f6475637420646f6573206e6f7420657869737400000000000000000000600082015250565b6000613795601683613220565b91506137a08261375f565b602082019050919050565b600060208201905081810360008301526137c481613788565b9050919050565b7f4e487b7100000000000000000000000000000000000000000000000000000000600052603260045260246000fd5b7f50726f6475637420686173206265656e2072656c6561736564206f7220736f6c60008201527f6400000000000000000000000000000000000000000000000000000000000000602082015250565b6000613856602183613220565b9150613861826137fa565b604082019050919050565b6000602082019050818103600083015261388581613849565b9050919050565b7f4e487b7100000000000000000000000000000000000000000000000000000000600052601160045260246000fd5b60006138c682612f97565b91507fffffffffffffffffffffffffffffffffffffffffffffffffffffffffffffffff8214156138f9576138f861388c565b5b600182019050919050565b60006060820190506139196000830186613459565b6139266020830185613211565b6139336040830184613211565b949350505050565b7f50726f6475637420686173206e6f74206265656e2072656c6561736564206f7260008201527f20686173206265656e20616c726561647920736f6c6400000000000000000000602082015250565b6000613997603683613220565b91506139a28261393b565b604082019050919050565b600060208201905081810360008301526139c68161398a565b9050919050565b60006139d882612f97565b91506139e383612f97565b9250828210156139f6576139f561388c565b5b828203905092915050565b7f4f6e6c79206d616e756661637475726572732063616e206164642070726f647560008201527f6374000000000000000000000000000000000000000000000000000000000000602082015250565b6000613a5d602283613220565b9150613a6882613a01565b604082019050919050565b60006020820190508181036000830152613a8c81613a50565b9050919050565b6000613a9e82612f97565b9150613aa983612f97565b9250827fffffffffffffffffffffffffffffffffffffffffffffffffffffffffffffffff03821115613ade57613add61388c565b5b828201905092915050565b6000604082019050613afe6000830185613459565b613b0b6020830184613211565b9392505050565b7f54686973206164647265737320697320616c726561647920726567697374657260008201527f6564206173206d616e7566616374757265720000000000000000000000000000602082015250565b6000613b6e603283613220565b9150613b7982613b12565b604082019050919050565b60006020820190508181036000830152613b9d81613b61565b905091905056fea2646970667358221220c8869d4bae7409ff1c1057696564b455d9de3ff33f142ec5b2ddea90969bdcae64736f6c634300080b0033",
  "immutableReferences": {},
  "source": "// SPDX-License-Identifier: MIT\r\npragma solidity >=0.4.22 <0.9.0;\r\n\r\ncontract DeTrace {\r\n\r\n  enum Stage{\r\n    manufactured,\r\n    released,\r\n    sold\r\n  }\r\n\r\n  struct Product{\r\n    uint256 id;\r\n    string name;\r\n    uint price;\r\n    string ipfs_hash;\r\n    Stage stage;\r\n    address manufacturer;\r\n    uint total_retailers;\r\n    address customer;\r\n  }\r\n\r\n  struct Manufacturer{\r\n    address id;\r\n    string name;\r\n  }\r\n\r\n  struct Retailer{\r\n    address id;\r\n    string name;\r\n  }\r\n\r\n  struct Customer{\r\n    address id;\r\n    string name;\r\n  }\r\n\r\n  uint256 public total_products;\r\n  Product[] public products;\r\n  mapping(address => Manufacturer) public manufacturers;\r\n  mapping(address => Retailer) public retailers;\r\n  mapping(address => Customer) public customers;\r\n  mapping(uint => address[]) public Product_Retailers;\r\n\r\n  address[] address_array;\r\n\r\n  event DeTrace_deployed(string _message);\r\n  event Product_Added(uint _productId,address _manufacturerAddress);\r\n  event Product_Released(uint _productId, address _manufacturerAddress, address _retailerAddress);\r\n  event Product_Sold(uint _productId, address _retailerAddress, address _customerAddress);\r\n\r\n  constructor(){\r\n    total_products = 0;\r\n    emit DeTrace_deployed('DeTrace has been deployed');\r\n  }\r\n\r\n  function addManufacturer(string memory _name) public payable returns (Manufacturer memory){\r\n    \r\n    require(bytes(manufacturers[msg.sender].name).length == 0 , 'This address is already registered as manufacturer');\r\n\r\n    Manufacturer memory _manufacturer;\r\n    _manufacturer.id = msg.sender;\r\n    _manufacturer.name = _name;\r\n\r\n    manufacturers[msg.sender] = _manufacturer;\r\n\r\n    return _manufacturer;\r\n  }\r\n\r\n  function addRetailer(string memory _name) public payable returns (Retailer memory){\r\n    \r\n    require(bytes(retailers[msg.sender].name).length == 0 , 'This address is already registered as retailer');\r\n\r\n    Retailer memory _retailer;\r\n    _retailer.id = msg.sender;\r\n    _retailer.name = _name;\r\n\r\n    retailers[msg.sender] = _retailer;\r\n\r\n    return _retailer;\r\n  }  \r\n\r\n  function addCustomer(string memory _name) public payable returns (Customer memory){\r\n    \r\n    require(bytes(customers[msg.sender].name).length == 0 , 'This address is already registered as retailer');\r\n\r\n    Customer memory _customer;\r\n    _customer.id = msg.sender;\r\n    _customer.name = _name;\r\n\r\n    customers[msg.sender] = _customer;\r\n\r\n    return _customer;\r\n  }\r\n\r\n  function addProduct(string memory _name, uint _price, string memory _ipfs_hash) public payable returns(Product memory){\r\n\r\n    require(manufacturers[msg.sender].id != address(0), 'Only manufacturers can add product');\r\n\r\n    //get the manufacturer\r\n    Manufacturer memory _manufacturer = manufacturers[msg.sender];\r\n    \r\n    //create the product\r\n    Product memory _product;\r\n    _product.id = total_products;\r\n    _product.name = _name;\r\n    _product.price = _price;\r\n    _product.ipfs_hash = _ipfs_hash;\r\n    _product.manufacturer = _manufacturer.id;\r\n    _product.stage = Stage.manufactured;\r\n    _product.total_retailers = 0;\r\n\r\n    //add the product\r\n    products.push(_product);\r\n    total_products += 1;\r\n\r\n    //Add into proper mappings\r\n    Product_Retailers[_product.id] = address_array;\r\n\r\n    emit Product_Added(_product.id, msg.sender);\r\n\r\n    return _product;\r\n  }\r\n\r\n  function releaseProduct(uint _productId) public payable returns (Product memory){\r\n\r\n    require(_productId < total_products,'Product does not exist');\r\n\r\n    //Get the product\r\n    Product memory _product = products[_productId];\r\n\r\n    //check if the product has already been released or manufactured\r\n    require(_product.stage == Stage.manufactured, 'Product has been released or sold');\r\n\r\n    //Shift ownership from manufacturer to retailer\r\n    Product_Retailers[_productId].push(msg.sender);\r\n    _product.total_retailers++;\r\n    _product.stage = Stage.released;\r\n\r\n    //save the updated product details\r\n    products[_productId] = _product;\r\n\r\n    emit Product_Released(_productId, _product.manufacturer, msg.sender);\r\n\r\n    return _product;\r\n  }\r\n\r\n  function buyProduct(uint _productId) public payable returns (Product memory){\r\n    require(_productId < total_products,'Product does not exist');\r\n\r\n    //Get the product\r\n    Product memory _product = products[_productId];\r\n\r\n    //check if the product has already been released or manufactured\r\n    require(_product.stage == Stage.released, 'Product has not been released or has been already sold');\r\n\r\n    //Get the details of the retailer who is selling\r\n    address _retailerId = Product_Retailers[_product.id][_product.total_retailers - 1];\r\n    Retailer memory _retailer = retailers[_retailerId];\r\n    \r\n    //Get the details of the customer\r\n    Customer memory _customer = customers[msg.sender];\r\n\r\n    //Shift ownership from retailer to customer\r\n    _product.stage = Stage.sold;\r\n    _product.customer = _customer.id;\r\n\r\n    //save the updated product details\r\n    products[_productId] = _product;\r\n\r\n    emit Product_Sold(_productId, _retailer.id, msg.sender);\r\n  \r\n    return _product;\r\n  }\r\n\r\n  function getManufacturerDetails(address _manufacturerId) public view returns(Manufacturer memory){\r\n    Manufacturer memory _manufacturer = manufacturers[_manufacturerId];\r\n    return _manufacturer;\r\n  }\r\n\r\n  function getRetailerDetails(address _retailerId) public view returns(Retailer memory){\r\n    Retailer memory _retailer = retailers[_retailerId];\r\n    return _retailer;\r\n  }\r\n\r\n  function getCustomerDetails(address _customerId) public view returns(Customer memory){\r\n    Customer memory _customer = customers[_customerId];\r\n    return _customer;\r\n  }\r\n\r\n  function getProductDetails(uint _productId) public view returns(Product memory, Retailer[] memory, Manufacturer memory, Customer memory){\r\n    //Get the product\r\n    Product memory _product = products[_productId];\r\n\r\n    //Get all the retailers addresses\r\n    address[] memory _retailer_addresses = Product_Retailers[_productId];\r\n\r\n    //Initialize an empty reailters array\r\n    Retailer[] memory _retailers;\r\n\r\n    //Get the manufacturer\r\n    Manufacturer memory _manufacturer = getManufacturerDetails(_product.manufacturer);\r\n\r\n    //Get the customer\r\n    Customer memory _customer = getCustomerDetails(_product.customer);\r\n\r\n    //Push all the retailers in the _retailers array\r\n    for (uint256 i = 0; i < _retailer_addresses.length; i++) {\r\n      _retailers[i] = getRetailerDetails(_retailer_addresses[i]);\r\n    }\r\n    return (_product, _retailers, _manufacturer, _customer);\r\n  }\r\n\r\n  function getCurrentStatus(uint _productId) public view returns (Stage, address, Manufacturer memory, Customer memory, Retailer memory ) {\r\n    //Initilize an empty address for owner\r\n    address _owner_address;\r\n\r\n    //Get product details\r\n    Product memory _product = products[_productId];\r\n\r\n    //Get product stage\r\n    Stage _stage = _product.stage;\r\n\r\n    //Instantiate each user\r\n    Manufacturer memory _manufacturer;\r\n    Customer memory _customer;\r\n    Retailer memory _retailer;\r\n\r\n    //Check for each stage\r\n    if(_stage == Stage.manufactured){\r\n      _owner_address = _product.manufacturer;\r\n      _manufacturer = getManufacturerDetails(_owner_address);\r\n    } else if(_stage == Stage.sold) {\r\n      _owner_address = _product.customer;\r\n      _customer = getCustomerDetails(_owner_address);\r\n    } else {\r\n      _owner_address = Product_Retailers[_productId][_product.total_retailers - 1];\r\n      _retailer = getRetailerDetails(_owner_address);\r\n    }\r\n    return (_stage, _owner_address, _manufacturer, _customer, _retailer);\r\n  }\r\n}\r\n\r\n",
  "sourcePath": "C:\\Users\\Kailash\\Desktop\\hackstack\\contracts\\contracts\\DeTrace.sol",
  "compiler": {
    "name": "solc",
    "version": "0.8.11+commit.d7f03943.Emscripten.clang"
  },
  "schemaVersion": "3.4.5",
  "updatedAt": "2022-04-09T06:49:19.175Z",
  "networkType": "ethereum",
  "devdoc": {
    "kind": "dev",
    "methods": {},
    "version": 1
  },
  "userdoc": {
    "kind": "user",
    "methods": {},
    "version": 1
  }
}