{
  "contractName": "DeTrace",
  "abi": [
    {
      "inputs": [],
      "stateMutability": "nonpayable",
      "type": "constructor"
    },
    {
      "anonymous": false,
      "inputs": [
        {
          "indexed": false,
          "internalType": "string",
          "name": "_message",
          "type": "string"
        }
      ],
      "name": "DeTrace_deployed",
      "type": "event"
    },
    {
      "anonymous": false,
      "inputs": [
        {
          "indexed": false,
          "internalType": "uint256",
          "name": "_productId",
          "type": "uint256"
        },
        {
          "indexed": false,
          "internalType": "address",
          "name": "_manufacturerAddress",
          "type": "address"
        }
      ],
      "name": "Product_Added",
      "type": "event"
    },
    {
      "anonymous": false,
      "inputs": [
        {
          "indexed": false,
          "internalType": "uint256",
          "name": "_productId",
          "type": "uint256"
        },
        {
          "indexed": false,
          "internalType": "address",
          "name": "_manufacturerAddress",
          "type": "address"
        },
        {
          "indexed": false,
          "internalType": "address",
          "name": "_retailerAddress",
          "type": "address"
        }
      ],
      "name": "Product_Released",
      "type": "event"
    },
    {
      "anonymous": false,
      "inputs": [
        {
          "indexed": false,
          "internalType": "uint256",
          "name": "_productId",
          "type": "uint256"
        },
        {
          "indexed": false,
          "internalType": "address",
          "name": "_retailerAddress",
          "type": "address"
        },
        {
          "indexed": false,
          "internalType": "address",
          "name": "_customerAddress",
          "type": "address"
        }
      ],
      "name": "Product_Sold",
      "type": "event"
    },
    {
      "inputs": [
        {
          "internalType": "uint256",
          "name": "",
          "type": "uint256"
        },
        {
          "internalType": "uint256",
          "name": "",
          "type": "uint256"
        }
      ],
      "name": "Product_Retailers",
      "outputs": [
        {
          "internalType": "address",
          "name": "",
          "type": "address"
        }
      ],
      "stateMutability": "view",
      "type": "function",
      "constant": true
    },
    {
      "inputs": [
        {
          "internalType": "address",
          "name": "",
          "type": "address"
        },
        {
          "internalType": "uint256",
          "name": "",
          "type": "uint256"
        }
      ],
      "name": "customer_orders",
      "outputs": [
        {
          "internalType": "uint256",
          "name": "",
          "type": "uint256"
        }
      ],
      "stateMutability": "view",
      "type": "function",
      "constant": true
    },
    {
      "inputs": [
        {
          "internalType": "address",
          "name": "",
          "type": "address"
        }
      ],
      "name": "customers",
      "outputs": [
        {
          "internalType": "address",
          "name": "id",
          "type": "address"
        },
        {
          "internalType": "string",
          "name": "name",
          "type": "string"
        },
        {
          "internalType": "uint256",
          "name": "total_orders",
          "type": "uint256"
        }
      ],
      "stateMutability": "view",
      "type": "function",
      "constant": true
    },
    {
      "inputs": [
        {
          "internalType": "address",
          "name": "",
          "type": "address"
        },
        {
          "internalType": "uint256",
          "name": "",
          "type": "uint256"
        }
      ],
      "name": "manufacturer_inventory",
      "outputs": [
        {
          "internalType": "uint256",
          "name": "",
          "type": "uint256"
        }
      ],
      "stateMutability": "view",
      "type": "function",
      "constant": true
    },
    {
      "inputs": [
        {
          "internalType": "address",
          "name": "",
          "type": "address"
        }
      ],
      "name": "manufacturers",
      "outputs": [
        {
          "internalType": "address",
          "name": "id",
          "type": "address"
        },
        {
          "internalType": "string",
          "name": "name",
          "type": "string"
        },
        {
          "internalType": "uint256",
          "name": "total_products",
          "type": "uint256"
        }
      ],
      "stateMutability": "view",
      "type": "function",
      "constant": true
    },
    {
      "inputs": [
        {
          "internalType": "uint256",
          "name": "",
          "type": "uint256"
        }
      ],
      "name": "products",
      "outputs": [
        {
          "internalType": "uint256",
          "name": "id",
          "type": "uint256"
        },
        {
          "internalType": "string",
          "name": "name",
          "type": "string"
        },
        {
          "internalType": "uint256",
          "name": "price",
          "type": "uint256"
        },
        {
          "internalType": "string",
          "name": "ipfs_hash",
          "type": "string"
        },
        {
          "internalType": "enum DeTrace.Stage",
          "name": "stage",
          "type": "uint8"
        },
        {
          "internalType": "address",
          "name": "manufacturer",
          "type": "address"
        },
        {
          "internalType": "uint256",
          "name": "total_retailers",
          "type": "uint256"
        },
        {
          "internalType": "address",
          "name": "customer",
          "type": "address"
        }
      ],
      "stateMutability": "view",
      "type": "function",
      "constant": true
    },
    {
      "inputs": [
        {
          "internalType": "address",
          "name": "",
          "type": "address"
        },
        {
          "internalType": "uint256",
          "name": "",
          "type": "uint256"
        }
      ],
      "name": "retailer_inventory",
      "outputs": [
        {
          "internalType": "uint256",
          "name": "",
          "type": "uint256"
        }
      ],
      "stateMutability": "view",
      "type": "function",
      "constant": true
    },
    {
      "inputs": [
        {
          "internalType": "address",
          "name": "",
          "type": "address"
        }
      ],
      "name": "retailers",
      "outputs": [
        {
          "internalType": "address",
          "name": "id",
          "type": "address"
        },
        {
          "internalType": "string",
          "name": "name",
          "type": "string"
        },
        {
          "internalType": "uint256",
          "name": "total_products",
          "type": "uint256"
        }
      ],
      "stateMutability": "view",
      "type": "function",
      "constant": true
    },
    {
      "inputs": [],
      "name": "total_products",
      "outputs": [
        {
          "internalType": "uint256",
          "name": "",
          "type": "uint256"
        }
      ],
      "stateMutability": "view",
      "type": "function",
      "constant": true
    },
    {
      "inputs": [
        {
          "internalType": "string",
          "name": "_name",
          "type": "string"
        }
      ],
      "name": "addManufacturer",
      "outputs": [
        {
          "components": [
            {
              "internalType": "address",
              "name": "id",
              "type": "address"
            },
            {
              "internalType": "string",
              "name": "name",
              "type": "string"
            },
            {
              "internalType": "uint256",
              "name": "total_products",
              "type": "uint256"
            }
          ],
          "internalType": "struct DeTrace.Manufacturer",
          "name": "",
          "type": "tuple"
        }
      ],
      "stateMutability": "payable",
      "type": "function",
      "payable": true
    },
    {
      "inputs": [
        {
          "internalType": "string",
          "name": "_name",
          "type": "string"
        }
      ],
      "name": "addRetailer",
      "outputs": [
        {
          "components": [
            {
              "internalType": "address",
              "name": "id",
              "type": "address"
            },
            {
              "internalType": "string",
              "name": "name",
              "type": "string"
            },
            {
              "internalType": "uint256",
              "name": "total_products",
              "type": "uint256"
            }
          ],
          "internalType": "struct DeTrace.Retailer",
          "name": "",
          "type": "tuple"
        }
      ],
      "stateMutability": "payable",
      "type": "function",
      "payable": true
    },
    {
      "inputs": [
        {
          "internalType": "string",
          "name": "_name",
          "type": "string"
        }
      ],
      "name": "addCustomer",
      "outputs": [
        {
          "components": [
            {
              "internalType": "address",
              "name": "id",
              "type": "address"
            },
            {
              "internalType": "string",
              "name": "name",
              "type": "string"
            },
            {
              "internalType": "uint256",
              "name": "total_orders",
              "type": "uint256"
            }
          ],
          "internalType": "struct DeTrace.Customer",
          "name": "",
          "type": "tuple"
        }
      ],
      "stateMutability": "payable",
      "type": "function",
      "payable": true
    },
    {
      "inputs": [
        {
          "internalType": "string",
          "name": "_name",
          "type": "string"
        },
        {
          "internalType": "uint256",
          "name": "_price",
          "type": "uint256"
        },
        {
          "internalType": "string",
          "name": "_ipfs_hash",
          "type": "string"
        }
      ],
      "name": "addProduct",
      "outputs": [
        {
          "components": [
            {
              "internalType": "uint256",
              "name": "id",
              "type": "uint256"
            },
            {
              "internalType": "string",
              "name": "name",
              "type": "string"
            },
            {
              "internalType": "uint256",
              "name": "price",
              "type": "uint256"
            },
            {
              "internalType": "string",
              "name": "ipfs_hash",
              "type": "string"
            },
            {
              "internalType": "enum DeTrace.Stage",
              "name": "stage",
              "type": "uint8"
            },
            {
              "internalType": "address",
              "name": "manufacturer",
              "type": "address"
            },
            {
              "internalType": "uint256",
              "name": "total_retailers",
              "type": "uint256"
            },
            {
              "internalType": "address",
              "name": "customer",
              "type": "address"
            }
          ],
          "internalType": "struct DeTrace.Product",
          "name": "",
          "type": "tuple"
        }
      ],
      "stateMutability": "payable",
      "type": "function",
      "payable": true
    },
    {
      "inputs": [
        {
          "internalType": "uint256",
          "name": "_productId",
          "type": "uint256"
        }
      ],
      "name": "releaseProduct",
      "outputs": [
        {
          "components": [
            {
              "internalType": "uint256",
              "name": "id",
              "type": "uint256"
            },
            {
              "internalType": "string",
              "name": "name",
              "type": "string"
            },
            {
              "internalType": "uint256",
              "name": "price",
              "type": "uint256"
            },
            {
              "internalType": "string",
              "name": "ipfs_hash",
              "type": "string"
            },
            {
              "internalType": "enum DeTrace.Stage",
              "name": "stage",
              "type": "uint8"
            },
            {
              "internalType": "address",
              "name": "manufacturer",
              "type": "address"
            },
            {
              "internalType": "uint256",
              "name": "total_retailers",
              "type": "uint256"
            },
            {
              "internalType": "address",
              "name": "customer",
              "type": "address"
            }
          ],
          "internalType": "struct DeTrace.Product",
          "name": "",
          "type": "tuple"
        }
      ],
      "stateMutability": "payable",
      "type": "function",
      "payable": true
    },
    {
      "inputs": [
        {
          "internalType": "uint256",
          "name": "_productId",
          "type": "uint256"
        }
      ],
      "name": "buyProduct",
      "outputs": [
        {
          "components": [
            {
              "internalType": "uint256",
              "name": "id",
              "type": "uint256"
            },
            {
              "internalType": "string",
              "name": "name",
              "type": "string"
            },
            {
              "internalType": "uint256",
              "name": "price",
              "type": "uint256"
            },
            {
              "internalType": "string",
              "name": "ipfs_hash",
              "type": "string"
            },
            {
              "internalType": "enum DeTrace.Stage",
              "name": "stage",
              "type": "uint8"
            },
            {
              "internalType": "address",
              "name": "manufacturer",
              "type": "address"
            },
            {
              "internalType": "uint256",
              "name": "total_retailers",
              "type": "uint256"
            },
            {
              "internalType": "address",
              "name": "customer",
              "type": "address"
            }
          ],
          "internalType": "struct DeTrace.Product",
          "name": "",
          "type": "tuple"
        }
      ],
      "stateMutability": "payable",
      "type": "function",
      "payable": true
    },
    {
      "inputs": [
        {
          "internalType": "address",
          "name": "_manufacturerId",
          "type": "address"
        }
      ],
      "name": "getManufacturerDetails",
      "outputs": [
        {
          "components": [
            {
              "internalType": "address",
              "name": "id",
              "type": "address"
            },
            {
              "internalType": "string",
              "name": "name",
              "type": "string"
            },
            {
              "internalType": "uint256",
              "name": "total_products",
              "type": "uint256"
            }
          ],
          "internalType": "struct DeTrace.Manufacturer",
          "name": "",
          "type": "tuple"
        }
      ],
      "stateMutability": "view",
      "type": "function",
      "constant": true
    },
    {
      "inputs": [
        {
          "internalType": "address",
          "name": "_manufacturerId",
          "type": "address"
        }
      ],
      "name": "getManufacturerInventory",
      "outputs": [
        {
          "internalType": "uint256[]",
          "name": "",
          "type": "uint256[]"
        }
      ],
      "stateMutability": "view",
      "type": "function",
      "constant": true
    },
    {
      "inputs": [
        {
          "internalType": "address",
          "name": "_retailerId",
          "type": "address"
        }
      ],
      "name": "getRetailerDetails",
      "outputs": [
        {
          "components": [
            {
              "internalType": "address",
              "name": "id",
              "type": "address"
            },
            {
              "internalType": "string",
              "name": "name",
              "type": "string"
            },
            {
              "internalType": "uint256",
              "name": "total_products",
              "type": "uint256"
            }
          ],
          "internalType": "struct DeTrace.Retailer",
          "name": "",
          "type": "tuple"
        }
      ],
      "stateMutability": "view",
      "type": "function",
      "constant": true
    },
    {
      "inputs": [
        {
          "internalType": "address",
          "name": "_retailerId",
          "type": "address"
        }
      ],
      "name": "getRetailerInventory",
      "outputs": [
        {
          "internalType": "uint256[]",
          "name": "",
          "type": "uint256[]"
        }
      ],
      "stateMutability": "view",
      "type": "function",
      "constant": true
    },
    {
      "inputs": [
        {
          "internalType": "address",
          "name": "_customerId",
          "type": "address"
        }
      ],
      "name": "getCustomerDetails",
      "outputs": [
        {
          "components": [
            {
              "internalType": "address",
              "name": "id",
              "type": "address"
            },
            {
              "internalType": "string",
              "name": "name",
              "type": "string"
            },
            {
              "internalType": "uint256",
              "name": "total_orders",
              "type": "uint256"
            }
          ],
          "internalType": "struct DeTrace.Customer",
          "name": "",
          "type": "tuple"
        }
      ],
      "stateMutability": "view",
      "type": "function",
      "constant": true
    },
    {
      "inputs": [
        {
          "internalType": "address",
          "name": "_customerId",
          "type": "address"
        }
      ],
      "name": "getCustomerOrders",
      "outputs": [
        {
          "internalType": "uint256[]",
          "name": "",
          "type": "uint256[]"
        }
      ],
      "stateMutability": "view",
      "type": "function",
      "constant": true
    },
    {
      "inputs": [
        {
          "internalType": "uint256",
          "name": "_productId",
          "type": "uint256"
        }
      ],
      "name": "getProductDetails",
      "outputs": [
        {
          "components": [
            {
              "internalType": "uint256",
              "name": "id",
              "type": "uint256"
            },
            {
              "internalType": "string",
              "name": "name",
              "type": "string"
            },
            {
              "internalType": "uint256",
              "name": "price",
              "type": "uint256"
            },
            {
              "internalType": "string",
              "name": "ipfs_hash",
              "type": "string"
            },
            {
              "internalType": "enum DeTrace.Stage",
              "name": "stage",
              "type": "uint8"
            },
            {
              "internalType": "address",
              "name": "manufacturer",
              "type": "address"
            },
            {
              "internalType": "uint256",
              "name": "total_retailers",
              "type": "uint256"
            },
            {
              "internalType": "address",
              "name": "customer",
              "type": "address"
            }
          ],
          "internalType": "struct DeTrace.Product",
          "name": "",
          "type": "tuple"
        },
        {
          "components": [
            {
              "internalType": "address",
              "name": "id",
              "type": "address"
            },
            {
              "internalType": "string",
              "name": "name",
              "type": "string"
            },
            {
              "internalType": "uint256",
              "name": "total_products",
              "type": "uint256"
            }
          ],
          "internalType": "struct DeTrace.Retailer[]",
          "name": "",
          "type": "tuple[]"
        },
        {
          "components": [
            {
              "internalType": "address",
              "name": "id",
              "type": "address"
            },
            {
              "internalType": "string",
              "name": "name",
              "type": "string"
            },
            {
              "internalType": "uint256",
              "name": "total_products",
              "type": "uint256"
            }
          ],
          "internalType": "struct DeTrace.Manufacturer",
          "name": "",
          "type": "tuple"
        },
        {
          "components": [
            {
              "internalType": "address",
              "name": "id",
              "type": "address"
            },
            {
              "internalType": "string",
              "name": "name",
              "type": "string"
            },
            {
              "internalType": "uint256",
              "name": "total_orders",
              "type": "uint256"
            }
          ],
          "internalType": "struct DeTrace.Customer",
          "name": "",
          "type": "tuple"
        }
      ],
      "stateMutability": "view",
      "type": "function",
      "constant": true
    },
    {
      "inputs": [
        {
          "internalType": "uint256",
          "name": "_productId",
          "type": "uint256"
        }
      ],
      "name": "getCurrentStatus",
      "outputs": [
        {
          "internalType": "enum DeTrace.Stage",
          "name": "",
          "type": "uint8"
        },
        {
          "internalType": "address",
          "name": "",
          "type": "address"
        },
        {
          "components": [
            {
              "internalType": "address",
              "name": "id",
              "type": "address"
            },
            {
              "internalType": "string",
              "name": "name",
              "type": "string"
            },
            {
              "internalType": "uint256",
              "name": "total_products",
              "type": "uint256"
            }
          ],
          "internalType": "struct DeTrace.Manufacturer",
          "name": "",
          "type": "tuple"
        },
        {
          "components": [
            {
              "internalType": "address",
              "name": "id",
              "type": "address"
            },
            {
              "internalType": "string",
              "name": "name",
              "type": "string"
            },
            {
              "internalType": "uint256",
              "name": "total_orders",
              "type": "uint256"
            }
          ],
          "internalType": "struct DeTrace.Customer",
          "name": "",
          "type": "tuple"
        },
        {
          "components": [
            {
              "internalType": "address",
              "name": "id",
              "type": "address"
            },
            {
              "internalType": "string",
              "name": "name",
              "type": "string"
            },
            {
              "internalType": "uint256",
              "name": "total_products",
              "type": "uint256"
            }
          ],
          "internalType": "struct DeTrace.Retailer",
          "name": "",
          "type": "tuple"
        }
      ],
      "stateMutability": "view",
      "type": "function",
      "constant": true
    },
    {
      "inputs": [
        {
          "internalType": "address",
          "name": "_user",
          "type": "address"
        }
      ],
      "name": "getUserType",
      "outputs": [
        {
          "internalType": "enum DeTrace.Role",
          "name": "",
          "type": "uint8"
        }
      ],
      "stateMutability": "view",
      "type": "function",
      "constant": true
    }
  ],
  "bytecode": "0x60806040523480156200001157600080fd5b50600080819055507f7b156246723a58575721985ed99046dbbecb42c4dc7265035b5f6e3a9ceab4dc6040516200004890620000b7565b60405180910390a1620000d9565b600082825260208201905092915050565b7f4465547261636520686173206265656e206465706c6f79656400000000000000600082015250565b60006200009f60198362000056565b9150620000ac8262000067565b602082019050919050565b60006020820190508181036000830152620000d28162000090565b9050919050565b6155b280620000e96000396000f3fe60806040526004361061014b5760003560e01c80637acc0b20116100b65780638f5ae7991161006f5780638f5ae7991461056257806395d004071461059257806398383922146105c25780639a268f35146105ff578063a0aa13c61461063e578063c41381a91461067f5761014b565b80637acc0b20146104195780637efa69591461045d5780638642269e146104885780638ab7bada146104b85780638b3f863f146104f55780638f29695a146105325761014b565b806345b74c171161010857806345b74c17146102a6578063482f63da146102e3578063565040261461032057806363ba83151461035d5780636813b53b1461039a5780636b5eb09c146103da5761014b565b806303dd3d81146101505780630756be1f146101805780630c60f83d146101b057806322713cc7146101ed57806322f974d21461022a578063336989ae14610267575b600080fd5b61016a6004803603810190610165919061444b565b6106bc565b60405161017791906145c6565b60405180910390f35b61019a60048036038101906101959190614614565b610858565b6040516101a7919061476f565b60405180910390f35b3480156101bc57600080fd5b506101d760048036038101906101d291906147bd565b611434565b6040516101e491906145c6565b60405180910390f35b3480156101f957600080fd5b50610214600480360381019061020f91906147bd565b611585565b604051610221919061483a565b60405180910390f35b34801561023657600080fd5b50610251600480360381019061024c91906147bd565b6116d6565b60405161025e919061490b565b60405180910390f35b34801561027357600080fd5b5061028e600480360381019061028991906147bd565b611773565b60405161029d93929190614995565b60405180910390f35b3480156102b257600080fd5b506102cd60048036038101906102c891906147bd565b611845565b6040516102da919061490b565b60405180910390f35b3480156102ef57600080fd5b5061030a600480360381019061030591906149d3565b6118e2565b6040516103179190614a13565b60405180910390f35b34801561032c57600080fd5b50610347600480360381019061034291906149d3565b611913565b6040516103549190614a13565b60405180910390f35b34801561036957600080fd5b50610384600480360381019061037f91906147bd565b611944565b6040516103919190614a7e565b60405180910390f35b3480156103a657600080fd5b506103c160048036038101906103bc9190614614565b611a95565b6040516103d19493929190614bb2565b60405180910390f35b3480156103e657600080fd5b5061040160048036038101906103fc91906147bd565b611e43565b60405161041093929190614995565b60405180910390f35b34801561042557600080fd5b50610440600480360381019061043b9190614614565b611f15565b604051610454989796959493929190614c22565b60405180910390f35b34801561046957600080fd5b506104726120ca565b60405161047f9190614a13565b60405180910390f35b6104a2600480360381019061049d9190614614565b6120d0565b6040516104af919061476f565b60405180910390f35b3480156104c457600080fd5b506104df60048036038101906104da91906149d3565b612e6b565b6040516104ec9190614a13565b60405180910390f35b34801561050157600080fd5b5061051c600480360381019061051791906147bd565b612e9c565b6040516105299190614cf6565b60405180910390f35b61054c60048036038101906105479190614d11565b613084565b604051610559919061476f565b60405180910390f35b61057c6004803603810190610577919061444b565b61371d565b604051610589919061483a565b60405180910390f35b6105ac60048036038101906105a7919061444b565b6138c4565b6040516105b99190614a7e565b60405180910390f35b3480156105ce57600080fd5b506105e960048036038101906105e491906147bd565b613a6b565b6040516105f6919061490b565b60405180910390f35b34801561060b57600080fd5b50610626600480360381019061062191906147bd565b613b08565b60405161063593929190614995565b60405180910390f35b34801561064a57600080fd5b5061066560048036038101906106609190614614565b613bda565b604051610676959493929190614d9c565b60405180910390f35b34801561068b57600080fd5b506106a660048036038101906106a19190614e04565b613f86565b6040516106b39190614e44565b60405180910390f35b6106c4614082565b6000600460003373ffffffffffffffffffffffffffffffffffffffff1673ffffffffffffffffffffffffffffffffffffffff168152602001908152602001600020600101805461071390614e8e565b905014610755576040517f08c379a000000000000000000000000000000000000000000000000000000000815260040161074c90614f32565b60405180910390fd5b61075d614082565b33816000019073ffffffffffffffffffffffffffffffffffffffff16908173ffffffffffffffffffffffffffffffffffffffff168152505082816020018190525080600460003373ffffffffffffffffffffffffffffffffffffffff1673ffffffffffffffffffffffffffffffffffffffff16815260200190815260200160002060008201518160000160006101000a81548173ffffffffffffffffffffffffffffffffffffffff021916908373ffffffffffffffffffffffffffffffffffffffff16021790555060208201518160010190805190602001906108419291906140b9565b506040820151816002015590505080915050919050565b61086061413f565b33600073ffffffffffffffffffffffffffffffffffffffff16600360008373ffffffffffffffffffffffffffffffffffffffff1673ffffffffffffffffffffffffffffffffffffffff16815260200190815260200160002060000160009054906101000a900473ffffffffffffffffffffffffffffffffffffffff1673ffffffffffffffffffffffffffffffffffffffff161415610933576040517f08c379a000000000000000000000000000000000000000000000000000000000815260040161092a90614fc4565b60405180910390fd5b6000548310610977576040517f08c379a000000000000000000000000000000000000000000000000000000000815260040161096e90615030565b60405180910390fd5b60006001848154811061098d5761098c615050565b5b906000526020600020906007020160405180610100016040529081600082015481526020016001820180546109c190614e8e565b80601f01602080910402602001604051908101604052809291908181526020018280546109ed90614e8e565b8015610a3a5780601f10610a0f57610100808354040283529160200191610a3a565b820191906000526020600020905b815481529060010190602001808311610a1d57829003601f168201915b5050505050815260200160028201548152602001600382018054610a5d90614e8e565b80601f0160208091040260200160405190810160405280929190818152602001828054610a8990614e8e565b8015610ad65780601f10610aab57610100808354040283529160200191610ad6565b820191906000526020600020905b815481529060010190602001808311610ab957829003601f168201915b505050505081526020016004820160009054906101000a900460ff166002811115610b0457610b03614641565b5b6002811115610b1657610b15614641565b5b81526020016004820160019054906101000a900473ffffffffffffffffffffffffffffffffffffffff1673ffffffffffffffffffffffffffffffffffffffff1673ffffffffffffffffffffffffffffffffffffffff168152602001600582015481526020016006820160009054906101000a900473ffffffffffffffffffffffffffffffffffffffff1673ffffffffffffffffffffffffffffffffffffffff1673ffffffffffffffffffffffffffffffffffffffff1681525050905060006002811115610be657610be5614641565b5b81608001516002811115610bfd57610bfc614641565b5b14610c3d576040517f08c379a0000000000000000000000000000000000000000000000000000000008152600401610c34906150f1565b60405180910390fd5b60056000858152602001908152602001600020339080600181540180825580915050600190039060005260206000200160009091909190916101000a81548173ffffffffffffffffffffffffffffffffffffffff021916908373ffffffffffffffffffffffffffffffffffffffff1602179055508060c0018051809190610cc390615140565b81525050600181608001906002811115610ce057610cdf614641565b5b90816002811115610cf457610cf3614641565b5b815250506000600260008360a0015173ffffffffffffffffffffffffffffffffffffffff1673ffffffffffffffffffffffffffffffffffffffff1681526020019081526020016000206040518060600160405290816000820160009054906101000a900473ffffffffffffffffffffffffffffffffffffffff1673ffffffffffffffffffffffffffffffffffffffff1673ffffffffffffffffffffffffffffffffffffffff168152602001600182018054610dae90614e8e565b80601f0160208091040260200160405190810160405280929190818152602001828054610dda90614e8e565b8015610e275780601f10610dfc57610100808354040283529160200191610e27565b820191906000526020600020905b815481529060010190602001808311610e0a57829003601f168201915b50505050508152602001600282015481525050905060005b8160400151811015610f685785600660008560a0015173ffffffffffffffffffffffffffffffffffffffff1673ffffffffffffffffffffffffffffffffffffffff1681526020019081526020016000208281548110610ea157610ea0615050565b5b90600052602060002001541415610f5557610efe81600660008660a0015173ffffffffffffffffffffffffffffffffffffffff1673ffffffffffffffffffffffffffffffffffffffff168152602001908152602001600020613fd4565b600660008560a0015173ffffffffffffffffffffffffffffffffffffffff1673ffffffffffffffffffffffffffffffffffffffff168152602001908152602001600020908054610f4f9291906141c2565b50610f68565b8080610f6090615140565b915050610e3f565b50600181604001818151610f7c9190615189565b9150818152505080600260008460a0015173ffffffffffffffffffffffffffffffffffffffff1673ffffffffffffffffffffffffffffffffffffffff16815260200190815260200160002060008201518160000160006101000a81548173ffffffffffffffffffffffffffffffffffffffff021916908373ffffffffffffffffffffffffffffffffffffffff160217905550602082015181600101908051906020019061102a9291906140b9565b5060408201518160020155905050600760003373ffffffffffffffffffffffffffffffffffffffff1673ffffffffffffffffffffffffffffffffffffffff168152602001908152602001600020826000015190806001815401808255809150506001900390600052602060002001600090919091909150556000600360003373ffffffffffffffffffffffffffffffffffffffff1673ffffffffffffffffffffffffffffffffffffffff1681526020019081526020016000206040518060600160405290816000820160009054906101000a900473ffffffffffffffffffffffffffffffffffffffff1673ffffffffffffffffffffffffffffffffffffffff1673ffffffffffffffffffffffffffffffffffffffff16815260200160018201805461115490614e8e565b80601f016020809104026020016040519081016040528092919081815260200182805461118090614e8e565b80156111cd5780601f106111a2576101008083540402835291602001916111cd565b820191906000526020600020905b8154815290600101906020018083116111b057829003601f168201915b5050505050815260200160028201548152505090506001816040018181516111f591906151bd565b9150818152505080600360003373ffffffffffffffffffffffffffffffffffffffff1673ffffffffffffffffffffffffffffffffffffffff16815260200190815260200160002060008201518160000160006101000a81548173ffffffffffffffffffffffffffffffffffffffff021916908373ffffffffffffffffffffffffffffffffffffffff160217905550602082015181600101908051906020019061129f9291906140b9565b506040820151816002015590505082600187815481106112c2576112c1615050565b5b90600052602060002090600702016000820151816000015560208201518160010190805190602001906112f69291906140b9565b5060408201518160020155606082015181600301908051906020019061131d9291906140b9565b5060808201518160040160006101000a81548160ff0219169083600281111561134957611348614641565b5b021790555060a08201518160040160016101000a81548173ffffffffffffffffffffffffffffffffffffffff021916908373ffffffffffffffffffffffffffffffffffffffff16021790555060c0820151816005015560e08201518160060160006101000a81548173ffffffffffffffffffffffffffffffffffffffff021916908373ffffffffffffffffffffffffffffffffffffffff1602179055509050507fbecca2d2f326ada9f4428c9cf79b47f0fa927aacb38c32ada338ced2c0ead166868460a001513360405161142093929190615213565b60405180910390a182945050505050919050565b61143c614082565b6000600460008473ffffffffffffffffffffffffffffffffffffffff1673ffffffffffffffffffffffffffffffffffffffff1681526020019081526020016000206040518060600160405290816000820160009054906101000a900473ffffffffffffffffffffffffffffffffffffffff1673ffffffffffffffffffffffffffffffffffffffff1673ffffffffffffffffffffffffffffffffffffffff1681526020016001820180546114ee90614e8e565b80601f016020809104026020016040519081016040528092919081815260200182805461151a90614e8e565b80156115675780601f1061153c57610100808354040283529160200191611567565b820191906000526020600020905b81548152906001019060200180831161154a57829003601f168201915b50505050508152602001600282015481525050905080915050919050565b61158d614214565b6000600260008473ffffffffffffffffffffffffffffffffffffffff1673ffffffffffffffffffffffffffffffffffffffff1681526020019081526020016000206040518060600160405290816000820160009054906101000a900473ffffffffffffffffffffffffffffffffffffffff1673ffffffffffffffffffffffffffffffffffffffff1673ffffffffffffffffffffffffffffffffffffffff16815260200160018201805461163f90614e8e565b80601f016020809104026020016040519081016040528092919081815260200182805461166b90614e8e565b80156116b85780601f1061168d576101008083540402835291602001916116b8565b820191906000526020600020905b81548152906001019060200180831161169b57829003601f168201915b50505050508152602001600282015481525050905080915050919050565b60606000600860008473ffffffffffffffffffffffffffffffffffffffff1673ffffffffffffffffffffffffffffffffffffffff16815260200190815260200160002080548060200260200160405190810160405280929190818152602001828054801561176357602002820191906000526020600020905b81548152602001906001019080831161174f575b5050505050905080915050919050565b60046020528060005260406000206000915090508060000160009054906101000a900473ffffffffffffffffffffffffffffffffffffffff16908060010180546117bc90614e8e565b80601f01602080910402602001604051908101604052809291908181526020018280546117e890614e8e565b80156118355780601f1061180a57610100808354040283529160200191611835565b820191906000526020600020905b81548152906001019060200180831161181857829003601f168201915b5050505050908060020154905083565b60606000600660008473ffffffffffffffffffffffffffffffffffffffff1673ffffffffffffffffffffffffffffffffffffffff1681526020019081526020016000208054806020026020016040519081016040528092919081815260200182805480156118d257602002820191906000526020600020905b8154815260200190600101908083116118be575b5050505050905080915050919050565b600660205281600052604060002081815481106118fe57600080fd5b90600052602060002001600091509150505481565b6008602052816000526040600020818154811061192f57600080fd5b90600052602060002001600091509150505481565b61194c61424b565b6000600360008473ffffffffffffffffffffffffffffffffffffffff1673ffffffffffffffffffffffffffffffffffffffff1681526020019081526020016000206040518060600160405290816000820160009054906101000a900473ffffffffffffffffffffffffffffffffffffffff1673ffffffffffffffffffffffffffffffffffffffff1673ffffffffffffffffffffffffffffffffffffffff1681526020016001820180546119fe90614e8e565b80601f0160208091040260200160405190810160405280929190818152602001828054611a2a90614e8e565b8015611a775780601f10611a4c57610100808354040283529160200191611a77565b820191906000526020600020905b815481529060010190602001808311611a5a57829003601f168201915b50505050508152602001600282015481525050905080915050919050565b611a9d61413f565b6060611aa7614214565b611aaf614082565b600060018681548110611ac557611ac4615050565b5b90600052602060002090600702016040518061010001604052908160008201548152602001600182018054611af990614e8e565b80601f0160208091040260200160405190810160405280929190818152602001828054611b2590614e8e565b8015611b725780601f10611b4757610100808354040283529160200191611b72565b820191906000526020600020905b815481529060010190602001808311611b5557829003601f168201915b5050505050815260200160028201548152602001600382018054611b9590614e8e565b80601f0160208091040260200160405190810160405280929190818152602001828054611bc190614e8e565b8015611c0e5780601f10611be357610100808354040283529160200191611c0e565b820191906000526020600020905b815481529060010190602001808311611bf157829003601f168201915b505050505081526020016004820160009054906101000a900460ff166002811115611c3c57611c3b614641565b5b6002811115611c4e57611c4d614641565b5b81526020016004820160019054906101000a900473ffffffffffffffffffffffffffffffffffffffff1673ffffffffffffffffffffffffffffffffffffffff1673ffffffffffffffffffffffffffffffffffffffff168152602001600582015481526020016006820160009054906101000a900473ffffffffffffffffffffffffffffffffffffffff1673ffffffffffffffffffffffffffffffffffffffff1673ffffffffffffffffffffffffffffffffffffffff16815250509050600060056000888152602001908152602001600020805480602002602001604051908101604052809291908181526020018280548015611d9f57602002820191906000526020600020905b8160009054906101000a900473ffffffffffffffffffffffffffffffffffffffff1673ffffffffffffffffffffffffffffffffffffffff1681526020019060010190808311611d55575b5050505050905060606000611db78460a00151611585565b90506000611dc88560e00151611434565b905060005b8451811015611e2a57611df9858281518110611dec57611deb615050565b5b6020026020010151611944565b848281518110611e0c57611e0b615050565b5b60200260200101819052508080611e2290615140565b915050611dcd565b5084838383985098509850985050505050509193509193565b60026020528060005260406000206000915090508060000160009054906101000a900473ffffffffffffffffffffffffffffffffffffffff1690806001018054611e8c90614e8e565b80601f0160208091040260200160405190810160405280929190818152602001828054611eb890614e8e565b8015611f055780601f10611eda57610100808354040283529160200191611f05565b820191906000526020600020905b815481529060010190602001808311611ee857829003601f168201915b5050505050908060020154905083565b60018181548110611f2557600080fd5b9060005260206000209060070201600091509050806000015490806001018054611f4e90614e8e565b80601f0160208091040260200160405190810160405280929190818152602001828054611f7a90614e8e565b8015611fc75780601f10611f9c57610100808354040283529160200191611fc7565b820191906000526020600020905b815481529060010190602001808311611faa57829003601f168201915b505050505090806002015490806003018054611fe290614e8e565b80601f016020809104026020016040519081016040528092919081815260200182805461200e90614e8e565b801561205b5780601f106120305761010080835404028352916020019161205b565b820191906000526020600020905b81548152906001019060200180831161203e57829003601f168201915b5050505050908060040160009054906101000a900460ff16908060040160019054906101000a900473ffffffffffffffffffffffffffffffffffffffff16908060050154908060060160009054906101000a900473ffffffffffffffffffffffffffffffffffffffff16905088565b60005481565b6120d861413f565b33600073ffffffffffffffffffffffffffffffffffffffff16600460008373ffffffffffffffffffffffffffffffffffffffff1673ffffffffffffffffffffffffffffffffffffffff16815260200190815260200160002060000160009054906101000a900473ffffffffffffffffffffffffffffffffffffffff1673ffffffffffffffffffffffffffffffffffffffff1614156121ab576040517f08c379a00000000000000000000000000000000000000000000000000000000081526004016121a2906152bc565b60405180910390fd5b60005483106121ef576040517f08c379a00000000000000000000000000000000000000000000000000000000081526004016121e690615030565b60405180910390fd5b60006001848154811061220557612204615050565b5b9060005260206000209060070201604051806101000160405290816000820154815260200160018201805461223990614e8e565b80601f016020809104026020016040519081016040528092919081815260200182805461226590614e8e565b80156122b25780601f10612287576101008083540402835291602001916122b2565b820191906000526020600020905b81548152906001019060200180831161229557829003601f168201915b50505050508152602001600282015481526020016003820180546122d590614e8e565b80601f016020809104026020016040519081016040528092919081815260200182805461230190614e8e565b801561234e5780601f106123235761010080835404028352916020019161234e565b820191906000526020600020905b81548152906001019060200180831161233157829003601f168201915b505050505081526020016004820160009054906101000a900460ff16600281111561237c5761237b614641565b5b600281111561238e5761238d614641565b5b81526020016004820160019054906101000a900473ffffffffffffffffffffffffffffffffffffffff1673ffffffffffffffffffffffffffffffffffffffff1673ffffffffffffffffffffffffffffffffffffffff168152602001600582015481526020016006820160009054906101000a900473ffffffffffffffffffffffffffffffffffffffff1673ffffffffffffffffffffffffffffffffffffffff1673ffffffffffffffffffffffffffffffffffffffff168152505090506001600281111561245e5761245d614641565b5b8160800151600281111561247557612474614641565b5b146124b5576040517f08c379a00000000000000000000000000000000000000000000000000000000081526004016124ac9061534e565b60405180910390fd5b6000600560008360000151815260200190815260200160002060018360c001516124df9190615189565b815481106124f0576124ef615050565b5b9060005260206000200160009054906101000a900473ffffffffffffffffffffffffffffffffffffffff1690506000600360008373ffffffffffffffffffffffffffffffffffffffff1673ffffffffffffffffffffffffffffffffffffffff1681526020019081526020016000206040518060600160405290816000820160009054906101000a900473ffffffffffffffffffffffffffffffffffffffff1673ffffffffffffffffffffffffffffffffffffffff1673ffffffffffffffffffffffffffffffffffffffff1681526020016001820180546125cf90614e8e565b80601f01602080910402602001604051908101604052809291908181526020018280546125fb90614e8e565b80156126485780601f1061261d57610100808354040283529160200191612648565b820191906000526020600020905b81548152906001019060200180831161262b57829003601f168201915b5050505050815260200160028201548152505090506000600460003373ffffffffffffffffffffffffffffffffffffffff1673ffffffffffffffffffffffffffffffffffffffff1681526020019081526020016000206040518060600160405290816000820160009054906101000a900473ffffffffffffffffffffffffffffffffffffffff1673ffffffffffffffffffffffffffffffffffffffff1673ffffffffffffffffffffffffffffffffffffffff16815260200160018201805461270f90614e8e565b80601f016020809104026020016040519081016040528092919081815260200182805461273b90614e8e565b80156127885780601f1061275d57610100808354040283529160200191612788565b820191906000526020600020905b81548152906001019060200180831161276b57829003601f168201915b5050505050815260200160028201548152505090506002846080019060028111156127b6576127b5614641565b5b908160028111156127ca576127c9614641565b5b8152505080600001518460e0019073ffffffffffffffffffffffffffffffffffffffff16908173ffffffffffffffffffffffffffffffffffffffff16815250506000600560008981526020019081526020016000206001600560008b8152602001908152602001600020805490506128429190615189565b8154811061285357612852615050565b5b9060005260206000200160009054906101000a900473ffffffffffffffffffffffffffffffffffffffff1690506000600360008373ffffffffffffffffffffffffffffffffffffffff1673ffffffffffffffffffffffffffffffffffffffff1681526020019081526020016000206040518060600160405290816000820160009054906101000a900473ffffffffffffffffffffffffffffffffffffffff1673ffffffffffffffffffffffffffffffffffffffff1673ffffffffffffffffffffffffffffffffffffffff16815260200160018201805461293290614e8e565b80601f016020809104026020016040519081016040528092919081815260200182805461295e90614e8e565b80156129ab5780601f10612980576101008083540402835291602001916129ab565b820191906000526020600020905b81548152906001019060200180831161298e57829003601f168201915b50505050508152602001600282015481525050905060005b8160400151811015612ae05789600760008573ffffffffffffffffffffffffffffffffffffffff1673ffffffffffffffffffffffffffffffffffffffff1681526020019081526020016000208281548110612a2157612a20615050565b5b90600052602060002001541415612acd57612a7a81600760008673ffffffffffffffffffffffffffffffffffffffff1673ffffffffffffffffffffffffffffffffffffffff168152602001908152602001600020613fd4565b600760008573ffffffffffffffffffffffffffffffffffffffff1673ffffffffffffffffffffffffffffffffffffffff168152602001908152602001600020908054612ac79291906141c2565b50612ae0565b8080612ad890615140565b9150506129c3565b50600181604001818151612af49190615189565b9150818152505080600360008473ffffffffffffffffffffffffffffffffffffffff1673ffffffffffffffffffffffffffffffffffffffff16815260200190815260200160002060008201518160000160006101000a81548173ffffffffffffffffffffffffffffffffffffffff021916908373ffffffffffffffffffffffffffffffffffffffff1602179055506020820151816001019080519060200190612b9e9291906140b9565b5060408201518160020155905050600860003373ffffffffffffffffffffffffffffffffffffffff1673ffffffffffffffffffffffffffffffffffffffff16815260200190815260200160002086600001519080600181540180825580915050600190039060005260206000200160009091909190915055600183604001818151612c2991906151bd565b9150818152505082600460003373ffffffffffffffffffffffffffffffffffffffff1673ffffffffffffffffffffffffffffffffffffffff16815260200190815260200160002060008201518160000160006101000a81548173ffffffffffffffffffffffffffffffffffffffff021916908373ffffffffffffffffffffffffffffffffffffffff1602179055506020820151816001019080519060200190612cd39291906140b9565b50604082015181600201559050508560018a81548110612cf657612cf5615050565b5b9060005260206000209060070201600082015181600001556020820151816001019080519060200190612d2a9291906140b9565b50604082015181600201556060820151816003019080519060200190612d519291906140b9565b5060808201518160040160006101000a81548160ff02191690836002811115612d7d57612d7c614641565b5b021790555060a08201518160040160016101000a81548173ffffffffffffffffffffffffffffffffffffffff021916908373ffffffffffffffffffffffffffffffffffffffff16021790555060c0820151816005015560e08201518160060160006101000a81548173ffffffffffffffffffffffffffffffffffffffff021916908373ffffffffffffffffffffffffffffffffffffffff1602179055509050507f41ead87203d5b5ee8e9a8625ba6db3143d789ed55263a7bfb72626e95348f4f689856000015133604051612e5493929190615213565b60405180910390a185975050505050505050919050565b60076020528160005260406000208181548110612e8757600080fd5b90600052602060002001600091509150505481565b60008073ffffffffffffffffffffffffffffffffffffffff16600260008473ffffffffffffffffffffffffffffffffffffffff1673ffffffffffffffffffffffffffffffffffffffff16815260200190815260200160002060000160009054906101000a900473ffffffffffffffffffffffffffffffffffffffff1673ffffffffffffffffffffffffffffffffffffffff1614612f3c576000905061307f565b600073ffffffffffffffffffffffffffffffffffffffff16600360008473ffffffffffffffffffffffffffffffffffffffff1673ffffffffffffffffffffffffffffffffffffffff16815260200190815260200160002060000160009054906101000a900473ffffffffffffffffffffffffffffffffffffffff1673ffffffffffffffffffffffffffffffffffffffff1614612fdb576001905061307f565b600073ffffffffffffffffffffffffffffffffffffffff16600460008473ffffffffffffffffffffffffffffffffffffffff1673ffffffffffffffffffffffffffffffffffffffff16815260200190815260200160002060000160009054906101000a900473ffffffffffffffffffffffffffffffffffffffff1673ffffffffffffffffffffffffffffffffffffffff161461307a576002905061307f565b600390505b919050565b61308c61413f565b33600073ffffffffffffffffffffffffffffffffffffffff16600260008373ffffffffffffffffffffffffffffffffffffffff1673ffffffffffffffffffffffffffffffffffffffff16815260200190815260200160002060000160009054906101000a900473ffffffffffffffffffffffffffffffffffffffff1673ffffffffffffffffffffffffffffffffffffffff16141561315f576040517f08c379a0000000000000000000000000000000000000000000000000000000008152600401613156906153e0565b60405180910390fd5b600073ffffffffffffffffffffffffffffffffffffffff16600260003373ffffffffffffffffffffffffffffffffffffffff1673ffffffffffffffffffffffffffffffffffffffff16815260200190815260200160002060000160009054906101000a900473ffffffffffffffffffffffffffffffffffffffff1673ffffffffffffffffffffffffffffffffffffffff161415613231576040517f08c379a000000000000000000000000000000000000000000000000000000000815260040161322890615472565b60405180910390fd5b6000600260003373ffffffffffffffffffffffffffffffffffffffff1673ffffffffffffffffffffffffffffffffffffffff1681526020019081526020016000206040518060600160405290816000820160009054906101000a900473ffffffffffffffffffffffffffffffffffffffff1673ffffffffffffffffffffffffffffffffffffffff1673ffffffffffffffffffffffffffffffffffffffff1681526020016001820180546132e390614e8e565b80601f016020809104026020016040519081016040528092919081815260200182805461330f90614e8e565b801561335c5780601f106133315761010080835404028352916020019161335c565b820191906000526020600020905b81548152906001019060200180831161333f57829003601f168201915b50505050508152602001600282015481525050905061337961413f565b6000548160000181815250508681602001819052508581604001818152505084816060018190525081600001518160a0019073ffffffffffffffffffffffffffffffffffffffff16908173ffffffffffffffffffffffffffffffffffffffff16815250506000816080019060028111156133f6576133f5614641565b5b9081600281111561340a57613409614641565b5b8152505060008160c0018181525050600181908060018154018082558091505060019003906000526020600020906007020160009091909190915060008201518160000155602082015181600101908051906020019061346b9291906140b9565b506040820151816002015560608201518160030190805190602001906134929291906140b9565b5060808201518160040160006101000a81548160ff021916908360028111156134be576134bd614641565b5b021790555060a08201518160040160016101000a81548173ffffffffffffffffffffffffffffffffffffffff021916908373ffffffffffffffffffffffffffffffffffffffff16021790555060c0820151816005015560e08201518160060160006101000a81548173ffffffffffffffffffffffffffffffffffffffff021916908373ffffffffffffffffffffffffffffffffffffffff1602179055505050600160008082825461356f91906151bd565b92505081905550600660003373ffffffffffffffffffffffffffffffffffffffff1673ffffffffffffffffffffffffffffffffffffffff168152602001908152602001600020816000015190806001815401808255809150506001900390600052602060002001600090919091909150556001826040018181516135f391906151bd565b9150818152505081600260003373ffffffffffffffffffffffffffffffffffffffff1673ffffffffffffffffffffffffffffffffffffffff16815260200190815260200160002060008201518160000160006101000a81548173ffffffffffffffffffffffffffffffffffffffff021916908373ffffffffffffffffffffffffffffffffffffffff160217905550602082015181600101908051906020019061369d9291906140b9565b5060408201518160020155905050600960056000836000015181526020019081526020016000209080546136d2929190614282565b507f7729e6201ef9e0ddfbfd62dadbf36f7a731e6667ccb2411649655c253f3555b7816000015133604051613708929190615492565b60405180910390a18093505050509392505050565b613725614214565b6000600260003373ffffffffffffffffffffffffffffffffffffffff1673ffffffffffffffffffffffffffffffffffffffff168152602001908152602001600020600101805461377490614e8e565b9050146137b6576040517f08c379a00000000000000000000000000000000000000000000000000000000081526004016137ad9061552d565b60405180910390fd5b6137be614214565b33816000019073ffffffffffffffffffffffffffffffffffffffff16908173ffffffffffffffffffffffffffffffffffffffff1681525050828160200181905250600081604001818152505080600260003373ffffffffffffffffffffffffffffffffffffffff1673ffffffffffffffffffffffffffffffffffffffff16815260200190815260200160002060008201518160000160006101000a81548173ffffffffffffffffffffffffffffffffffffffff021916908373ffffffffffffffffffffffffffffffffffffffff16021790555060208201518160010190805190602001906138ad9291906140b9565b506040820151816002015590505080915050919050565b6138cc61424b565b6000600360003373ffffffffffffffffffffffffffffffffffffffff1673ffffffffffffffffffffffffffffffffffffffff168152602001908152602001600020600101805461391b90614e8e565b90501461395d576040517f08c379a000000000000000000000000000000000000000000000000000000000815260040161395490614f32565b60405180910390fd5b61396561424b565b33816000019073ffffffffffffffffffffffffffffffffffffffff16908173ffffffffffffffffffffffffffffffffffffffff1681525050828160200181905250600081604001818152505080600360003373ffffffffffffffffffffffffffffffffffffffff1673ffffffffffffffffffffffffffffffffffffffff16815260200190815260200160002060008201518160000160006101000a81548173ffffffffffffffffffffffffffffffffffffffff021916908373ffffffffffffffffffffffffffffffffffffffff1602179055506020820151816001019080519060200190613a549291906140b9565b506040820151816002015590505080915050919050565b60606000600760008473ffffffffffffffffffffffffffffffffffffffff1673ffffffffffffffffffffffffffffffffffffffff168152602001908152602001600020805480602002602001604051908101604052809291908181526020018280548015613af857602002820191906000526020600020905b815481526020019060010190808311613ae4575b5050505050905080915050919050565b60036020528060005260406000206000915090508060000160009054906101000a900473ffffffffffffffffffffffffffffffffffffffff1690806001018054613b5190614e8e565b80601f0160208091040260200160405190810160405280929190818152602001828054613b7d90614e8e565b8015613bca5780601f10613b9f57610100808354040283529160200191613bca565b820191906000526020600020905b815481529060010190602001808311613bad57829003601f168201915b5050505050908060020154905083565b600080613be5614214565b613bed614082565b613bf561424b565b60008060018881548110613c0c57613c0b615050565b5b90600052602060002090600702016040518061010001604052908160008201548152602001600182018054613c4090614e8e565b80601f0160208091040260200160405190810160405280929190818152602001828054613c6c90614e8e565b8015613cb95780601f10613c8e57610100808354040283529160200191613cb9565b820191906000526020600020905b815481529060010190602001808311613c9c57829003601f168201915b5050505050815260200160028201548152602001600382018054613cdc90614e8e565b80601f0160208091040260200160405190810160405280929190818152602001828054613d0890614e8e565b8015613d555780601f10613d2a57610100808354040283529160200191613d55565b820191906000526020600020905b815481529060010190602001808311613d3857829003601f168201915b505050505081526020016004820160009054906101000a900460ff166002811115613d8357613d82614641565b5b6002811115613d9557613d94614641565b5b81526020016004820160019054906101000a900473ffffffffffffffffffffffffffffffffffffffff1673ffffffffffffffffffffffffffffffffffffffff1673ffffffffffffffffffffffffffffffffffffffff168152602001600582015481526020016006820160009054906101000a900473ffffffffffffffffffffffffffffffffffffffff1673ffffffffffffffffffffffffffffffffffffffff1673ffffffffffffffffffffffffffffffffffffffff16815250509050600081608001519050613e62614214565b613e6a614082565b613e7261424b565b60006002811115613e8657613e85614641565b5b846002811115613e9957613e98614641565b5b1415613eb6578460a001519550613eaf86611585565b9250613f68565b600280811115613ec957613ec8614641565b5b846002811115613edc57613edb614641565b5b1415613ef9578460e001519550613ef286611434565b9150613f67565b600560008d815260200190815260200160002060018660c00151613f1d9190615189565b81548110613f2e57613f2d615050565b5b9060005260206000200160009054906101000a900473ffffffffffffffffffffffffffffffffffffffff169550613f6486611944565b90505b5b83868484849a509a509a509a509a5050505050505091939590929450565b60056020528160005260406000208181548110613fa257600080fd5b906000526020600020016000915091509054906101000a900473ffffffffffffffffffffffffffffffffffffffff1681565b6000808390505b60018380549050613fec9190615189565b811015614051578260018261400191906151bd565b8154811061401257614011615050565b5b90600052602060002001548382815481106140305761402f615050565b5b9060005260206000200181905550808061404990615140565b915050613fdb565b50818054806140635761406261554d565b5b6001900381819060005260206000200160009055905581905092915050565b6040518060600160405280600073ffffffffffffffffffffffffffffffffffffffff16815260200160608152602001600081525090565b8280546140c590614e8e565b90600052602060002090601f0160209004810192826140e7576000855561412e565b82601f1061410057805160ff191683800117855561412e565b8280016001018555821561412e579182015b8281111561412d578251825591602001919060010190614112565b5b50905061413b91906142d4565b5090565b604051806101000160405280600081526020016060815260200160008152602001606081526020016000600281111561417b5761417a614641565b5b8152602001600073ffffffffffffffffffffffffffffffffffffffff16815260200160008152602001600073ffffffffffffffffffffffffffffffffffffffff1681525090565b8280548282559060005260206000209081019282156142035760005260206000209182015b828111156142025782548255916001019190600101906141e7565b5b50905061421091906142d4565b5090565b6040518060600160405280600073ffffffffffffffffffffffffffffffffffffffff16815260200160608152602001600081525090565b6040518060600160405280600073ffffffffffffffffffffffffffffffffffffffff16815260200160608152602001600081525090565b8280548282559060005260206000209081019282156142c35760005260206000209182015b828111156142c25782548255916001019190600101906142a7565b5b5090506142d091906142d4565b5090565b5b808211156142ed5760008160009055506001016142d5565b5090565b6000604051905090565b600080fd5b600080fd5b600080fd5b600080fd5b6000601f19601f8301169050919050565b7f4e487b7100000000000000000000000000000000000000000000000000000000600052604160045260246000fd5b6143588261430f565b810181811067ffffffffffffffff8211171561437757614376614320565b5b80604052505050565b600061438a6142f1565b9050614396828261434f565b919050565b600067ffffffffffffffff8211156143b6576143b5614320565b5b6143bf8261430f565b9050602081019050919050565b82818337600083830152505050565b60006143ee6143e98461439b565b614380565b90508281526020810184848401111561440a5761440961430a565b5b6144158482856143cc565b509392505050565b600082601f83011261443257614431614305565b5b81356144428482602086016143db565b91505092915050565b600060208284031215614461576144606142fb565b5b600082013567ffffffffffffffff81111561447f5761447e614300565b5b61448b8482850161441d565b91505092915050565b600073ffffffffffffffffffffffffffffffffffffffff82169050919050565b60006144bf82614494565b9050919050565b6144cf816144b4565b82525050565b600081519050919050565b600082825260208201905092915050565b60005b8381101561450f5780820151818401526020810190506144f4565b8381111561451e576000848401525b50505050565b600061452f826144d5565b61453981856144e0565b93506145498185602086016144f1565b6145528161430f565b840191505092915050565b6000819050919050565b6145708161455d565b82525050565b600060608301600083015161458e60008601826144c6565b50602083015184820360208601526145a68282614524565b91505060408301516145bb6040860182614567565b508091505092915050565b600060208201905081810360008301526145e08184614576565b905092915050565b6145f18161455d565b81146145fc57600080fd5b50565b60008135905061460e816145e8565b92915050565b60006020828403121561462a576146296142fb565b5b6000614638848285016145ff565b91505092915050565b7f4e487b7100000000000000000000000000000000000000000000000000000000600052602160045260246000fd5b6003811061468157614680614641565b5b50565b600081905061469282614670565b919050565b60006146a282614684565b9050919050565b6146b281614697565b82525050565b6000610100830160008301516146d16000860182614567565b50602083015184820360208601526146e98282614524565b91505060408301516146fe6040860182614567565b50606083015184820360608601526147168282614524565b915050608083015161472b60808601826146a9565b5060a083015161473e60a08601826144c6565b5060c083015161475160c0860182614567565b5060e083015161476460e08601826144c6565b508091505092915050565b6000602082019050818103600083015261478981846146b8565b905092915050565b61479a816144b4565b81146147a557600080fd5b50565b6000813590506147b781614791565b92915050565b6000602082840312156147d3576147d26142fb565b5b60006147e1848285016147a8565b91505092915050565b600060608301600083015161480260008601826144c6565b506020830151848203602086015261481a8282614524565b915050604083015161482f6040860182614567565b508091505092915050565b6000602082019050818103600083015261485481846147ea565b905092915050565b600081519050919050565b600082825260208201905092915050565b6000819050602082019050919050565b60006148948383614567565b60208301905092915050565b6000602082019050919050565b60006148b88261485c565b6148c28185614867565b93506148cd83614878565b8060005b838110156148fe5781516148e58882614888565b97506148f0836148a0565b9250506001810190506148d1565b5085935050505092915050565b6000602082019050818103600083015261492581846148ad565b905092915050565b614936816144b4565b82525050565b600082825260208201905092915050565b6000614958826144d5565b614962818561493c565b93506149728185602086016144f1565b61497b8161430f565b840191505092915050565b61498f8161455d565b82525050565b60006060820190506149aa600083018661492d565b81810360208301526149bc818561494d565b90506149cb6040830184614986565b949350505050565b600080604083850312156149ea576149e96142fb565b5b60006149f8858286016147a8565b9250506020614a09858286016145ff565b9150509250929050565b6000602082019050614a286000830184614986565b92915050565b6000606083016000830151614a4660008601826144c6565b5060208301518482036020860152614a5e8282614524565b9150506040830151614a736040860182614567565b508091505092915050565b60006020820190508181036000830152614a988184614a2e565b905092915050565b600081519050919050565b600082825260208201905092915050565b6000819050602082019050919050565b6000606083016000830151614ae460008601826144c6565b5060208301518482036020860152614afc8282614524565b9150506040830151614b116040860182614567565b508091505092915050565b6000614b288383614acc565b905092915050565b6000602082019050919050565b6000614b4882614aa0565b614b528185614aab565b935083602082028501614b6485614abc565b8060005b85811015614ba05784840389528151614b818582614b1c565b9450614b8c83614b30565b925060208a01995050600181019050614b68565b50829750879550505050505092915050565b60006080820190508181036000830152614bcc81876146b8565b90508181036020830152614be08186614b3d565b90508181036040830152614bf481856147ea565b90508181036060830152614c088184614576565b905095945050505050565b614c1c81614697565b82525050565b600061010082019050614c38600083018b614986565b8181036020830152614c4a818a61494d565b9050614c596040830189614986565b8181036060830152614c6b818861494d565b9050614c7a6080830187614c13565b614c8760a083018661492d565b614c9460c0830185614986565b614ca160e083018461492d565b9998505050505050505050565b60048110614cbf57614cbe614641565b5b50565b6000819050614cd082614cae565b919050565b6000614ce082614cc2565b9050919050565b614cf081614cd5565b82525050565b6000602082019050614d0b6000830184614ce7565b92915050565b600080600060608486031215614d2a57614d296142fb565b5b600084013567ffffffffffffffff811115614d4857614d47614300565b5b614d548682870161441d565b9350506020614d65868287016145ff565b925050604084013567ffffffffffffffff811115614d8657614d85614300565b5b614d928682870161441d565b9150509250925092565b600060a082019050614db16000830188614c13565b614dbe602083018761492d565b8181036040830152614dd081866147ea565b90508181036060830152614de48185614576565b90508181036080830152614df88184614a2e565b90509695505050505050565b60008060408385031215614e1b57614e1a6142fb565b5b6000614e29858286016145ff565b9250506020614e3a858286016145ff565b9150509250929050565b6000602082019050614e59600083018461492d565b92915050565b7f4e487b7100000000000000000000000000000000000000000000000000000000600052602260045260246000fd5b60006002820490506001821680614ea657607f821691505b60208210811415614eba57614eb9614e5f565b5b50919050565b7f54686973206164647265737320697320616c726561647920726567697374657260008201527f65642061732072657461696c6572000000000000000000000000000000000000602082015250565b6000614f1c602e8361493c565b9150614f2782614ec0565b604082019050919050565b60006020820190508181036000830152614f4b81614f0f565b9050919050565b7f4f6e6c792072657461696c6572732063616e20706572666f726d20746869732060008201527f616374696f6e0000000000000000000000000000000000000000000000000000602082015250565b6000614fae60268361493c565b9150614fb982614f52565b604082019050919050565b60006020820190508181036000830152614fdd81614fa1565b9050919050565b7f50726f6475637420646f6573206e6f7420657869737400000000000000000000600082015250565b600061501a60168361493c565b915061502582614fe4565b602082019050919050565b600060208201905081810360008301526150498161500d565b9050919050565b7f4e487b7100000000000000000000000000000000000000000000000000000000600052603260045260246000fd5b7f50726f6475637420686173206265656e2072656c6561736564206f7220736f6c60008201527f6400000000000000000000000000000000000000000000000000000000000000602082015250565b60006150db60218361493c565b91506150e68261507f565b604082019050919050565b6000602082019050818103600083015261510a816150ce565b9050919050565b7f4e487b7100000000000000000000000000000000000000000000000000000000600052601160045260246000fd5b600061514b8261455d565b91507fffffffffffffffffffffffffffffffffffffffffffffffffffffffffffffffff82141561517e5761517d615111565b5b600182019050919050565b60006151948261455d565b915061519f8361455d565b9250828210156151b2576151b1615111565b5b828203905092915050565b60006151c88261455d565b91506151d38361455d565b9250827fffffffffffffffffffffffffffffffffffffffffffffffffffffffffffffffff0382111561520857615207615111565b5b828201905092915050565b60006060820190506152286000830186614986565b615235602083018561492d565b615242604083018461492d565b949350505050565b7f4f6e6c7920637573746f6d6572732063616e20706572666f726d20746869732060008201527f616374696f6e0000000000000000000000000000000000000000000000000000602082015250565b60006152a660268361493c565b91506152b18261524a565b604082019050919050565b600060208201905081810360008301526152d581615299565b9050919050565b7f50726f6475637420686173206e6f74206265656e2072656c6561736564206f7260008201527f20686173206265656e20616c726561647920736f6c6400000000000000000000602082015250565b600061533860368361493c565b9150615343826152dc565b604082019050919050565b600060208201905081810360008301526153678161532b565b9050919050565b7f4f6e6c79206d616e756661637475726572732063616e20706572666f726d207460008201527f68697320616374696f6e00000000000000000000000000000000000000000000602082015250565b60006153ca602a8361493c565b91506153d58261536e565b604082019050919050565b600060208201905081810360008301526153f9816153bd565b9050919050565b7f4f6e6c79206d616e756661637475726572732063616e206164642070726f647560008201527f6374000000000000000000000000000000000000000000000000000000000000602082015250565b600061545c60228361493c565b915061546782615400565b604082019050919050565b6000602082019050818103600083015261548b8161544f565b9050919050565b60006040820190506154a76000830185614986565b6154b4602083018461492d565b9392505050565b7f54686973206164647265737320697320616c726561647920726567697374657260008201527f6564206173206d616e7566616374757265720000000000000000000000000000602082015250565b600061551760328361493c565b9150615522826154bb565b604082019050919050565b600060208201905081810360008301526155468161550a565b9050919050565b7f4e487b7100000000000000000000000000000000000000000000000000000000600052603160045260246000fdfea2646970667358221220f60e73a3a6ec0404612128c5b8222f0d3b3e6d7534b222390e0ba893a5a14bd564736f6c634300080b0033",
  "immutableReferences": {},
  "source": "// SPDX-License-Identifier: MIT\r\npragma solidity >=0.4.22 <0.9.0;\r\n\r\ncontract DeTrace {\r\n\r\n  enum Role{\r\n    manufacturer,\r\n    retailer,\r\n    customer,\r\n    not_registered\r\n  }\r\n\r\n  enum Stage{\r\n    manufactured,\r\n    released,\r\n    sold\r\n  }\r\n\r\n  struct Product{\r\n    uint256 id;\r\n    string name;\r\n    uint price;\r\n    string ipfs_hash;\r\n    Stage stage;\r\n    address manufacturer;\r\n    uint total_retailers;\r\n    address customer;\r\n  }\r\n\r\n  struct Manufacturer{\r\n    address id;\r\n    string name;\r\n    uint total_products;\r\n  }\r\n\r\n  struct Retailer{\r\n    address id;\r\n    string name;\r\n    uint total_products;\r\n  }\r\n\r\n  struct Customer{\r\n    address id;\r\n    string name;\r\n    uint total_orders;\r\n  }\r\n\r\n  uint256 public total_products;\r\n  Product[] public products;\r\n  mapping(address => Manufacturer) public manufacturers;\r\n  mapping(address => Retailer) public retailers;\r\n  mapping(address => Customer) public customers;\r\n  mapping(uint => address[]) public Product_Retailers;\r\n\r\n  mapping(address=>uint[]) public manufacturer_inventory;\r\n  mapping(address=>uint[]) public retailer_inventory;\r\n  mapping(address=>uint[]) public customer_orders;\r\n\r\n  address[] address_array;\r\n\r\n  event DeTrace_deployed(string _message);\r\n  event Product_Added(uint _productId,address _manufacturerAddress);\r\n  event Product_Released(uint _productId, address _manufacturerAddress, address _retailerAddress);\r\n  event Product_Sold(uint _productId, address _retailerAddress, address _customerAddress);\r\n\r\n  constructor(){\r\n    total_products = 0;\r\n    emit DeTrace_deployed('DeTrace has been deployed');\r\n  }\r\n\r\n  modifier isManufacturer(address _manufacturerAddress){\r\n    require(manufacturers[_manufacturerAddress].id != address(0x0), 'Only manufacturers can perform this action');\r\n    _;\r\n  }\r\n\r\n  modifier isRetailer(address _retailerAddress){\r\n    require(retailers[_retailerAddress].id != address(0x0), 'Only retailers can perform this action');\r\n    _;\r\n  }\r\n\r\n  modifier isCustomer(address _customerAddress){\r\n    require(customers[_customerAddress].id != address(0x0), 'Only customers can perform this action');\r\n    _;\r\n  }\r\n\r\n  function removeElement(uint index, uint[] storage array) internal returns(uint[] storage){\r\n    for (uint i = index; i<array.length-1; i++){\r\n      array[i] = array[i+1];\r\n    }\r\n    array.pop();\r\n    return array;\r\n  }\r\n\r\n  function addManufacturer(string memory _name) public payable returns (Manufacturer memory){\r\n    \r\n    require(bytes(manufacturers[msg.sender].name).length == 0 , 'This address is already registered as manufacturer');\r\n\r\n    Manufacturer memory _manufacturer;\r\n    _manufacturer.id = msg.sender;\r\n    _manufacturer.name = _name;\r\n    _manufacturer.total_products = 0;\r\n\r\n    manufacturers[msg.sender] = _manufacturer;\r\n\r\n    return _manufacturer;\r\n  }\r\n\r\n  function addRetailer(string memory _name) public payable returns (Retailer memory){\r\n    \r\n    require(bytes(retailers[msg.sender].name).length == 0 , 'This address is already registered as retailer');\r\n\r\n    Retailer memory _retailer;\r\n    _retailer.id = msg.sender;\r\n    _retailer.name = _name;\r\n    _retailer.total_products = 0;\r\n\r\n    retailers[msg.sender] = _retailer;\r\n\r\n    return _retailer;\r\n  }  \r\n\r\n  function addCustomer(string memory _name) public payable returns (Customer memory){\r\n    \r\n    require(bytes(customers[msg.sender].name).length == 0 , 'This address is already registered as retailer');\r\n\r\n    Customer memory _customer;\r\n    _customer.id = msg.sender;\r\n    _customer.name = _name;\r\n\r\n    customers[msg.sender] = _customer;\r\n\r\n    return _customer;\r\n  }\r\n\r\n  function addProduct(string memory _name, uint _price, string memory _ipfs_hash) public isManufacturer(msg.sender) payable returns(Product memory){\r\n\r\n    require(manufacturers[msg.sender].id != address(0), 'Only manufacturers can add product');\r\n\r\n    //get the manufacturer\r\n    Manufacturer memory _manufacturer = manufacturers[msg.sender];\r\n    \r\n    //create the product\r\n    Product memory _product;\r\n    _product.id = total_products;\r\n    _product.name = _name;\r\n    _product.price = _price;\r\n    _product.ipfs_hash = _ipfs_hash;\r\n    _product.manufacturer = _manufacturer.id;\r\n    _product.stage = Stage.manufactured;\r\n    _product.total_retailers = 0;\r\n\r\n    //add the product to records\r\n    products.push(_product);\r\n    total_products += 1;\r\n\r\n    //add the product to the manufacturer inventory records\r\n    manufacturer_inventory[msg.sender].push(_product.id);\r\n    _manufacturer.total_products += 1;\r\n    manufacturers[msg.sender] = _manufacturer;\r\n\r\n    //Add into proper mappings\r\n    Product_Retailers[_product.id] = address_array;\r\n\r\n    emit Product_Added(_product.id, msg.sender);\r\n\r\n    return _product;\r\n  }\r\n\r\n  function releaseProduct(uint _productId) public isRetailer(msg.sender) payable returns (Product memory){\r\n\r\n    require(_productId < total_products,'Product does not exist');\r\n\r\n    //Get the product\r\n    Product memory _product = products[_productId];\r\n\r\n    //check if the product has already been released or manufactured\r\n    require(_product.stage == Stage.manufactured, 'Product has been released or sold');\r\n\r\n    //Shift ownership from manufacturer to retailer\r\n    Product_Retailers[_productId].push(msg.sender);\r\n    _product.total_retailers++;\r\n    _product.stage = Stage.released;\r\n\r\n    //Remove the element from the inventory of manufacturer and update count\r\n    Manufacturer memory _manufacturer = manufacturers[_product.manufacturer];\r\n    for(uint i=0; i<_manufacturer.total_products; i++){\r\n      if(manufacturer_inventory[_product.manufacturer][i] == _productId ) {\r\n        manufacturer_inventory[_product.manufacturer] = removeElement(i, manufacturer_inventory[_product.manufacturer]);\r\n        // delete manufacturer_inventory[_product.manufacturer][i];\r\n        break;\r\n      }\r\n    }\r\n    _manufacturer.total_products -= 1;\r\n    manufacturers[_product.manufacturer] = _manufacturer;\r\n\r\n    //Add the product to retailer's inventory and update count\r\n    retailer_inventory[msg.sender].push(_product.id);\r\n    Retailer memory _retailer = retailers[msg.sender];\r\n    _retailer.total_products += 1;\r\n    retailers[msg.sender] = _retailer;\r\n\r\n    //save the updated product details\r\n    products[_productId] = _product;\r\n\r\n    emit Product_Released(_productId, _product.manufacturer, msg.sender);\r\n\r\n    return _product;\r\n  }\r\n\r\n  function buyProduct(uint _productId) public isCustomer(msg.sender) payable returns (Product memory){\r\n    require(_productId < total_products,'Product does not exist');\r\n\r\n    //Get the product\r\n    Product memory _product = products[_productId];\r\n\r\n    //check if the product has already been released or manufactured\r\n    require(_product.stage == Stage.released, 'Product has not been released or has been already sold');\r\n\r\n    //Get the details of the retailer who is selling\r\n    address _retailerId = Product_Retailers[_product.id][_product.total_retailers - 1];\r\n    Retailer memory _retailer = retailers[_retailerId];\r\n    \r\n    //Get the details of the customer\r\n    Customer memory _customer = customers[msg.sender];\r\n\r\n    //Shift ownership from retailer to customer\r\n    _product.stage = Stage.sold;\r\n    _product.customer = _customer.id;\r\n  \r\n    //Remove the element from the inventory of retailer and update count\r\n    address _current_retailer_address = Product_Retailers[_productId][Product_Retailers[_productId].length - 1];\r\n    Retailer memory _current_retailer = retailers[_current_retailer_address];\r\n    for(uint i=0; i<_current_retailer.total_products; i++){\r\n      if(retailer_inventory[_current_retailer_address][i] == _productId){\r\n        retailer_inventory[_current_retailer_address] = removeElement(i, retailer_inventory[_current_retailer_address]);\r\n        // delete retailer_inventory[_current_retailer_address][i];\r\n        break; \r\n      }\r\n    }\r\n    _current_retailer.total_products -= 1;\r\n    retailers[_current_retailer_address] = _current_retailer;\r\n\r\n    //Add the product to customer's orders and update count\r\n    customer_orders[msg.sender].push(_product.id);\r\n    _customer.total_orders += 1;\r\n    customers[msg.sender] = _customer;\r\n\r\n    //save the updated product details\r\n    products[_productId] = _product;\r\n\r\n    emit Product_Sold(_productId, _retailer.id, msg.sender);\r\n  \r\n    return _product;\r\n  }\r\n\r\n  function getManufacturerDetails(address _manufacturerId) public view returns(Manufacturer memory){\r\n    Manufacturer memory _manufacturer = manufacturers[_manufacturerId];\r\n    return _manufacturer;\r\n  }\r\n\r\n  function getManufacturerInventory(address _manufacturerId) public view returns(uint[] memory){\r\n    uint[] memory _product_ids = manufacturer_inventory[_manufacturerId];\r\n    return _product_ids;\r\n  }\r\n\r\n  function getRetailerDetails(address _retailerId) public view returns(Retailer memory){\r\n    Retailer memory _retailer = retailers[_retailerId];\r\n    return _retailer;\r\n  }\r\n\r\n  function getRetailerInventory(address _retailerId) public view returns(uint[] memory){   \r\n    uint[] memory _product_ids = retailer_inventory[_retailerId];\r\n    return _product_ids;\r\n  }\r\n\r\n  function getCustomerDetails(address _customerId) public view returns(Customer memory){\r\n    Customer memory _customer = customers[_customerId];\r\n    return _customer;\r\n  }\r\n\r\n  function getCustomerOrders(address _customerId) public view returns(uint[] memory){\r\n    uint[] memory _product_ids = customer_orders[_customerId];\r\n    return _product_ids;\r\n  }\r\n\r\n  function getProductDetails(uint _productId) public view returns(Product memory, Retailer[] memory, Manufacturer memory, Customer memory){\r\n    //Get the product\r\n    Product memory _product = products[_productId];\r\n\r\n    //Get all the retailers addresses\r\n    address[] memory _retailer_addresses = Product_Retailers[_productId];\r\n\r\n    //Initialize an empty reailters array\r\n    Retailer[] memory _retailers;\r\n\r\n    //Get the manufacturer\r\n    Manufacturer memory _manufacturer = getManufacturerDetails(_product.manufacturer);\r\n\r\n    //Get the customer\r\n    Customer memory _customer = getCustomerDetails(_product.customer);\r\n\r\n    //Push all the retailers in the _retailers array\r\n    for (uint256 i = 0; i < _retailer_addresses.length; i++) {\r\n      _retailers[i] = getRetailerDetails(_retailer_addresses[i]);\r\n    }\r\n    return (_product, _retailers, _manufacturer, _customer);\r\n  }\r\n\r\n  function getCurrentStatus(uint _productId) public view returns (Stage, address, Manufacturer memory, Customer memory, Retailer memory ) {\r\n    //Initilize an empty address for owner\r\n    address _owner_address;\r\n\r\n    //Get product details\r\n    Product memory _product = products[_productId];\r\n\r\n    //Get product stage\r\n    Stage _stage = _product.stage;\r\n\r\n    //Instantiate each user\r\n    Manufacturer memory _manufacturer;\r\n    Customer memory _customer;\r\n    Retailer memory _retailer;\r\n\r\n    //Check for each stage\r\n    if(_stage == Stage.manufactured){\r\n      _owner_address = _product.manufacturer;\r\n      _manufacturer = getManufacturerDetails(_owner_address);\r\n    } else if(_stage == Stage.sold) {\r\n      _owner_address = _product.customer;\r\n      _customer = getCustomerDetails(_owner_address);\r\n    } else {\r\n      _owner_address = Product_Retailers[_productId][_product.total_retailers - 1];\r\n      _retailer = getRetailerDetails(_owner_address);\r\n    }\r\n    return (_stage, _owner_address, _manufacturer, _customer, _retailer);\r\n  }\r\n\r\n  function getUserType(address _user) public view returns (Role){\r\n\r\n    if(manufacturers[_user].id != address(0x0)) return Role.manufacturer;\r\n\r\n    if(retailers[_user].id != address(0x0)) return Role.retailer;\r\n\r\n    if(customers[_user].id != address(0x0)) return Role.customer;\r\n\r\n    return Role.not_registered;\r\n  }\r\n}\r\n",
  "sourcePath": "E:\\WebDev Projects\\Hackathons\\Hackstack\\DeTrace-Original\\DeTrace\\contracts\\contracts\\DeTrace.sol",
  "compiler": {
    "name": "solc",
    "version": "0.8.11+commit.d7f03943.Emscripten.clang"
  },
  "schemaVersion": "3.4.4",
  "updatedAt": "2022-04-09T15:41:51.284Z",
  "networkType": "ethereum",
  "devdoc": {
    "kind": "dev",
    "methods": {},
    "version": 1
  },
  "userdoc": {
    "kind": "user",
    "methods": {},
    "version": 1
  }
}