{
  "contractName": "DeTrace",
  "abi": [
    {
      "inputs": [],
      "stateMutability": "nonpayable",
      "type": "constructor"
    },
    {
      "anonymous": false,
      "inputs": [
        {
          "indexed": false,
          "internalType": "string",
          "name": "_message",
          "type": "string"
        }
      ],
      "name": "DeTrace_deployed",
      "type": "event"
    },
    {
      "anonymous": false,
      "inputs": [
        {
          "indexed": false,
          "internalType": "uint256",
          "name": "_productId",
          "type": "uint256"
        },
        {
          "indexed": false,
          "internalType": "address",
          "name": "_manufacturerAddress",
          "type": "address"
        }
      ],
      "name": "Product_Added",
      "type": "event"
    },
    {
      "anonymous": false,
      "inputs": [
        {
          "indexed": false,
          "internalType": "uint256",
          "name": "_productId",
          "type": "uint256"
        },
        {
          "indexed": false,
          "internalType": "address",
          "name": "_manufacturerAddress",
          "type": "address"
        },
        {
          "indexed": false,
          "internalType": "address",
          "name": "_retailerAddress",
          "type": "address"
        }
      ],
      "name": "Product_Released",
      "type": "event"
    },
    {
      "anonymous": false,
      "inputs": [
        {
          "indexed": false,
          "internalType": "uint256",
          "name": "_productId",
          "type": "uint256"
        },
        {
          "indexed": false,
          "internalType": "address",
          "name": "_retailerAddress",
          "type": "address"
        },
        {
          "indexed": false,
          "internalType": "address",
          "name": "_customerAddress",
          "type": "address"
        }
      ],
      "name": "Product_Sold",
      "type": "event"
    },
    {
      "inputs": [
        {
          "internalType": "uint256",
          "name": "",
          "type": "uint256"
        },
        {
          "internalType": "uint256",
          "name": "",
          "type": "uint256"
        }
      ],
      "name": "Product_Retailers",
      "outputs": [
        {
          "internalType": "address",
          "name": "",
          "type": "address"
        }
      ],
      "stateMutability": "view",
      "type": "function",
      "constant": true
    },
    {
      "inputs": [
        {
          "internalType": "address",
          "name": "",
          "type": "address"
        },
        {
          "internalType": "uint256",
          "name": "",
          "type": "uint256"
        }
      ],
      "name": "customer_orders",
      "outputs": [
        {
          "internalType": "uint256",
          "name": "",
          "type": "uint256"
        }
      ],
      "stateMutability": "view",
      "type": "function",
      "constant": true
    },
    {
      "inputs": [
        {
          "internalType": "address",
          "name": "",
          "type": "address"
        }
      ],
      "name": "customers",
      "outputs": [
        {
          "internalType": "address",
          "name": "id",
          "type": "address"
        },
        {
          "internalType": "string",
          "name": "name",
          "type": "string"
        },
        {
          "internalType": "uint256",
          "name": "total_orders",
          "type": "uint256"
        }
      ],
      "stateMutability": "view",
      "type": "function",
      "constant": true
    },
    {
      "inputs": [
        {
          "internalType": "address",
          "name": "",
          "type": "address"
        },
        {
          "internalType": "uint256",
          "name": "",
          "type": "uint256"
        }
      ],
      "name": "manufacturer_inventory",
      "outputs": [
        {
          "internalType": "uint256",
          "name": "",
          "type": "uint256"
        }
      ],
      "stateMutability": "view",
      "type": "function",
      "constant": true
    },
    {
      "inputs": [
        {
          "internalType": "address",
          "name": "",
          "type": "address"
        }
      ],
      "name": "manufacturers",
      "outputs": [
        {
          "internalType": "address",
          "name": "id",
          "type": "address"
        },
        {
          "internalType": "string",
          "name": "name",
          "type": "string"
        },
        {
          "internalType": "uint256",
          "name": "total_products",
          "type": "uint256"
        }
      ],
      "stateMutability": "view",
      "type": "function",
      "constant": true
    },
    {
      "inputs": [
        {
          "internalType": "uint256",
          "name": "",
          "type": "uint256"
        }
      ],
      "name": "products",
      "outputs": [
        {
          "internalType": "uint256",
          "name": "id",
          "type": "uint256"
        },
        {
          "internalType": "string",
          "name": "name",
          "type": "string"
        },
        {
          "internalType": "uint256",
          "name": "price",
          "type": "uint256"
        },
        {
          "internalType": "string",
          "name": "ipfs_hash",
          "type": "string"
        },
        {
          "internalType": "enum DeTrace.Stage",
          "name": "stage",
          "type": "uint8"
        },
        {
          "internalType": "address",
          "name": "manufacturer",
          "type": "address"
        },
        {
          "internalType": "uint256",
          "name": "total_retailers",
          "type": "uint256"
        },
        {
          "internalType": "address",
          "name": "customer",
          "type": "address"
        },
        {
          "internalType": "address",
          "name": "currentOwner",
          "type": "address"
        }
      ],
      "stateMutability": "view",
      "type": "function",
      "constant": true
    },
    {
      "inputs": [
        {
          "internalType": "address",
          "name": "",
          "type": "address"
        },
        {
          "internalType": "uint256",
          "name": "",
          "type": "uint256"
        }
      ],
      "name": "retailer_inventory",
      "outputs": [
        {
          "internalType": "uint256",
          "name": "",
          "type": "uint256"
        }
      ],
      "stateMutability": "view",
      "type": "function",
      "constant": true
    },
    {
      "inputs": [
        {
          "internalType": "address",
          "name": "",
          "type": "address"
        }
      ],
      "name": "retailers",
      "outputs": [
        {
          "internalType": "address",
          "name": "id",
          "type": "address"
        },
        {
          "internalType": "string",
          "name": "name",
          "type": "string"
        },
        {
          "internalType": "uint256",
          "name": "total_products",
          "type": "uint256"
        }
      ],
      "stateMutability": "view",
      "type": "function",
      "constant": true
    },
    {
      "inputs": [],
      "name": "total_products",
      "outputs": [
        {
          "internalType": "uint256",
          "name": "",
          "type": "uint256"
        }
      ],
      "stateMutability": "view",
      "type": "function",
      "constant": true
    },
    {
      "inputs": [],
      "name": "getProducts",
      "outputs": [
        {
          "components": [
            {
              "internalType": "uint256",
              "name": "id",
              "type": "uint256"
            },
            {
              "internalType": "string",
              "name": "name",
              "type": "string"
            },
            {
              "internalType": "uint256",
              "name": "price",
              "type": "uint256"
            },
            {
              "internalType": "string",
              "name": "ipfs_hash",
              "type": "string"
            },
            {
              "internalType": "enum DeTrace.Stage",
              "name": "stage",
              "type": "uint8"
            },
            {
              "internalType": "address",
              "name": "manufacturer",
              "type": "address"
            },
            {
              "internalType": "uint256",
              "name": "total_retailers",
              "type": "uint256"
            },
            {
              "internalType": "address",
              "name": "customer",
              "type": "address"
            },
            {
              "internalType": "address",
              "name": "currentOwner",
              "type": "address"
            }
          ],
          "internalType": "struct DeTrace.Product[]",
          "name": "",
          "type": "tuple[]"
        }
      ],
      "stateMutability": "view",
      "type": "function",
      "constant": true
    },
    {
      "inputs": [
        {
          "internalType": "string",
          "name": "_name",
          "type": "string"
        }
      ],
      "name": "addManufacturer",
      "outputs": [
        {
          "components": [
            {
              "internalType": "address",
              "name": "id",
              "type": "address"
            },
            {
              "internalType": "string",
              "name": "name",
              "type": "string"
            },
            {
              "internalType": "uint256",
              "name": "total_products",
              "type": "uint256"
            }
          ],
          "internalType": "struct DeTrace.Manufacturer",
          "name": "",
          "type": "tuple"
        }
      ],
      "stateMutability": "payable",
      "type": "function",
      "payable": true
    },
    {
      "inputs": [
        {
          "internalType": "string",
          "name": "_name",
          "type": "string"
        }
      ],
      "name": "addRetailer",
      "outputs": [
        {
          "components": [
            {
              "internalType": "address",
              "name": "id",
              "type": "address"
            },
            {
              "internalType": "string",
              "name": "name",
              "type": "string"
            },
            {
              "internalType": "uint256",
              "name": "total_products",
              "type": "uint256"
            }
          ],
          "internalType": "struct DeTrace.Retailer",
          "name": "",
          "type": "tuple"
        }
      ],
      "stateMutability": "payable",
      "type": "function",
      "payable": true
    },
    {
      "inputs": [
        {
          "internalType": "string",
          "name": "_name",
          "type": "string"
        }
      ],
      "name": "addCustomer",
      "outputs": [
        {
          "components": [
            {
              "internalType": "address",
              "name": "id",
              "type": "address"
            },
            {
              "internalType": "string",
              "name": "name",
              "type": "string"
            },
            {
              "internalType": "uint256",
              "name": "total_orders",
              "type": "uint256"
            }
          ],
          "internalType": "struct DeTrace.Customer",
          "name": "",
          "type": "tuple"
        }
      ],
      "stateMutability": "payable",
      "type": "function",
      "payable": true
    },
    {
      "inputs": [
        {
          "internalType": "string",
          "name": "_name",
          "type": "string"
        },
        {
          "internalType": "uint256",
          "name": "_price",
          "type": "uint256"
        },
        {
          "internalType": "string",
          "name": "_ipfs_hash",
          "type": "string"
        }
      ],
      "name": "addProduct",
      "outputs": [
        {
          "components": [
            {
              "internalType": "uint256",
              "name": "id",
              "type": "uint256"
            },
            {
              "internalType": "string",
              "name": "name",
              "type": "string"
            },
            {
              "internalType": "uint256",
              "name": "price",
              "type": "uint256"
            },
            {
              "internalType": "string",
              "name": "ipfs_hash",
              "type": "string"
            },
            {
              "internalType": "enum DeTrace.Stage",
              "name": "stage",
              "type": "uint8"
            },
            {
              "internalType": "address",
              "name": "manufacturer",
              "type": "address"
            },
            {
              "internalType": "uint256",
              "name": "total_retailers",
              "type": "uint256"
            },
            {
              "internalType": "address",
              "name": "customer",
              "type": "address"
            },
            {
              "internalType": "address",
              "name": "currentOwner",
              "type": "address"
            }
          ],
          "internalType": "struct DeTrace.Product",
          "name": "",
          "type": "tuple"
        }
      ],
      "stateMutability": "payable",
      "type": "function",
      "payable": true
    },
    {
      "inputs": [
        {
          "internalType": "uint256",
          "name": "_productId",
          "type": "uint256"
        }
      ],
      "name": "releaseProduct",
      "outputs": [
        {
          "components": [
            {
              "internalType": "uint256",
              "name": "id",
              "type": "uint256"
            },
            {
              "internalType": "string",
              "name": "name",
              "type": "string"
            },
            {
              "internalType": "uint256",
              "name": "price",
              "type": "uint256"
            },
            {
              "internalType": "string",
              "name": "ipfs_hash",
              "type": "string"
            },
            {
              "internalType": "enum DeTrace.Stage",
              "name": "stage",
              "type": "uint8"
            },
            {
              "internalType": "address",
              "name": "manufacturer",
              "type": "address"
            },
            {
              "internalType": "uint256",
              "name": "total_retailers",
              "type": "uint256"
            },
            {
              "internalType": "address",
              "name": "customer",
              "type": "address"
            },
            {
              "internalType": "address",
              "name": "currentOwner",
              "type": "address"
            }
          ],
          "internalType": "struct DeTrace.Product",
          "name": "",
          "type": "tuple"
        }
      ],
      "stateMutability": "payable",
      "type": "function",
      "payable": true
    },
    {
      "inputs": [
        {
          "internalType": "uint256",
          "name": "_productId",
          "type": "uint256"
        }
      ],
      "name": "buyProduct",
      "outputs": [
        {
          "components": [
            {
              "internalType": "uint256",
              "name": "id",
              "type": "uint256"
            },
            {
              "internalType": "string",
              "name": "name",
              "type": "string"
            },
            {
              "internalType": "uint256",
              "name": "price",
              "type": "uint256"
            },
            {
              "internalType": "string",
              "name": "ipfs_hash",
              "type": "string"
            },
            {
              "internalType": "enum DeTrace.Stage",
              "name": "stage",
              "type": "uint8"
            },
            {
              "internalType": "address",
              "name": "manufacturer",
              "type": "address"
            },
            {
              "internalType": "uint256",
              "name": "total_retailers",
              "type": "uint256"
            },
            {
              "internalType": "address",
              "name": "customer",
              "type": "address"
            },
            {
              "internalType": "address",
              "name": "currentOwner",
              "type": "address"
            }
          ],
          "internalType": "struct DeTrace.Product",
          "name": "",
          "type": "tuple"
        }
      ],
      "stateMutability": "payable",
      "type": "function",
      "payable": true
    },
    {
      "inputs": [
        {
          "internalType": "address",
          "name": "_manufacturerId",
          "type": "address"
        }
      ],
      "name": "getManufacturerDetails",
      "outputs": [
        {
          "components": [
            {
              "internalType": "address",
              "name": "id",
              "type": "address"
            },
            {
              "internalType": "string",
              "name": "name",
              "type": "string"
            },
            {
              "internalType": "uint256",
              "name": "total_products",
              "type": "uint256"
            }
          ],
          "internalType": "struct DeTrace.Manufacturer",
          "name": "",
          "type": "tuple"
        }
      ],
      "stateMutability": "view",
      "type": "function",
      "constant": true
    },
    {
      "inputs": [
        {
          "internalType": "address",
          "name": "_manufacturerId",
          "type": "address"
        }
      ],
      "name": "getManufacturerInventory",
      "outputs": [
        {
          "internalType": "uint256[]",
          "name": "",
          "type": "uint256[]"
        }
      ],
      "stateMutability": "view",
      "type": "function",
      "constant": true
    },
    {
      "inputs": [
        {
          "internalType": "address",
          "name": "_retailerId",
          "type": "address"
        }
      ],
      "name": "getRetailerDetails",
      "outputs": [
        {
          "components": [
            {
              "internalType": "address",
              "name": "id",
              "type": "address"
            },
            {
              "internalType": "string",
              "name": "name",
              "type": "string"
            },
            {
              "internalType": "uint256",
              "name": "total_products",
              "type": "uint256"
            }
          ],
          "internalType": "struct DeTrace.Retailer",
          "name": "",
          "type": "tuple"
        }
      ],
      "stateMutability": "view",
      "type": "function",
      "constant": true
    },
    {
      "inputs": [
        {
          "internalType": "address",
          "name": "_retailerId",
          "type": "address"
        }
      ],
      "name": "getRetailerInventory",
      "outputs": [
        {
          "internalType": "uint256[]",
          "name": "",
          "type": "uint256[]"
        }
      ],
      "stateMutability": "view",
      "type": "function",
      "constant": true
    },
    {
      "inputs": [
        {
          "internalType": "address",
          "name": "_customerId",
          "type": "address"
        }
      ],
      "name": "getCustomerDetails",
      "outputs": [
        {
          "components": [
            {
              "internalType": "address",
              "name": "id",
              "type": "address"
            },
            {
              "internalType": "string",
              "name": "name",
              "type": "string"
            },
            {
              "internalType": "uint256",
              "name": "total_orders",
              "type": "uint256"
            }
          ],
          "internalType": "struct DeTrace.Customer",
          "name": "",
          "type": "tuple"
        }
      ],
      "stateMutability": "view",
      "type": "function",
      "constant": true
    },
    {
      "inputs": [
        {
          "internalType": "address",
          "name": "_customerId",
          "type": "address"
        }
      ],
      "name": "getCustomerOrders",
      "outputs": [
        {
          "internalType": "uint256[]",
          "name": "",
          "type": "uint256[]"
        }
      ],
      "stateMutability": "view",
      "type": "function",
      "constant": true
    },
    {
      "inputs": [
        {
          "internalType": "uint256",
          "name": "_productId",
          "type": "uint256"
        }
      ],
      "name": "getProductDetails",
      "outputs": [
        {
          "components": [
            {
              "internalType": "uint256",
              "name": "id",
              "type": "uint256"
            },
            {
              "internalType": "string",
              "name": "name",
              "type": "string"
            },
            {
              "internalType": "uint256",
              "name": "price",
              "type": "uint256"
            },
            {
              "internalType": "string",
              "name": "ipfs_hash",
              "type": "string"
            },
            {
              "internalType": "enum DeTrace.Stage",
              "name": "stage",
              "type": "uint8"
            },
            {
              "internalType": "address",
              "name": "manufacturer",
              "type": "address"
            },
            {
              "internalType": "uint256",
              "name": "total_retailers",
              "type": "uint256"
            },
            {
              "internalType": "address",
              "name": "customer",
              "type": "address"
            },
            {
              "internalType": "address",
              "name": "currentOwner",
              "type": "address"
            }
          ],
          "internalType": "struct DeTrace.Product",
          "name": "",
          "type": "tuple"
        },
        {
          "components": [
            {
              "internalType": "address",
              "name": "id",
              "type": "address"
            },
            {
              "internalType": "string",
              "name": "name",
              "type": "string"
            },
            {
              "internalType": "uint256",
              "name": "total_products",
              "type": "uint256"
            }
          ],
          "internalType": "struct DeTrace.Retailer[]",
          "name": "",
          "type": "tuple[]"
        },
        {
          "components": [
            {
              "internalType": "address",
              "name": "id",
              "type": "address"
            },
            {
              "internalType": "string",
              "name": "name",
              "type": "string"
            },
            {
              "internalType": "uint256",
              "name": "total_products",
              "type": "uint256"
            }
          ],
          "internalType": "struct DeTrace.Manufacturer",
          "name": "",
          "type": "tuple"
        },
        {
          "components": [
            {
              "internalType": "address",
              "name": "id",
              "type": "address"
            },
            {
              "internalType": "string",
              "name": "name",
              "type": "string"
            },
            {
              "internalType": "uint256",
              "name": "total_orders",
              "type": "uint256"
            }
          ],
          "internalType": "struct DeTrace.Customer",
          "name": "",
          "type": "tuple"
        }
      ],
      "stateMutability": "view",
      "type": "function",
      "constant": true
    },
    {
      "inputs": [
        {
          "internalType": "uint256",
          "name": "_productId",
          "type": "uint256"
        }
      ],
      "name": "getCurrentStatus",
      "outputs": [
        {
          "internalType": "enum DeTrace.Stage",
          "name": "",
          "type": "uint8"
        },
        {
          "internalType": "address",
          "name": "",
          "type": "address"
        },
        {
          "components": [
            {
              "internalType": "address",
              "name": "id",
              "type": "address"
            },
            {
              "internalType": "string",
              "name": "name",
              "type": "string"
            },
            {
              "internalType": "uint256",
              "name": "total_products",
              "type": "uint256"
            }
          ],
          "internalType": "struct DeTrace.Manufacturer",
          "name": "",
          "type": "tuple"
        },
        {
          "components": [
            {
              "internalType": "address",
              "name": "id",
              "type": "address"
            },
            {
              "internalType": "string",
              "name": "name",
              "type": "string"
            },
            {
              "internalType": "uint256",
              "name": "total_orders",
              "type": "uint256"
            }
          ],
          "internalType": "struct DeTrace.Customer",
          "name": "",
          "type": "tuple"
        },
        {
          "components": [
            {
              "internalType": "address",
              "name": "id",
              "type": "address"
            },
            {
              "internalType": "string",
              "name": "name",
              "type": "string"
            },
            {
              "internalType": "uint256",
              "name": "total_products",
              "type": "uint256"
            }
          ],
          "internalType": "struct DeTrace.Retailer",
          "name": "",
          "type": "tuple"
        }
      ],
      "stateMutability": "view",
      "type": "function",
      "constant": true
    },
    {
      "inputs": [
        {
          "internalType": "address",
          "name": "_user",
          "type": "address"
        }
      ],
      "name": "getUserType",
      "outputs": [
        {
          "internalType": "enum DeTrace.Role",
          "name": "",
          "type": "uint8"
        }
      ],
      "stateMutability": "view",
      "type": "function",
      "constant": true
    }
  ],
  "bytecode": "0x60806040523480156200001157600080fd5b50600080819055507f7b156246723a58575721985ed99046dbbecb42c4dc7265035b5f6e3a9ceab4dc6040516200004890620000b7565b60405180910390a1620000d9565b600082825260208201905092915050565b7f4465547261636520686173206265656e206465706c6f79656400000000000000600082015250565b60006200009f60198362000056565b9150620000ac8262000067565b602082019050919050565b60006020820190508181036000830152620000d28162000090565b9050919050565b615e2480620000e96000396000f3fe6080604052600436106101665760003560e01c80637acc0b20116100d15780638f5ae7991161008a5780639a268f35116100645780639a268f351461061b578063a0aa13c61461065a578063c29b2f201461069b578063c41381a9146106c657610166565b80638f5ae7991461057e57806395d00407146105ae57806398383922146105de57610166565b80637acc0b20146104345780637efa6959146104795780638642269e146104a45780638ab7bada146104d45780638b3f863f146105115780638f29695a1461054e57610166565b806345b74c171161012357806345b74c17146102c1578063482f63da146102fe578063565040261461033b57806363ba8315146103785780636813b53b146103b55780636b5eb09c146103f557610166565b806303dd3d811461016b5780630756be1f1461019b5780630c60f83d146101cb57806322713cc71461020857806322f974d214610245578063336989ae14610282575b600080fd5b61018560048036038101906101809190614ae9565b610703565b6040516101929190614c64565b60405180910390f35b6101b560048036038101906101b09190614cb2565b61089f565b6040516101c29190614e22565b60405180910390f35b3480156101d757600080fd5b506101f260048036038101906101ed9190614e70565b611552565b6040516101ff9190614c64565b60405180910390f35b34801561021457600080fd5b5061022f600480360381019061022a9190614e70565b6116a3565b60405161023c9190614eed565b60405180910390f35b34801561025157600080fd5b5061026c60048036038101906102679190614e70565b6117f4565b6040516102799190614fbe565b60405180910390f35b34801561028e57600080fd5b506102a960048036038101906102a49190614e70565b611891565b6040516102b893929190615048565b60405180910390f35b3480156102cd57600080fd5b506102e860048036038101906102e39190614e70565b611963565b6040516102f59190614fbe565b60405180910390f35b34801561030a57600080fd5b5061032560048036038101906103209190615086565b611a00565b60405161033291906150c6565b60405180910390f35b34801561034757600080fd5b50610362600480360381019061035d9190615086565b611a31565b60405161036f91906150c6565b60405180910390f35b34801561038457600080fd5b5061039f600480360381019061039a9190614e70565b611a62565b6040516103ac9190615131565b60405180910390f35b3480156103c157600080fd5b506103dc60048036038101906103d79190614cb2565b611bb3565b6040516103ec9493929190615265565b60405180910390f35b34801561040157600080fd5b5061041c60048036038101906104179190614e70565b612011565b60405161042b93929190615048565b60405180910390f35b34801561044057600080fd5b5061045b60048036038101906104569190614cb2565b6120e3565b604051610470999897969594939291906152d5565b60405180910390f35b34801561048557600080fd5b5061048e6122be565b60405161049b91906150c6565b60405180910390f35b6104be60048036038101906104b99190614cb2565b6122c4565b6040516104cb9190614e22565b60405180910390f35b3480156104e057600080fd5b506104fb60048036038101906104f69190615086565b613136565b60405161050891906150c6565b60405180910390f35b34801561051d57600080fd5b5061053860048036038101906105339190614e70565b613167565b60405161054591906153b8565b60405180910390f35b610568600480360381019061056391906153d3565b61334f565b6040516105759190614e22565b60405180910390f35b61059860048036038101906105939190614ae9565b613a69565b6040516105a59190614eed565b60405180910390f35b6105c860048036038101906105c39190614ae9565b613c10565b6040516105d59190615131565b60405180910390f35b3480156105ea57600080fd5b5061060560048036038101906106009190614e70565b613db7565b6040516106129190614fbe565b60405180910390f35b34801561062757600080fd5b50610642600480360381019061063d9190614e70565b613e54565b60405161065193929190615048565b60405180910390f35b34801561066657600080fd5b50610681600480360381019061067c9190614cb2565b613f26565b60405161069295949392919061545e565b60405180910390f35b3480156106a757600080fd5b506106b0614328565b6040516106bd9190615654565b60405180910390f35b3480156106d257600080fd5b506106ed60048036038101906106e89190615676565b614607565b6040516106fa91906156b6565b60405180910390f35b61070b614703565b6000600460003373ffffffffffffffffffffffffffffffffffffffff1673ffffffffffffffffffffffffffffffffffffffff168152602001908152602001600020600101805461075a90615700565b90501461079c576040517f08c379a0000000000000000000000000000000000000000000000000000000008152600401610793906157a4565b60405180910390fd5b6107a4614703565b33816000019073ffffffffffffffffffffffffffffffffffffffff16908173ffffffffffffffffffffffffffffffffffffffff168152505082816020018190525080600460003373ffffffffffffffffffffffffffffffffffffffff1673ffffffffffffffffffffffffffffffffffffffff16815260200190815260200160002060008201518160000160006101000a81548173ffffffffffffffffffffffffffffffffffffffff021916908373ffffffffffffffffffffffffffffffffffffffff160217905550602082015181600101908051906020019061088892919061473a565b506040820151816002015590505080915050919050565b6108a76147c0565b33600073ffffffffffffffffffffffffffffffffffffffff16600360008373ffffffffffffffffffffffffffffffffffffffff1673ffffffffffffffffffffffffffffffffffffffff16815260200190815260200160002060000160009054906101000a900473ffffffffffffffffffffffffffffffffffffffff1673ffffffffffffffffffffffffffffffffffffffff16141561097a576040517f08c379a000000000000000000000000000000000000000000000000000000000815260040161097190615836565b60405180910390fd5b60005483106109be576040517f08c379a00000000000000000000000000000000000000000000000000000000081526004016109b5906158a2565b60405180910390fd5b6000600184815481106109d4576109d36158c2565b5b90600052602060002090600802016040518061012001604052908160008201548152602001600182018054610a0890615700565b80601f0160208091040260200160405190810160405280929190818152602001828054610a3490615700565b8015610a815780601f10610a5657610100808354040283529160200191610a81565b820191906000526020600020905b815481529060010190602001808311610a6457829003601f168201915b5050505050815260200160028201548152602001600382018054610aa490615700565b80601f0160208091040260200160405190810160405280929190818152602001828054610ad090615700565b8015610b1d5780601f10610af257610100808354040283529160200191610b1d565b820191906000526020600020905b815481529060010190602001808311610b0057829003601f168201915b505050505081526020016004820160009054906101000a900460ff166002811115610b4b57610b4a614cdf565b5b6002811115610b5d57610b5c614cdf565b5b81526020016004820160019054906101000a900473ffffffffffffffffffffffffffffffffffffffff1673ffffffffffffffffffffffffffffffffffffffff1673ffffffffffffffffffffffffffffffffffffffff168152602001600582015481526020016006820160009054906101000a900473ffffffffffffffffffffffffffffffffffffffff1673ffffffffffffffffffffffffffffffffffffffff1673ffffffffffffffffffffffffffffffffffffffff1681526020016007820160009054906101000a900473ffffffffffffffffffffffffffffffffffffffff1673ffffffffffffffffffffffffffffffffffffffff1673ffffffffffffffffffffffffffffffffffffffff1681525050905060006002811115610c8357610c82614cdf565b5b81608001516002811115610c9a57610c99614cdf565b5b14610cda576040517f08c379a0000000000000000000000000000000000000000000000000000000008152600401610cd190615963565b60405180910390fd5b60056000858152602001908152602001600020339080600181540180825580915050600190039060005260206000200160009091909190916101000a81548173ffffffffffffffffffffffffffffffffffffffff021916908373ffffffffffffffffffffffffffffffffffffffff1602179055508060c0018051809190610d60906159b2565b81525050600181608001906002811115610d7d57610d7c614cdf565b5b90816002811115610d9157610d90614cdf565b5b815250503381610100019073ffffffffffffffffffffffffffffffffffffffff16908173ffffffffffffffffffffffffffffffffffffffff16815250506000600260008360a0015173ffffffffffffffffffffffffffffffffffffffff1673ffffffffffffffffffffffffffffffffffffffff1681526020019081526020016000206040518060600160405290816000820160009054906101000a900473ffffffffffffffffffffffffffffffffffffffff1673ffffffffffffffffffffffffffffffffffffffff1673ffffffffffffffffffffffffffffffffffffffff168152602001600182018054610e8490615700565b80601f0160208091040260200160405190810160405280929190818152602001828054610eb090615700565b8015610efd5780601f10610ed257610100808354040283529160200191610efd565b820191906000526020600020905b815481529060010190602001808311610ee057829003601f168201915b50505050508152602001600282015481525050905060005b816040015181101561103e5785600660008560a0015173ffffffffffffffffffffffffffffffffffffffff1673ffffffffffffffffffffffffffffffffffffffff1681526020019081526020016000208281548110610f7757610f766158c2565b5b9060005260206000200154141561102b57610fd481600660008660a0015173ffffffffffffffffffffffffffffffffffffffff1673ffffffffffffffffffffffffffffffffffffffff168152602001908152602001600020614655565b600660008560a0015173ffffffffffffffffffffffffffffffffffffffff1673ffffffffffffffffffffffffffffffffffffffff168152602001908152602001600020908054611025929190614860565b5061103e565b8080611036906159b2565b915050610f15565b5060018160400181815161105291906159fb565b9150818152505080600260008460a0015173ffffffffffffffffffffffffffffffffffffffff1673ffffffffffffffffffffffffffffffffffffffff16815260200190815260200160002060008201518160000160006101000a81548173ffffffffffffffffffffffffffffffffffffffff021916908373ffffffffffffffffffffffffffffffffffffffff160217905550602082015181600101908051906020019061110092919061473a565b5060408201518160020155905050600760003373ffffffffffffffffffffffffffffffffffffffff1673ffffffffffffffffffffffffffffffffffffffff168152602001908152602001600020826000015190806001815401808255809150506001900390600052602060002001600090919091909150556000600360003373ffffffffffffffffffffffffffffffffffffffff1673ffffffffffffffffffffffffffffffffffffffff1681526020019081526020016000206040518060600160405290816000820160009054906101000a900473ffffffffffffffffffffffffffffffffffffffff1673ffffffffffffffffffffffffffffffffffffffff1673ffffffffffffffffffffffffffffffffffffffff16815260200160018201805461122a90615700565b80601f016020809104026020016040519081016040528092919081815260200182805461125690615700565b80156112a35780601f10611278576101008083540402835291602001916112a3565b820191906000526020600020905b81548152906001019060200180831161128657829003601f168201915b5050505050815260200160028201548152505090506001816040018181516112cb9190615a2f565b9150818152505080600360003373ffffffffffffffffffffffffffffffffffffffff1673ffffffffffffffffffffffffffffffffffffffff16815260200190815260200160002060008201518160000160006101000a81548173ffffffffffffffffffffffffffffffffffffffff021916908373ffffffffffffffffffffffffffffffffffffffff160217905550602082015181600101908051906020019061137592919061473a565b50604082015181600201559050508260018781548110611398576113976158c2565b5b90600052602060002090600802016000820151816000015560208201518160010190805190602001906113cc92919061473a565b506040820151816002015560608201518160030190805190602001906113f392919061473a565b5060808201518160040160006101000a81548160ff0219169083600281111561141f5761141e614cdf565b5b021790555060a08201518160040160016101000a81548173ffffffffffffffffffffffffffffffffffffffff021916908373ffffffffffffffffffffffffffffffffffffffff16021790555060c0820151816005015560e08201518160060160006101000a81548173ffffffffffffffffffffffffffffffffffffffff021916908373ffffffffffffffffffffffffffffffffffffffff1602179055506101008201518160070160006101000a81548173ffffffffffffffffffffffffffffffffffffffff021916908373ffffffffffffffffffffffffffffffffffffffff1602179055509050507fbecca2d2f326ada9f4428c9cf79b47f0fa927aacb38c32ada338ced2c0ead166868460a001513360405161153e93929190615a85565b60405180910390a182945050505050919050565b61155a614703565b6000600460008473ffffffffffffffffffffffffffffffffffffffff1673ffffffffffffffffffffffffffffffffffffffff1681526020019081526020016000206040518060600160405290816000820160009054906101000a900473ffffffffffffffffffffffffffffffffffffffff1673ffffffffffffffffffffffffffffffffffffffff1673ffffffffffffffffffffffffffffffffffffffff16815260200160018201805461160c90615700565b80601f016020809104026020016040519081016040528092919081815260200182805461163890615700565b80156116855780601f1061165a57610100808354040283529160200191611685565b820191906000526020600020905b81548152906001019060200180831161166857829003601f168201915b50505050508152602001600282015481525050905080915050919050565b6116ab6148b2565b6000600260008473ffffffffffffffffffffffffffffffffffffffff1673ffffffffffffffffffffffffffffffffffffffff1681526020019081526020016000206040518060600160405290816000820160009054906101000a900473ffffffffffffffffffffffffffffffffffffffff1673ffffffffffffffffffffffffffffffffffffffff1673ffffffffffffffffffffffffffffffffffffffff16815260200160018201805461175d90615700565b80601f016020809104026020016040519081016040528092919081815260200182805461178990615700565b80156117d65780601f106117ab576101008083540402835291602001916117d6565b820191906000526020600020905b8154815290600101906020018083116117b957829003601f168201915b50505050508152602001600282015481525050905080915050919050565b60606000600860008473ffffffffffffffffffffffffffffffffffffffff1673ffffffffffffffffffffffffffffffffffffffff16815260200190815260200160002080548060200260200160405190810160405280929190818152602001828054801561188157602002820191906000526020600020905b81548152602001906001019080831161186d575b5050505050905080915050919050565b60046020528060005260406000206000915090508060000160009054906101000a900473ffffffffffffffffffffffffffffffffffffffff16908060010180546118da90615700565b80601f016020809104026020016040519081016040528092919081815260200182805461190690615700565b80156119535780601f1061192857610100808354040283529160200191611953565b820191906000526020600020905b81548152906001019060200180831161193657829003601f168201915b5050505050908060020154905083565b60606000600660008473ffffffffffffffffffffffffffffffffffffffff1673ffffffffffffffffffffffffffffffffffffffff1681526020019081526020016000208054806020026020016040519081016040528092919081815260200182805480156119f057602002820191906000526020600020905b8154815260200190600101908083116119dc575b5050505050905080915050919050565b60066020528160005260406000208181548110611a1c57600080fd5b90600052602060002001600091509150505481565b60086020528160005260406000208181548110611a4d57600080fd5b90600052602060002001600091509150505481565b611a6a6148e9565b6000600360008473ffffffffffffffffffffffffffffffffffffffff1673ffffffffffffffffffffffffffffffffffffffff1681526020019081526020016000206040518060600160405290816000820160009054906101000a900473ffffffffffffffffffffffffffffffffffffffff1673ffffffffffffffffffffffffffffffffffffffff1673ffffffffffffffffffffffffffffffffffffffff168152602001600182018054611b1c90615700565b80601f0160208091040260200160405190810160405280929190818152602001828054611b4890615700565b8015611b955780601f10611b6a57610100808354040283529160200191611b95565b820191906000526020600020905b815481529060010190602001808311611b7857829003601f168201915b50505050508152602001600282015481525050905080915050919050565b611bbb6147c0565b6060611bc56148b2565b611bcd614703565b600060018681548110611be357611be26158c2565b5b90600052602060002090600802016040518061012001604052908160008201548152602001600182018054611c1790615700565b80601f0160208091040260200160405190810160405280929190818152602001828054611c4390615700565b8015611c905780601f10611c6557610100808354040283529160200191611c90565b820191906000526020600020905b815481529060010190602001808311611c7357829003601f168201915b5050505050815260200160028201548152602001600382018054611cb390615700565b80601f0160208091040260200160405190810160405280929190818152602001828054611cdf90615700565b8015611d2c5780601f10611d0157610100808354040283529160200191611d2c565b820191906000526020600020905b815481529060010190602001808311611d0f57829003601f168201915b505050505081526020016004820160009054906101000a900460ff166002811115611d5a57611d59614cdf565b5b6002811115611d6c57611d6b614cdf565b5b81526020016004820160019054906101000a900473ffffffffffffffffffffffffffffffffffffffff1673ffffffffffffffffffffffffffffffffffffffff1673ffffffffffffffffffffffffffffffffffffffff168152602001600582015481526020016006820160009054906101000a900473ffffffffffffffffffffffffffffffffffffffff1673ffffffffffffffffffffffffffffffffffffffff1673ffffffffffffffffffffffffffffffffffffffff1681526020016007820160009054906101000a900473ffffffffffffffffffffffffffffffffffffffff1673ffffffffffffffffffffffffffffffffffffffff1673ffffffffffffffffffffffffffffffffffffffff16815250509050600060056000888152602001908152602001600020805480602002602001604051908101604052809291908181526020018280548015611f1357602002820191906000526020600020905b8160009054906101000a900473ffffffffffffffffffffffffffffffffffffffff1673ffffffffffffffffffffffffffffffffffffffff1681526020019060010190808311611ec9575b5050505050905060008260c0015167ffffffffffffffff811115611f3a57611f396149be565b5b604051908082528060200260200182016040528015611f7357816020015b611f606148e9565b815260200190600190039081611f585790505b5090506000611f858460a001516116a3565b90506000611f968560e00151611552565b905060005b8451811015611ff857611fc7858281518110611fba57611fb96158c2565b5b6020026020010151611a62565b848281518110611fda57611fd96158c2565b5b60200260200101819052508080611ff0906159b2565b915050611f9b565b5084838383985098509850985050505050509193509193565b60026020528060005260406000206000915090508060000160009054906101000a900473ffffffffffffffffffffffffffffffffffffffff169080600101805461205a90615700565b80601f016020809104026020016040519081016040528092919081815260200182805461208690615700565b80156120d35780601f106120a8576101008083540402835291602001916120d3565b820191906000526020600020905b8154815290600101906020018083116120b657829003601f168201915b5050505050908060020154905083565b600181815481106120f357600080fd5b906000526020600020906008020160009150905080600001549080600101805461211c90615700565b80601f016020809104026020016040519081016040528092919081815260200182805461214890615700565b80156121955780601f1061216a57610100808354040283529160200191612195565b820191906000526020600020905b81548152906001019060200180831161217857829003601f168201915b5050505050908060020154908060030180546121b090615700565b80601f01602080910402602001604051908101604052809291908181526020018280546121dc90615700565b80156122295780601f106121fe57610100808354040283529160200191612229565b820191906000526020600020905b81548152906001019060200180831161220c57829003601f168201915b5050505050908060040160009054906101000a900460ff16908060040160019054906101000a900473ffffffffffffffffffffffffffffffffffffffff16908060050154908060060160009054906101000a900473ffffffffffffffffffffffffffffffffffffffff16908060070160009054906101000a900473ffffffffffffffffffffffffffffffffffffffff16905089565b60005481565b6122cc6147c0565b33600073ffffffffffffffffffffffffffffffffffffffff16600460008373ffffffffffffffffffffffffffffffffffffffff1673ffffffffffffffffffffffffffffffffffffffff16815260200190815260200160002060000160009054906101000a900473ffffffffffffffffffffffffffffffffffffffff1673ffffffffffffffffffffffffffffffffffffffff16141561239f576040517f08c379a000000000000000000000000000000000000000000000000000000000815260040161239690615b2e565b60405180910390fd5b60005483106123e3576040517f08c379a00000000000000000000000000000000000000000000000000000000081526004016123da906158a2565b60405180910390fd5b6000600184815481106123f9576123f86158c2565b5b9060005260206000209060080201604051806101200160405290816000820154815260200160018201805461242d90615700565b80601f016020809104026020016040519081016040528092919081815260200182805461245990615700565b80156124a65780601f1061247b576101008083540402835291602001916124a6565b820191906000526020600020905b81548152906001019060200180831161248957829003601f168201915b50505050508152602001600282015481526020016003820180546124c990615700565b80601f01602080910402602001604051908101604052809291908181526020018280546124f590615700565b80156125425780601f1061251757610100808354040283529160200191612542565b820191906000526020600020905b81548152906001019060200180831161252557829003601f168201915b505050505081526020016004820160009054906101000a900460ff1660028111156125705761256f614cdf565b5b600281111561258257612581614cdf565b5b81526020016004820160019054906101000a900473ffffffffffffffffffffffffffffffffffffffff1673ffffffffffffffffffffffffffffffffffffffff1673ffffffffffffffffffffffffffffffffffffffff168152602001600582015481526020016006820160009054906101000a900473ffffffffffffffffffffffffffffffffffffffff1673ffffffffffffffffffffffffffffffffffffffff1673ffffffffffffffffffffffffffffffffffffffff1681526020016007820160009054906101000a900473ffffffffffffffffffffffffffffffffffffffff1673ffffffffffffffffffffffffffffffffffffffff1673ffffffffffffffffffffffffffffffffffffffff16815250509050600160028111156126a8576126a7614cdf565b5b816080015160028111156126bf576126be614cdf565b5b146126ff576040517f08c379a00000000000000000000000000000000000000000000000000000000081526004016126f690615bc0565b60405180910390fd5b6000600560008360000151815260200190815260200160002060018360c0015161272991906159fb565b8154811061273a576127396158c2565b5b9060005260206000200160009054906101000a900473ffffffffffffffffffffffffffffffffffffffff1690506000600360008373ffffffffffffffffffffffffffffffffffffffff1673ffffffffffffffffffffffffffffffffffffffff1681526020019081526020016000206040518060600160405290816000820160009054906101000a900473ffffffffffffffffffffffffffffffffffffffff1673ffffffffffffffffffffffffffffffffffffffff1673ffffffffffffffffffffffffffffffffffffffff16815260200160018201805461281990615700565b80601f016020809104026020016040519081016040528092919081815260200182805461284590615700565b80156128925780601f1061286757610100808354040283529160200191612892565b820191906000526020600020905b81548152906001019060200180831161287557829003601f168201915b5050505050815260200160028201548152505090506000600460003373ffffffffffffffffffffffffffffffffffffffff1673ffffffffffffffffffffffffffffffffffffffff1681526020019081526020016000206040518060600160405290816000820160009054906101000a900473ffffffffffffffffffffffffffffffffffffffff1673ffffffffffffffffffffffffffffffffffffffff1673ffffffffffffffffffffffffffffffffffffffff16815260200160018201805461295990615700565b80601f016020809104026020016040519081016040528092919081815260200182805461298590615700565b80156129d25780601f106129a7576101008083540402835291602001916129d2565b820191906000526020600020905b8154815290600101906020018083116129b557829003601f168201915b505050505081526020016002820154815250509050600284608001906002811115612a00576129ff614cdf565b5b90816002811115612a1457612a13614cdf565b5b8152505080600001518460e0019073ffffffffffffffffffffffffffffffffffffffff16908173ffffffffffffffffffffffffffffffffffffffff16815250503384610100019073ffffffffffffffffffffffffffffffffffffffff16908173ffffffffffffffffffffffffffffffffffffffff16815250506000600560008981526020019081526020016000206001600560008b815260200190815260200160002080549050612ac591906159fb565b81548110612ad657612ad56158c2565b5b9060005260206000200160009054906101000a900473ffffffffffffffffffffffffffffffffffffffff1690506000600360008373ffffffffffffffffffffffffffffffffffffffff1673ffffffffffffffffffffffffffffffffffffffff1681526020019081526020016000206040518060600160405290816000820160009054906101000a900473ffffffffffffffffffffffffffffffffffffffff1673ffffffffffffffffffffffffffffffffffffffff1673ffffffffffffffffffffffffffffffffffffffff168152602001600182018054612bb590615700565b80601f0160208091040260200160405190810160405280929190818152602001828054612be190615700565b8015612c2e5780601f10612c0357610100808354040283529160200191612c2e565b820191906000526020600020905b815481529060010190602001808311612c1157829003601f168201915b50505050508152602001600282015481525050905060005b8160400151811015612d635789600760008573ffffffffffffffffffffffffffffffffffffffff1673ffffffffffffffffffffffffffffffffffffffff1681526020019081526020016000208281548110612ca457612ca36158c2565b5b90600052602060002001541415612d5057612cfd81600760008673ffffffffffffffffffffffffffffffffffffffff1673ffffffffffffffffffffffffffffffffffffffff168152602001908152602001600020614655565b600760008573ffffffffffffffffffffffffffffffffffffffff1673ffffffffffffffffffffffffffffffffffffffff168152602001908152602001600020908054612d4a929190614860565b50612d63565b8080612d5b906159b2565b915050612c46565b50600181604001818151612d7791906159fb565b9150818152505080600360008473ffffffffffffffffffffffffffffffffffffffff1673ffffffffffffffffffffffffffffffffffffffff16815260200190815260200160002060008201518160000160006101000a81548173ffffffffffffffffffffffffffffffffffffffff021916908373ffffffffffffffffffffffffffffffffffffffff1602179055506020820151816001019080519060200190612e2192919061473a565b5060408201518160020155905050600860003373ffffffffffffffffffffffffffffffffffffffff1673ffffffffffffffffffffffffffffffffffffffff16815260200190815260200160002086600001519080600181540180825580915050600190039060005260206000200160009091909190915055600183604001818151612eac9190615a2f565b9150818152505082600460003373ffffffffffffffffffffffffffffffffffffffff1673ffffffffffffffffffffffffffffffffffffffff16815260200190815260200160002060008201518160000160006101000a81548173ffffffffffffffffffffffffffffffffffffffff021916908373ffffffffffffffffffffffffffffffffffffffff1602179055506020820151816001019080519060200190612f5692919061473a565b50604082015181600201559050508560018a81548110612f7957612f786158c2565b5b9060005260206000209060080201600082015181600001556020820151816001019080519060200190612fad92919061473a565b50604082015181600201556060820151816003019080519060200190612fd492919061473a565b5060808201518160040160006101000a81548160ff0219169083600281111561300057612fff614cdf565b5b021790555060a08201518160040160016101000a81548173ffffffffffffffffffffffffffffffffffffffff021916908373ffffffffffffffffffffffffffffffffffffffff16021790555060c0820151816005015560e08201518160060160006101000a81548173ffffffffffffffffffffffffffffffffffffffff021916908373ffffffffffffffffffffffffffffffffffffffff1602179055506101008201518160070160006101000a81548173ffffffffffffffffffffffffffffffffffffffff021916908373ffffffffffffffffffffffffffffffffffffffff1602179055509050507f41ead87203d5b5ee8e9a8625ba6db3143d789ed55263a7bfb72626e95348f4f68985600001513360405161311f93929190615a85565b60405180910390a185975050505050505050919050565b6007602052816000526040600020818154811061315257600080fd5b90600052602060002001600091509150505481565b60008073ffffffffffffffffffffffffffffffffffffffff16600260008473ffffffffffffffffffffffffffffffffffffffff1673ffffffffffffffffffffffffffffffffffffffff16815260200190815260200160002060000160009054906101000a900473ffffffffffffffffffffffffffffffffffffffff1673ffffffffffffffffffffffffffffffffffffffff1614613207576000905061334a565b600073ffffffffffffffffffffffffffffffffffffffff16600360008473ffffffffffffffffffffffffffffffffffffffff1673ffffffffffffffffffffffffffffffffffffffff16815260200190815260200160002060000160009054906101000a900473ffffffffffffffffffffffffffffffffffffffff1673ffffffffffffffffffffffffffffffffffffffff16146132a6576001905061334a565b600073ffffffffffffffffffffffffffffffffffffffff16600460008473ffffffffffffffffffffffffffffffffffffffff1673ffffffffffffffffffffffffffffffffffffffff16815260200190815260200160002060000160009054906101000a900473ffffffffffffffffffffffffffffffffffffffff1673ffffffffffffffffffffffffffffffffffffffff1614613345576002905061334a565b600390505b919050565b6133576147c0565b33600073ffffffffffffffffffffffffffffffffffffffff16600260008373ffffffffffffffffffffffffffffffffffffffff1673ffffffffffffffffffffffffffffffffffffffff16815260200190815260200160002060000160009054906101000a900473ffffffffffffffffffffffffffffffffffffffff1673ffffffffffffffffffffffffffffffffffffffff16141561342a576040517f08c379a000000000000000000000000000000000000000000000000000000000815260040161342190615c52565b60405180910390fd5b600073ffffffffffffffffffffffffffffffffffffffff16600260003373ffffffffffffffffffffffffffffffffffffffff1673ffffffffffffffffffffffffffffffffffffffff16815260200190815260200160002060000160009054906101000a900473ffffffffffffffffffffffffffffffffffffffff1673ffffffffffffffffffffffffffffffffffffffff1614156134fc576040517f08c379a00000000000000000000000000000000000000000000000000000000081526004016134f390615ce4565b60405180910390fd5b6000600260003373ffffffffffffffffffffffffffffffffffffffff1673ffffffffffffffffffffffffffffffffffffffff1681526020019081526020016000206040518060600160405290816000820160009054906101000a900473ffffffffffffffffffffffffffffffffffffffff1673ffffffffffffffffffffffffffffffffffffffff1673ffffffffffffffffffffffffffffffffffffffff1681526020016001820180546135ae90615700565b80601f01602080910402602001604051908101604052809291908181526020018280546135da90615700565b80156136275780601f106135fc57610100808354040283529160200191613627565b820191906000526020600020905b81548152906001019060200180831161360a57829003601f168201915b5050505050815260200160028201548152505090506136446147c0565b6000548160000181815250508681602001819052508581604001818152505084816060018190525081600001518160a0019073ffffffffffffffffffffffffffffffffffffffff16908173ffffffffffffffffffffffffffffffffffffffff16815250506000816080019060028111156136c1576136c0614cdf565b5b908160028111156136d5576136d4614cdf565b5b8152505060008160c00181815250503381610100019073ffffffffffffffffffffffffffffffffffffffff16908173ffffffffffffffffffffffffffffffffffffffff1681525050600181908060018154018082558091505060019003906000526020600020906008020160009091909190915060008201518160000155602082015181600101908051906020019061376f92919061473a565b5060408201518160020155606082015181600301908051906020019061379692919061473a565b5060808201518160040160006101000a81548160ff021916908360028111156137c2576137c1614cdf565b5b021790555060a08201518160040160016101000a81548173ffffffffffffffffffffffffffffffffffffffff021916908373ffffffffffffffffffffffffffffffffffffffff16021790555060c0820151816005015560e08201518160060160006101000a81548173ffffffffffffffffffffffffffffffffffffffff021916908373ffffffffffffffffffffffffffffffffffffffff1602179055506101008201518160070160006101000a81548173ffffffffffffffffffffffffffffffffffffffff021916908373ffffffffffffffffffffffffffffffffffffffff160217905550505060016000808282546138bb9190615a2f565b92505081905550600660003373ffffffffffffffffffffffffffffffffffffffff1673ffffffffffffffffffffffffffffffffffffffff1681526020019081526020016000208160000151908060018154018082558091505060019003906000526020600020016000909190919091505560018260400181815161393f9190615a2f565b9150818152505081600260003373ffffffffffffffffffffffffffffffffffffffff1673ffffffffffffffffffffffffffffffffffffffff16815260200190815260200160002060008201518160000160006101000a81548173ffffffffffffffffffffffffffffffffffffffff021916908373ffffffffffffffffffffffffffffffffffffffff16021790555060208201518160010190805190602001906139e992919061473a565b506040820151816002015590505060096005600083600001518152602001908152602001600020908054613a1e929190614920565b507f7729e6201ef9e0ddfbfd62dadbf36f7a731e6667ccb2411649655c253f3555b7816000015133604051613a54929190615d04565b60405180910390a18093505050509392505050565b613a716148b2565b6000600260003373ffffffffffffffffffffffffffffffffffffffff1673ffffffffffffffffffffffffffffffffffffffff1681526020019081526020016000206001018054613ac090615700565b905014613b02576040517f08c379a0000000000000000000000000000000000000000000000000000000008152600401613af990615d9f565b60405180910390fd5b613b0a6148b2565b33816000019073ffffffffffffffffffffffffffffffffffffffff16908173ffffffffffffffffffffffffffffffffffffffff1681525050828160200181905250600081604001818152505080600260003373ffffffffffffffffffffffffffffffffffffffff1673ffffffffffffffffffffffffffffffffffffffff16815260200190815260200160002060008201518160000160006101000a81548173ffffffffffffffffffffffffffffffffffffffff021916908373ffffffffffffffffffffffffffffffffffffffff1602179055506020820151816001019080519060200190613bf992919061473a565b506040820151816002015590505080915050919050565b613c186148e9565b6000600360003373ffffffffffffffffffffffffffffffffffffffff1673ffffffffffffffffffffffffffffffffffffffff1681526020019081526020016000206001018054613c6790615700565b905014613ca9576040517f08c379a0000000000000000000000000000000000000000000000000000000008152600401613ca0906157a4565b60405180910390fd5b613cb16148e9565b33816000019073ffffffffffffffffffffffffffffffffffffffff16908173ffffffffffffffffffffffffffffffffffffffff1681525050828160200181905250600081604001818152505080600360003373ffffffffffffffffffffffffffffffffffffffff1673ffffffffffffffffffffffffffffffffffffffff16815260200190815260200160002060008201518160000160006101000a81548173ffffffffffffffffffffffffffffffffffffffff021916908373ffffffffffffffffffffffffffffffffffffffff1602179055506020820151816001019080519060200190613da092919061473a565b506040820151816002015590505080915050919050565b60606000600760008473ffffffffffffffffffffffffffffffffffffffff1673ffffffffffffffffffffffffffffffffffffffff168152602001908152602001600020805480602002602001604051908101604052809291908181526020018280548015613e4457602002820191906000526020600020905b815481526020019060010190808311613e30575b5050505050905080915050919050565b60036020528060005260406000206000915090508060000160009054906101000a900473ffffffffffffffffffffffffffffffffffffffff1690806001018054613e9d90615700565b80601f0160208091040260200160405190810160405280929190818152602001828054613ec990615700565b8015613f165780601f10613eeb57610100808354040283529160200191613f16565b820191906000526020600020905b815481529060010190602001808311613ef957829003601f168201915b5050505050908060020154905083565b600080613f316148b2565b613f39614703565b613f416148e9565b60008060018881548110613f5857613f576158c2565b5b90600052602060002090600802016040518061012001604052908160008201548152602001600182018054613f8c90615700565b80601f0160208091040260200160405190810160405280929190818152602001828054613fb890615700565b80156140055780601f10613fda57610100808354040283529160200191614005565b820191906000526020600020905b815481529060010190602001808311613fe857829003601f168201915b505050505081526020016002820154815260200160038201805461402890615700565b80601f016020809104026020016040519081016040528092919081815260200182805461405490615700565b80156140a15780601f10614076576101008083540402835291602001916140a1565b820191906000526020600020905b81548152906001019060200180831161408457829003601f168201915b505050505081526020016004820160009054906101000a900460ff1660028111156140cf576140ce614cdf565b5b60028111156140e1576140e0614cdf565b5b81526020016004820160019054906101000a900473ffffffffffffffffffffffffffffffffffffffff1673ffffffffffffffffffffffffffffffffffffffff1673ffffffffffffffffffffffffffffffffffffffff168152602001600582015481526020016006820160009054906101000a900473ffffffffffffffffffffffffffffffffffffffff1673ffffffffffffffffffffffffffffffffffffffff1673ffffffffffffffffffffffffffffffffffffffff1681526020016007820160009054906101000a900473ffffffffffffffffffffffffffffffffffffffff1673ffffffffffffffffffffffffffffffffffffffff1673ffffffffffffffffffffffffffffffffffffffff168152505090506000816080015190506142046148b2565b61420c614703565b6142146148e9565b6000600281111561422857614227614cdf565b5b84600281111561423b5761423a614cdf565b5b1415614258578460a001519550614251866116a3565b925061430a565b60028081111561426b5761426a614cdf565b5b84600281111561427e5761427d614cdf565b5b141561429b578460e00151955061429486611552565b9150614309565b600560008d815260200190815260200160002060018660c001516142bf91906159fb565b815481106142d0576142cf6158c2565b5b9060005260206000200160009054906101000a900473ffffffffffffffffffffffffffffffffffffffff16955061430686611a62565b90505b5b83868484849a509a509a509a509a5050505050505091939590929450565b60606001805480602002602001604051908101604052809291908181526020016000905b828210156145fe5783829060005260206000209060080201604051806101200160405290816000820154815260200160018201805461438a90615700565b80601f01602080910402602001604051908101604052809291908181526020018280546143b690615700565b80156144035780601f106143d857610100808354040283529160200191614403565b820191906000526020600020905b8154815290600101906020018083116143e657829003601f168201915b505050505081526020016002820154815260200160038201805461442690615700565b80601f016020809104026020016040519081016040528092919081815260200182805461445290615700565b801561449f5780601f106144745761010080835404028352916020019161449f565b820191906000526020600020905b81548152906001019060200180831161448257829003601f168201915b505050505081526020016004820160009054906101000a900460ff1660028111156144cd576144cc614cdf565b5b60028111156144df576144de614cdf565b5b81526020016004820160019054906101000a900473ffffffffffffffffffffffffffffffffffffffff1673ffffffffffffffffffffffffffffffffffffffff1673ffffffffffffffffffffffffffffffffffffffff168152602001600582015481526020016006820160009054906101000a900473ffffffffffffffffffffffffffffffffffffffff1673ffffffffffffffffffffffffffffffffffffffff1673ffffffffffffffffffffffffffffffffffffffff1681526020016007820160009054906101000a900473ffffffffffffffffffffffffffffffffffffffff1673ffffffffffffffffffffffffffffffffffffffff1673ffffffffffffffffffffffffffffffffffffffff16815250508152602001906001019061434c565b50505050905090565b6005602052816000526040600020818154811061462357600080fd5b906000526020600020016000915091509054906101000a900473ffffffffffffffffffffffffffffffffffffffff1681565b6000808390505b6001838054905061466d91906159fb565b8110156146d257826001826146829190615a2f565b81548110614693576146926158c2565b5b90600052602060002001548382815481106146b1576146b06158c2565b5b906000526020600020018190555080806146ca906159b2565b91505061465c565b50818054806146e4576146e3615dbf565b5b6001900381819060005260206000200160009055905581905092915050565b6040518060600160405280600073ffffffffffffffffffffffffffffffffffffffff16815260200160608152602001600081525090565b82805461474690615700565b90600052602060002090601f01602090048101928261476857600085556147af565b82601f1061478157805160ff19168380011785556147af565b828001600101855582156147af579182015b828111156147ae578251825591602001919060010190614793565b5b5090506147bc9190614972565b5090565b60405180610120016040528060008152602001606081526020016000815260200160608152602001600060028111156147fc576147fb614cdf565b5b8152602001600073ffffffffffffffffffffffffffffffffffffffff16815260200160008152602001600073ffffffffffffffffffffffffffffffffffffffff168152602001600073ffffffffffffffffffffffffffffffffffffffff1681525090565b8280548282559060005260206000209081019282156148a15760005260206000209182015b828111156148a0578254825591600101919060010190614885565b5b5090506148ae9190614972565b5090565b6040518060600160405280600073ffffffffffffffffffffffffffffffffffffffff16815260200160608152602001600081525090565b6040518060600160405280600073ffffffffffffffffffffffffffffffffffffffff16815260200160608152602001600081525090565b8280548282559060005260206000209081019282156149615760005260206000209182015b82811115614960578254825591600101919060010190614945565b5b50905061496e9190614972565b5090565b5b8082111561498b576000816000905550600101614973565b5090565b6000604051905090565b600080fd5b600080fd5b600080fd5b600080fd5b6000601f19601f8301169050919050565b7f4e487b7100000000000000000000000000000000000000000000000000000000600052604160045260246000fd5b6149f6826149ad565b810181811067ffffffffffffffff82111715614a1557614a146149be565b5b80604052505050565b6000614a2861498f565b9050614a3482826149ed565b919050565b600067ffffffffffffffff821115614a5457614a536149be565b5b614a5d826149ad565b9050602081019050919050565b82818337600083830152505050565b6000614a8c614a8784614a39565b614a1e565b905082815260208101848484011115614aa857614aa76149a8565b5b614ab3848285614a6a565b509392505050565b600082601f830112614ad057614acf6149a3565b5b8135614ae0848260208601614a79565b91505092915050565b600060208284031215614aff57614afe614999565b5b600082013567ffffffffffffffff811115614b1d57614b1c61499e565b5b614b2984828501614abb565b91505092915050565b600073ffffffffffffffffffffffffffffffffffffffff82169050919050565b6000614b5d82614b32565b9050919050565b614b6d81614b52565b82525050565b600081519050919050565b600082825260208201905092915050565b60005b83811015614bad578082015181840152602081019050614b92565b83811115614bbc576000848401525b50505050565b6000614bcd82614b73565b614bd78185614b7e565b9350614be7818560208601614b8f565b614bf0816149ad565b840191505092915050565b6000819050919050565b614c0e81614bfb565b82525050565b6000606083016000830151614c2c6000860182614b64565b5060208301518482036020860152614c448282614bc2565b9150506040830151614c596040860182614c05565b508091505092915050565b60006020820190508181036000830152614c7e8184614c14565b905092915050565b614c8f81614bfb565b8114614c9a57600080fd5b50565b600081359050614cac81614c86565b92915050565b600060208284031215614cc857614cc7614999565b5b6000614cd684828501614c9d565b91505092915050565b7f4e487b7100000000000000000000000000000000000000000000000000000000600052602160045260246000fd5b60038110614d1f57614d1e614cdf565b5b50565b6000819050614d3082614d0e565b919050565b6000614d4082614d22565b9050919050565b614d5081614d35565b82525050565b600061012083016000830151614d6f6000860182614c05565b5060208301518482036020860152614d878282614bc2565b9150506040830151614d9c6040860182614c05565b5060608301518482036060860152614db48282614bc2565b9150506080830151614dc96080860182614d47565b5060a0830151614ddc60a0860182614b64565b5060c0830151614def60c0860182614c05565b5060e0830151614e0260e0860182614b64565b50610100830151614e17610100860182614b64565b508091505092915050565b60006020820190508181036000830152614e3c8184614d56565b905092915050565b614e4d81614b52565b8114614e5857600080fd5b50565b600081359050614e6a81614e44565b92915050565b600060208284031215614e8657614e85614999565b5b6000614e9484828501614e5b565b91505092915050565b6000606083016000830151614eb56000860182614b64565b5060208301518482036020860152614ecd8282614bc2565b9150506040830151614ee26040860182614c05565b508091505092915050565b60006020820190508181036000830152614f078184614e9d565b905092915050565b600081519050919050565b600082825260208201905092915050565b6000819050602082019050919050565b6000614f478383614c05565b60208301905092915050565b6000602082019050919050565b6000614f6b82614f0f565b614f758185614f1a565b9350614f8083614f2b565b8060005b83811015614fb1578151614f988882614f3b565b9750614fa383614f53565b925050600181019050614f84565b5085935050505092915050565b60006020820190508181036000830152614fd88184614f60565b905092915050565b614fe981614b52565b82525050565b600082825260208201905092915050565b600061500b82614b73565b6150158185614fef565b9350615025818560208601614b8f565b61502e816149ad565b840191505092915050565b61504281614bfb565b82525050565b600060608201905061505d6000830186614fe0565b818103602083015261506f8185615000565b905061507e6040830184615039565b949350505050565b6000806040838503121561509d5761509c614999565b5b60006150ab85828601614e5b565b92505060206150bc85828601614c9d565b9150509250929050565b60006020820190506150db6000830184615039565b92915050565b60006060830160008301516150f96000860182614b64565b50602083015184820360208601526151118282614bc2565b91505060408301516151266040860182614c05565b508091505092915050565b6000602082019050818103600083015261514b81846150e1565b905092915050565b600081519050919050565b600082825260208201905092915050565b6000819050602082019050919050565b60006060830160008301516151976000860182614b64565b50602083015184820360208601526151af8282614bc2565b91505060408301516151c46040860182614c05565b508091505092915050565b60006151db838361517f565b905092915050565b6000602082019050919050565b60006151fb82615153565b615205818561515e565b9350836020820285016152178561516f565b8060005b85811015615253578484038952815161523485826151cf565b945061523f836151e3565b925060208a0199505060018101905061521b565b50829750879550505050505092915050565b6000608082019050818103600083015261527f8187614d56565b9050818103602083015261529381866151f0565b905081810360408301526152a78185614e9d565b905081810360608301526152bb8184614c14565b905095945050505050565b6152cf81614d35565b82525050565b6000610120820190506152eb600083018c615039565b81810360208301526152fd818b615000565b905061530c604083018a615039565b818103606083015261531e8189615000565b905061532d60808301886152c6565b61533a60a0830187614fe0565b61534760c0830186615039565b61535460e0830185614fe0565b615362610100830184614fe0565b9a9950505050505050505050565b6004811061538157615380614cdf565b5b50565b600081905061539282615370565b919050565b60006153a282615384565b9050919050565b6153b281615397565b82525050565b60006020820190506153cd60008301846153a9565b92915050565b6000806000606084860312156153ec576153eb614999565b5b600084013567ffffffffffffffff81111561540a5761540961499e565b5b61541686828701614abb565b935050602061542786828701614c9d565b925050604084013567ffffffffffffffff8111156154485761544761499e565b5b61545486828701614abb565b9150509250925092565b600060a08201905061547360008301886152c6565b6154806020830187614fe0565b81810360408301526154928186614e9d565b905081810360608301526154a68185614c14565b905081810360808301526154ba81846150e1565b90509695505050505050565b600081519050919050565b600082825260208201905092915050565b6000819050602082019050919050565b60006101208301600083015161550b6000860182614c05565b50602083015184820360208601526155238282614bc2565b91505060408301516155386040860182614c05565b50606083015184820360608601526155508282614bc2565b91505060808301516155656080860182614d47565b5060a083015161557860a0860182614b64565b5060c083015161558b60c0860182614c05565b5060e083015161559e60e0860182614b64565b506101008301516155b3610100860182614b64565b508091505092915050565b60006155ca83836154f2565b905092915050565b6000602082019050919050565b60006155ea826154c6565b6155f481856154d1565b935083602082028501615606856154e2565b8060005b85811015615642578484038952815161562385826155be565b945061562e836155d2565b925060208a0199505060018101905061560a565b50829750879550505050505092915050565b6000602082019050818103600083015261566e81846155df565b905092915050565b6000806040838503121561568d5761568c614999565b5b600061569b85828601614c9d565b92505060206156ac85828601614c9d565b9150509250929050565b60006020820190506156cb6000830184614fe0565b92915050565b7f4e487b7100000000000000000000000000000000000000000000000000000000600052602260045260246000fd5b6000600282049050600182168061571857607f821691505b6020821081141561572c5761572b6156d1565b5b50919050565b7f54686973206164647265737320697320616c726561647920726567697374657260008201527f65642061732072657461696c6572000000000000000000000000000000000000602082015250565b600061578e602e83614fef565b915061579982615732565b604082019050919050565b600060208201905081810360008301526157bd81615781565b9050919050565b7f4f6e6c792072657461696c6572732063616e20706572666f726d20746869732060008201527f616374696f6e0000000000000000000000000000000000000000000000000000602082015250565b6000615820602683614fef565b915061582b826157c4565b604082019050919050565b6000602082019050818103600083015261584f81615813565b9050919050565b7f50726f6475637420646f6573206e6f7420657869737400000000000000000000600082015250565b600061588c601683614fef565b915061589782615856565b602082019050919050565b600060208201905081810360008301526158bb8161587f565b9050919050565b7f4e487b7100000000000000000000000000000000000000000000000000000000600052603260045260246000fd5b7f50726f6475637420686173206265656e2072656c6561736564206f7220736f6c60008201527f6400000000000000000000000000000000000000000000000000000000000000602082015250565b600061594d602183614fef565b9150615958826158f1565b604082019050919050565b6000602082019050818103600083015261597c81615940565b9050919050565b7f4e487b7100000000000000000000000000000000000000000000000000000000600052601160045260246000fd5b60006159bd82614bfb565b91507fffffffffffffffffffffffffffffffffffffffffffffffffffffffffffffffff8214156159f0576159ef615983565b5b600182019050919050565b6000615a0682614bfb565b9150615a1183614bfb565b925082821015615a2457615a23615983565b5b828203905092915050565b6000615a3a82614bfb565b9150615a4583614bfb565b9250827fffffffffffffffffffffffffffffffffffffffffffffffffffffffffffffffff03821115615a7a57615a79615983565b5b828201905092915050565b6000606082019050615a9a6000830186615039565b615aa76020830185614fe0565b615ab46040830184614fe0565b949350505050565b7f4f6e6c7920637573746f6d6572732063616e20706572666f726d20746869732060008201527f616374696f6e0000000000000000000000000000000000000000000000000000602082015250565b6000615b18602683614fef565b9150615b2382615abc565b604082019050919050565b60006020820190508181036000830152615b4781615b0b565b9050919050565b7f50726f6475637420686173206e6f74206265656e2072656c6561736564206f7260008201527f20686173206265656e20616c726561647920736f6c6400000000000000000000602082015250565b6000615baa603683614fef565b9150615bb582615b4e565b604082019050919050565b60006020820190508181036000830152615bd981615b9d565b9050919050565b7f4f6e6c79206d616e756661637475726572732063616e20706572666f726d207460008201527f68697320616374696f6e00000000000000000000000000000000000000000000602082015250565b6000615c3c602a83614fef565b9150615c4782615be0565b604082019050919050565b60006020820190508181036000830152615c6b81615c2f565b9050919050565b7f4f6e6c79206d616e756661637475726572732063616e206164642070726f647560008201527f6374000000000000000000000000000000000000000000000000000000000000602082015250565b6000615cce602283614fef565b9150615cd982615c72565b604082019050919050565b60006020820190508181036000830152615cfd81615cc1565b9050919050565b6000604082019050615d196000830185615039565b615d266020830184614fe0565b9392505050565b7f54686973206164647265737320697320616c726561647920726567697374657260008201527f6564206173206d616e7566616374757265720000000000000000000000000000602082015250565b6000615d89603283614fef565b9150615d9482615d2d565b604082019050919050565b60006020820190508181036000830152615db881615d7c565b9050919050565b7f4e487b7100000000000000000000000000000000000000000000000000000000600052603160045260246000fdfea264697066735822122010ff964326bdfa3f84e3b050bc7065e1d755cb3dddd0928351197bcf2de48c1a64736f6c634300080b0033",
  "immutableReferences": {},
  "source": "// SPDX-License-Identifier: MIT\r\npragma solidity >=0.4.22 <0.9.0;\r\n\r\ncontract DeTrace {\r\n\r\n  enum Role{\r\n    manufacturer,\r\n    retailer,\r\n    customer,\r\n    not_registered\r\n  }\r\n\r\n  enum Stage{\r\n    manufactured,\r\n    released,\r\n    sold\r\n  }\r\n\r\n  struct Product{\r\n    uint256 id;\r\n    string name;\r\n    uint price;\r\n    string ipfs_hash;\r\n    Stage stage;\r\n    address manufacturer;\r\n    uint total_retailers;\r\n    address customer;\r\n    address currentOwner;\r\n  }\r\n\r\n  struct Manufacturer{\r\n    address id;\r\n    string name;\r\n    uint total_products;\r\n  }\r\n\r\n  struct Retailer{\r\n    address id;\r\n    string name;\r\n    uint total_products;\r\n  }\r\n\r\n  struct Customer{\r\n    address id;\r\n    string name;\r\n    uint total_orders;\r\n  }\r\n\r\n  uint256 public total_products;\r\n  Product[] public products;\r\n  mapping(address => Manufacturer) public manufacturers;\r\n  mapping(address => Retailer) public retailers;\r\n  mapping(address => Customer) public customers;\r\n  mapping(uint => address[]) public Product_Retailers;\r\n\r\n  mapping(address=>uint[]) public manufacturer_inventory;\r\n  mapping(address=>uint[]) public retailer_inventory;\r\n  mapping(address=>uint[]) public customer_orders;\r\n\r\n  address[] address_array;\r\n\r\n  event DeTrace_deployed(string _message);\r\n  event Product_Added(uint _productId,address _manufacturerAddress);\r\n  event Product_Released(uint _productId, address _manufacturerAddress, address _retailerAddress);\r\n  event Product_Sold(uint _productId, address _retailerAddress, address _customerAddress);\r\n\r\n  constructor(){\r\n    total_products = 0;\r\n    emit DeTrace_deployed('DeTrace has been deployed');\r\n  }\r\n\r\n  modifier isManufacturer(address _manufacturerAddress){\r\n    require(manufacturers[_manufacturerAddress].id != address(0x0), 'Only manufacturers can perform this action');\r\n    _;\r\n  }\r\n\r\n  modifier isRetailer(address _retailerAddress){\r\n    require(retailers[_retailerAddress].id != address(0x0), 'Only retailers can perform this action');\r\n    _;\r\n  }\r\n\r\n  modifier isCustomer(address _customerAddress){\r\n    require(customers[_customerAddress].id != address(0x0), 'Only customers can perform this action');\r\n    _;\r\n  }\r\n\r\n  function removeElement(uint index, uint[] storage array) internal returns(uint[] storage){\r\n    for (uint i = index; i<array.length-1; i++){\r\n      array[i] = array[i+1];\r\n    }\r\n    array.pop();\r\n    return array;\r\n  }\r\n\r\n  function getProducts() public view returns(Product[] memory){\r\n    return products;\r\n  }\r\n\r\n  function addManufacturer(string memory _name) public payable returns (Manufacturer memory){\r\n    \r\n    require(bytes(manufacturers[msg.sender].name).length == 0 , 'This address is already registered as manufacturer');\r\n\r\n    Manufacturer memory _manufacturer;\r\n    _manufacturer.id = msg.sender;\r\n    _manufacturer.name = _name;\r\n    _manufacturer.total_products = 0;\r\n\r\n    manufacturers[msg.sender] = _manufacturer;\r\n\r\n    return _manufacturer;\r\n  }\r\n\r\n  function addRetailer(string memory _name) public payable returns (Retailer memory){\r\n    \r\n    require(bytes(retailers[msg.sender].name).length == 0 , 'This address is already registered as retailer');\r\n\r\n    Retailer memory _retailer;\r\n    _retailer.id = msg.sender;\r\n    _retailer.name = _name;\r\n    _retailer.total_products = 0;\r\n\r\n    retailers[msg.sender] = _retailer;\r\n\r\n    return _retailer;\r\n  }  \r\n\r\n  function addCustomer(string memory _name) public payable returns (Customer memory){\r\n    \r\n    require(bytes(customers[msg.sender].name).length == 0 , 'This address is already registered as retailer');\r\n\r\n    Customer memory _customer;\r\n    _customer.id = msg.sender;\r\n    _customer.name = _name;\r\n\r\n    customers[msg.sender] = _customer;\r\n\r\n    return _customer;\r\n  }\r\n\r\n  function addProduct(string memory _name, uint _price, string memory _ipfs_hash) public isManufacturer(msg.sender) payable returns(Product memory){\r\n\r\n    require(manufacturers[msg.sender].id != address(0), 'Only manufacturers can add product');\r\n\r\n    //get the manufacturer\r\n    Manufacturer memory _manufacturer = manufacturers[msg.sender];\r\n    \r\n    //create the product\r\n    Product memory _product;\r\n    _product.id = total_products;\r\n    _product.name = _name;\r\n    _product.price = _price;\r\n    _product.ipfs_hash = _ipfs_hash;\r\n    _product.manufacturer = _manufacturer.id;\r\n    _product.stage = Stage.manufactured;\r\n    _product.total_retailers = 0;\r\n    _product.currentOwner = msg.sender;\r\n\r\n    //add the product to records\r\n    products.push(_product);\r\n    total_products += 1;\r\n\r\n    //add the product to the manufacturer inventory records\r\n    manufacturer_inventory[msg.sender].push(_product.id);\r\n    _manufacturer.total_products += 1;\r\n    manufacturers[msg.sender] = _manufacturer;\r\n\r\n    //Add into proper mappings\r\n    Product_Retailers[_product.id] = address_array;\r\n\r\n    emit Product_Added(_product.id, msg.sender);\r\n\r\n    return _product;\r\n  }\r\n\r\n  function releaseProduct(uint _productId) public isRetailer(msg.sender) payable returns (Product memory){\r\n\r\n    require(_productId < total_products,'Product does not exist');\r\n\r\n    //Get the product\r\n    Product memory _product = products[_productId];\r\n\r\n    //check if the product has already been released or manufactured\r\n    require(_product.stage == Stage.manufactured, 'Product has been released or sold');\r\n\r\n    //Shift ownership from manufacturer to retailer\r\n    Product_Retailers[_productId].push(msg.sender);\r\n    _product.total_retailers++;\r\n    _product.stage = Stage.released;\r\n    _product.currentOwner = msg.sender;\r\n\r\n    //Remove the element from the inventory of manufacturer and update count\r\n    Manufacturer memory _manufacturer = manufacturers[_product.manufacturer];\r\n    for(uint i=0; i<_manufacturer.total_products; i++){\r\n      if(manufacturer_inventory[_product.manufacturer][i] == _productId ) {\r\n        manufacturer_inventory[_product.manufacturer] = removeElement(i, manufacturer_inventory[_product.manufacturer]);\r\n        // delete manufacturer_inventory[_product.manufacturer][i];\r\n        break;\r\n      }\r\n    }\r\n    _manufacturer.total_products -= 1;\r\n    manufacturers[_product.manufacturer] = _manufacturer;\r\n\r\n    //Add the product to retailer's inventory and update count\r\n    retailer_inventory[msg.sender].push(_product.id);\r\n    Retailer memory _retailer = retailers[msg.sender];\r\n    _retailer.total_products += 1;\r\n    retailers[msg.sender] = _retailer;\r\n\r\n    //save the updated product details\r\n    products[_productId] = _product;\r\n\r\n    emit Product_Released(_productId, _product.manufacturer, msg.sender);\r\n\r\n    return _product;\r\n  }\r\n\r\n  function buyProduct(uint _productId) public isCustomer(msg.sender) payable returns (Product memory){\r\n    require(_productId < total_products,'Product does not exist');\r\n\r\n    //Get the product\r\n    Product memory _product = products[_productId];\r\n\r\n    //check if the product has already been released or manufactured\r\n    require(_product.stage == Stage.released, 'Product has not been released or has been already sold');\r\n\r\n    //Get the details of the retailer who is selling\r\n    address _retailerId = Product_Retailers[_product.id][_product.total_retailers - 1];\r\n    Retailer memory _retailer = retailers[_retailerId];\r\n    \r\n    //Get the details of the customer\r\n    Customer memory _customer = customers[msg.sender];\r\n\r\n    //Shift ownership from retailer to customer\r\n    _product.stage = Stage.sold;\r\n    _product.customer = _customer.id;\r\n    _product.currentOwner = msg.sender;\r\n  \r\n    //Remove the element from the inventory of retailer and update count\r\n    address _current_retailer_address = Product_Retailers[_productId][Product_Retailers[_productId].length - 1];\r\n    Retailer memory _current_retailer = retailers[_current_retailer_address];\r\n    for(uint i=0; i<_current_retailer.total_products; i++){\r\n      if(retailer_inventory[_current_retailer_address][i] == _productId){\r\n        retailer_inventory[_current_retailer_address] = removeElement(i, retailer_inventory[_current_retailer_address]);\r\n        // delete retailer_inventory[_current_retailer_address][i];\r\n        break; \r\n      }\r\n    }\r\n    _current_retailer.total_products -= 1;\r\n    retailers[_current_retailer_address] = _current_retailer;\r\n\r\n    //Add the product to customer's orders and update count\r\n    customer_orders[msg.sender].push(_product.id);\r\n    _customer.total_orders += 1;\r\n    customers[msg.sender] = _customer;\r\n\r\n    //save the updated product details\r\n    products[_productId] = _product;\r\n\r\n    emit Product_Sold(_productId, _retailer.id, msg.sender);\r\n  \r\n    return _product;\r\n  }\r\n\r\n  function getManufacturerDetails(address _manufacturerId) public view returns(Manufacturer memory){\r\n    Manufacturer memory _manufacturer = manufacturers[_manufacturerId];\r\n    return _manufacturer;\r\n  }\r\n\r\n  function getManufacturerInventory(address _manufacturerId) public view returns(uint[] memory){\r\n    uint[] memory _product_ids = manufacturer_inventory[_manufacturerId];\r\n    return _product_ids;\r\n  }\r\n\r\n  function getRetailerDetails(address _retailerId) public view returns(Retailer memory){\r\n    Retailer memory _retailer = retailers[_retailerId];\r\n    return _retailer;\r\n  }\r\n\r\n  function getRetailerInventory(address _retailerId) public view returns(uint[] memory){   \r\n    uint[] memory _product_ids = retailer_inventory[_retailerId];\r\n    return _product_ids;\r\n  }\r\n\r\n  function getCustomerDetails(address _customerId) public view returns(Customer memory){\r\n    Customer memory _customer = customers[_customerId];\r\n    return _customer;\r\n  }\r\n\r\n  function getCustomerOrders(address _customerId) public view returns(uint[] memory){\r\n    uint[] memory _product_ids = customer_orders[_customerId];\r\n    return _product_ids;\r\n  }\r\n\r\n  function getProductDetails(uint _productId) public view returns(Product memory, Retailer[] memory, Manufacturer memory, Customer memory){\r\n    //Get the product\r\n    Product memory _product = products[_productId];\r\n\r\n    //Get all the retailers addresses\r\n    address[] memory _retailer_addresses = Product_Retailers[_productId];\r\n\r\n    //Initialize an empty reailters array\r\n    Retailer[] memory _retailers = new Retailer[](_product.total_retailers);\r\n\r\n    //Get the manufacturer\r\n    Manufacturer memory _manufacturer = getManufacturerDetails(_product.manufacturer);\r\n\r\n    //Get the customer\r\n    Customer memory _customer = getCustomerDetails(_product.customer);\r\n\r\n    //Push all the retailers in the _retailers array\r\n    for (uint256 i = 0; i < _retailer_addresses.length; i++) {\r\n      _retailers[i] = getRetailerDetails(_retailer_addresses[i]);\r\n    }\r\n    return (_product, _retailers, _manufacturer, _customer);\r\n  }\r\n\r\n  function getCurrentStatus(uint _productId) public view returns (Stage, address, Manufacturer memory, Customer memory, Retailer memory ) {\r\n    //Initilize an empty address for owner\r\n    address _owner_address;\r\n\r\n    //Get product details\r\n    Product memory _product = products[_productId];\r\n\r\n    //Get product stage\r\n    Stage _stage = _product.stage;\r\n\r\n    //Instantiate each user\r\n    Manufacturer memory _manufacturer;\r\n    Customer memory _customer;\r\n    Retailer memory _retailer;\r\n\r\n    //Check for each stage\r\n    if(_stage == Stage.manufactured){\r\n      _owner_address = _product.manufacturer;\r\n      _manufacturer = getManufacturerDetails(_owner_address);\r\n    } else if(_stage == Stage.sold) {\r\n      _owner_address = _product.customer;\r\n      _customer = getCustomerDetails(_owner_address);\r\n    } else {\r\n      _owner_address = Product_Retailers[_productId][_product.total_retailers - 1];\r\n      _retailer = getRetailerDetails(_owner_address);\r\n    }\r\n    return (_stage, _owner_address, _manufacturer, _customer, _retailer);\r\n  }\r\n\r\n  function getUserType(address _user) public view returns (Role){\r\n\r\n    if(manufacturers[_user].id != address(0x0)) return Role.manufacturer;\r\n\r\n    if(retailers[_user].id != address(0x0)) return Role.retailer;\r\n\r\n    if(customers[_user].id != address(0x0)) return Role.customer;\r\n\r\n    return Role.not_registered;\r\n  }\r\n}\r\n",
  "sourcePath": "E:\\WebDev Projects\\Hackathons\\Hackstack\\DeTrace-Original\\DeTrace\\contracts\\contracts\\DeTrace.sol",
  "compiler": {
    "name": "solc",
    "version": "0.8.11+commit.d7f03943.Emscripten.clang"
  },
  "schemaVersion": "3.4.4",
  "updatedAt": "2022-04-10T07:18:49.688Z",
  "networkType": "ethereum",
  "devdoc": {
    "kind": "dev",
    "methods": {},
    "version": 1
  },
  "userdoc": {
    "kind": "user",
    "methods": {},
    "version": 1
  }
}