{
  "contractName": "DeTrace",
  "abi": [
    {
      "inputs": [],
      "stateMutability": "nonpayable",
      "type": "constructor"
    },
    {
      "anonymous": false,
      "inputs": [
        {
          "indexed": false,
          "internalType": "string",
          "name": "_message",
          "type": "string"
        }
      ],
      "name": "DeTrace_deployed",
      "type": "event"
    },
    {
      "anonymous": false,
      "inputs": [
        {
          "indexed": false,
          "internalType": "uint256",
          "name": "_productId",
          "type": "uint256"
        },
        {
          "indexed": false,
          "internalType": "address",
          "name": "_manufacturerAddress",
          "type": "address"
        }
      ],
      "name": "Product_Added",
      "type": "event"
    },
    {
      "anonymous": false,
      "inputs": [
        {
          "indexed": false,
          "internalType": "uint256",
          "name": "_productId",
          "type": "uint256"
        },
        {
          "indexed": false,
          "internalType": "address",
          "name": "_manufacturerAddress",
          "type": "address"
        },
        {
          "indexed": false,
          "internalType": "address",
          "name": "_retailerAddress",
          "type": "address"
        }
      ],
      "name": "Product_Released",
      "type": "event"
    },
    {
      "anonymous": false,
      "inputs": [
        {
          "indexed": false,
          "internalType": "uint256",
          "name": "_productId",
          "type": "uint256"
        },
        {
          "indexed": false,
          "internalType": "address",
          "name": "_retailerAddress",
          "type": "address"
        },
        {
          "indexed": false,
          "internalType": "address",
          "name": "_customerAddress",
          "type": "address"
        }
      ],
      "name": "Product_Sold",
      "type": "event"
    },
    {
      "inputs": [
        {
          "internalType": "uint256",
          "name": "",
          "type": "uint256"
        },
        {
          "internalType": "uint256",
          "name": "",
          "type": "uint256"
        }
      ],
      "name": "Product_Retailers",
      "outputs": [
        {
          "internalType": "address",
          "name": "",
          "type": "address"
        }
      ],
      "stateMutability": "view",
      "type": "function",
      "constant": true
    },
    {
      "inputs": [
        {
          "internalType": "address",
          "name": "",
          "type": "address"
        },
        {
          "internalType": "uint256",
          "name": "",
          "type": "uint256"
        }
      ],
      "name": "customer_orders",
      "outputs": [
        {
          "internalType": "uint256",
          "name": "",
          "type": "uint256"
        }
      ],
      "stateMutability": "view",
      "type": "function",
      "constant": true
    },
    {
      "inputs": [
        {
          "internalType": "address",
          "name": "",
          "type": "address"
        }
      ],
      "name": "customers",
      "outputs": [
        {
          "internalType": "address",
          "name": "id",
          "type": "address"
        },
        {
          "internalType": "string",
          "name": "name",
          "type": "string"
        },
        {
          "internalType": "uint256",
          "name": "total_orders",
          "type": "uint256"
        }
      ],
      "stateMutability": "view",
      "type": "function",
      "constant": true
    },
    {
      "inputs": [
        {
          "internalType": "address",
          "name": "",
          "type": "address"
        },
        {
          "internalType": "uint256",
          "name": "",
          "type": "uint256"
        }
      ],
      "name": "manufacturer_inventory",
      "outputs": [
        {
          "internalType": "uint256",
          "name": "",
          "type": "uint256"
        }
      ],
      "stateMutability": "view",
      "type": "function",
      "constant": true
    },
    {
      "inputs": [
        {
          "internalType": "address",
          "name": "",
          "type": "address"
        }
      ],
      "name": "manufacturers",
      "outputs": [
        {
          "internalType": "address",
          "name": "id",
          "type": "address"
        },
        {
          "internalType": "string",
          "name": "name",
          "type": "string"
        },
        {
          "internalType": "uint256",
          "name": "total_products",
          "type": "uint256"
        }
      ],
      "stateMutability": "view",
      "type": "function",
      "constant": true
    },
    {
      "inputs": [
        {
          "internalType": "uint256",
          "name": "",
          "type": "uint256"
        }
      ],
      "name": "products",
      "outputs": [
        {
          "internalType": "uint256",
          "name": "id",
          "type": "uint256"
        },
        {
          "internalType": "string",
          "name": "name",
          "type": "string"
        },
        {
          "internalType": "uint256",
          "name": "price",
          "type": "uint256"
        },
        {
          "internalType": "string",
          "name": "ipfs_hash",
          "type": "string"
        },
        {
          "internalType": "enum DeTrace.Stage",
          "name": "stage",
          "type": "uint8"
        },
        {
          "internalType": "address",
          "name": "manufacturer",
          "type": "address"
        },
        {
          "internalType": "uint256",
          "name": "total_retailers",
          "type": "uint256"
        },
        {
          "internalType": "address",
          "name": "customer",
          "type": "address"
        }
      ],
      "stateMutability": "view",
      "type": "function",
      "constant": true
    },
    {
      "inputs": [
        {
          "internalType": "address",
          "name": "",
          "type": "address"
        },
        {
          "internalType": "uint256",
          "name": "",
          "type": "uint256"
        }
      ],
      "name": "retailer_inventory",
      "outputs": [
        {
          "internalType": "uint256",
          "name": "",
          "type": "uint256"
        }
      ],
      "stateMutability": "view",
      "type": "function",
      "constant": true
    },
    {
      "inputs": [
        {
          "internalType": "address",
          "name": "",
          "type": "address"
        }
      ],
      "name": "retailers",
      "outputs": [
        {
          "internalType": "address",
          "name": "id",
          "type": "address"
        },
        {
          "internalType": "string",
          "name": "name",
          "type": "string"
        },
        {
          "internalType": "uint256",
          "name": "total_products",
          "type": "uint256"
        }
      ],
      "stateMutability": "view",
      "type": "function",
      "constant": true
    },
    {
      "inputs": [],
      "name": "total_products",
      "outputs": [
        {
          "internalType": "uint256",
          "name": "",
          "type": "uint256"
        }
      ],
      "stateMutability": "view",
      "type": "function",
      "constant": true
    },
    {
      "inputs": [],
      "name": "getProducts",
      "outputs": [
        {
          "components": [
            {
              "internalType": "uint256",
              "name": "id",
              "type": "uint256"
            },
            {
              "internalType": "string",
              "name": "name",
              "type": "string"
            },
            {
              "internalType": "uint256",
              "name": "price",
              "type": "uint256"
            },
            {
              "internalType": "string",
              "name": "ipfs_hash",
              "type": "string"
            },
            {
              "internalType": "enum DeTrace.Stage",
              "name": "stage",
              "type": "uint8"
            },
            {
              "internalType": "address",
              "name": "manufacturer",
              "type": "address"
            },
            {
              "internalType": "uint256",
              "name": "total_retailers",
              "type": "uint256"
            },
            {
              "internalType": "address",
              "name": "customer",
              "type": "address"
            }
          ],
          "internalType": "struct DeTrace.Product[]",
          "name": "",
          "type": "tuple[]"
        }
      ],
      "stateMutability": "view",
      "type": "function",
      "constant": true
    },
    {
      "inputs": [
        {
          "internalType": "string",
          "name": "_name",
          "type": "string"
        }
      ],
      "name": "addManufacturer",
      "outputs": [
        {
          "components": [
            {
              "internalType": "address",
              "name": "id",
              "type": "address"
            },
            {
              "internalType": "string",
              "name": "name",
              "type": "string"
            },
            {
              "internalType": "uint256",
              "name": "total_products",
              "type": "uint256"
            }
          ],
          "internalType": "struct DeTrace.Manufacturer",
          "name": "",
          "type": "tuple"
        }
      ],
      "stateMutability": "payable",
      "type": "function",
      "payable": true
    },
    {
      "inputs": [
        {
          "internalType": "string",
          "name": "_name",
          "type": "string"
        }
      ],
      "name": "addRetailer",
      "outputs": [
        {
          "components": [
            {
              "internalType": "address",
              "name": "id",
              "type": "address"
            },
            {
              "internalType": "string",
              "name": "name",
              "type": "string"
            },
            {
              "internalType": "uint256",
              "name": "total_products",
              "type": "uint256"
            }
          ],
          "internalType": "struct DeTrace.Retailer",
          "name": "",
          "type": "tuple"
        }
      ],
      "stateMutability": "payable",
      "type": "function",
      "payable": true
    },
    {
      "inputs": [
        {
          "internalType": "string",
          "name": "_name",
          "type": "string"
        }
      ],
      "name": "addCustomer",
      "outputs": [
        {
          "components": [
            {
              "internalType": "address",
              "name": "id",
              "type": "address"
            },
            {
              "internalType": "string",
              "name": "name",
              "type": "string"
            },
            {
              "internalType": "uint256",
              "name": "total_orders",
              "type": "uint256"
            }
          ],
          "internalType": "struct DeTrace.Customer",
          "name": "",
          "type": "tuple"
        }
      ],
      "stateMutability": "payable",
      "type": "function",
      "payable": true
    },
    {
      "inputs": [
        {
          "internalType": "string",
          "name": "_name",
          "type": "string"
        },
        {
          "internalType": "uint256",
          "name": "_price",
          "type": "uint256"
        },
        {
          "internalType": "string",
          "name": "_ipfs_hash",
          "type": "string"
        }
      ],
      "name": "addProduct",
      "outputs": [
        {
          "components": [
            {
              "internalType": "uint256",
              "name": "id",
              "type": "uint256"
            },
            {
              "internalType": "string",
              "name": "name",
              "type": "string"
            },
            {
              "internalType": "uint256",
              "name": "price",
              "type": "uint256"
            },
            {
              "internalType": "string",
              "name": "ipfs_hash",
              "type": "string"
            },
            {
              "internalType": "enum DeTrace.Stage",
              "name": "stage",
              "type": "uint8"
            },
            {
              "internalType": "address",
              "name": "manufacturer",
              "type": "address"
            },
            {
              "internalType": "uint256",
              "name": "total_retailers",
              "type": "uint256"
            },
            {
              "internalType": "address",
              "name": "customer",
              "type": "address"
            }
          ],
          "internalType": "struct DeTrace.Product",
          "name": "",
          "type": "tuple"
        }
      ],
      "stateMutability": "payable",
      "type": "function",
      "payable": true
    },
    {
      "inputs": [
        {
          "internalType": "uint256",
          "name": "_productId",
          "type": "uint256"
        }
      ],
      "name": "releaseProduct",
      "outputs": [
        {
          "components": [
            {
              "internalType": "uint256",
              "name": "id",
              "type": "uint256"
            },
            {
              "internalType": "string",
              "name": "name",
              "type": "string"
            },
            {
              "internalType": "uint256",
              "name": "price",
              "type": "uint256"
            },
            {
              "internalType": "string",
              "name": "ipfs_hash",
              "type": "string"
            },
            {
              "internalType": "enum DeTrace.Stage",
              "name": "stage",
              "type": "uint8"
            },
            {
              "internalType": "address",
              "name": "manufacturer",
              "type": "address"
            },
            {
              "internalType": "uint256",
              "name": "total_retailers",
              "type": "uint256"
            },
            {
              "internalType": "address",
              "name": "customer",
              "type": "address"
            }
          ],
          "internalType": "struct DeTrace.Product",
          "name": "",
          "type": "tuple"
        }
      ],
      "stateMutability": "payable",
      "type": "function",
      "payable": true
    },
    {
      "inputs": [
        {
          "internalType": "uint256",
          "name": "_productId",
          "type": "uint256"
        }
      ],
      "name": "buyProduct",
      "outputs": [
        {
          "components": [
            {
              "internalType": "uint256",
              "name": "id",
              "type": "uint256"
            },
            {
              "internalType": "string",
              "name": "name",
              "type": "string"
            },
            {
              "internalType": "uint256",
              "name": "price",
              "type": "uint256"
            },
            {
              "internalType": "string",
              "name": "ipfs_hash",
              "type": "string"
            },
            {
              "internalType": "enum DeTrace.Stage",
              "name": "stage",
              "type": "uint8"
            },
            {
              "internalType": "address",
              "name": "manufacturer",
              "type": "address"
            },
            {
              "internalType": "uint256",
              "name": "total_retailers",
              "type": "uint256"
            },
            {
              "internalType": "address",
              "name": "customer",
              "type": "address"
            }
          ],
          "internalType": "struct DeTrace.Product",
          "name": "",
          "type": "tuple"
        }
      ],
      "stateMutability": "payable",
      "type": "function",
      "payable": true
    },
    {
      "inputs": [
        {
          "internalType": "address",
          "name": "_manufacturerId",
          "type": "address"
        }
      ],
      "name": "getManufacturerDetails",
      "outputs": [
        {
          "components": [
            {
              "internalType": "address",
              "name": "id",
              "type": "address"
            },
            {
              "internalType": "string",
              "name": "name",
              "type": "string"
            },
            {
              "internalType": "uint256",
              "name": "total_products",
              "type": "uint256"
            }
          ],
          "internalType": "struct DeTrace.Manufacturer",
          "name": "",
          "type": "tuple"
        }
      ],
      "stateMutability": "view",
      "type": "function",
      "constant": true
    },
    {
      "inputs": [
        {
          "internalType": "address",
          "name": "_manufacturerId",
          "type": "address"
        }
      ],
      "name": "getManufacturerInventory",
      "outputs": [
        {
          "internalType": "uint256[]",
          "name": "",
          "type": "uint256[]"
        }
      ],
      "stateMutability": "view",
      "type": "function",
      "constant": true
    },
    {
      "inputs": [
        {
          "internalType": "address",
          "name": "_retailerId",
          "type": "address"
        }
      ],
      "name": "getRetailerDetails",
      "outputs": [
        {
          "components": [
            {
              "internalType": "address",
              "name": "id",
              "type": "address"
            },
            {
              "internalType": "string",
              "name": "name",
              "type": "string"
            },
            {
              "internalType": "uint256",
              "name": "total_products",
              "type": "uint256"
            }
          ],
          "internalType": "struct DeTrace.Retailer",
          "name": "",
          "type": "tuple"
        }
      ],
      "stateMutability": "view",
      "type": "function",
      "constant": true
    },
    {
      "inputs": [
        {
          "internalType": "address",
          "name": "_retailerId",
          "type": "address"
        }
      ],
      "name": "getRetailerInventory",
      "outputs": [
        {
          "internalType": "uint256[]",
          "name": "",
          "type": "uint256[]"
        }
      ],
      "stateMutability": "view",
      "type": "function",
      "constant": true
    },
    {
      "inputs": [
        {
          "internalType": "address",
          "name": "_customerId",
          "type": "address"
        }
      ],
      "name": "getCustomerDetails",
      "outputs": [
        {
          "components": [
            {
              "internalType": "address",
              "name": "id",
              "type": "address"
            },
            {
              "internalType": "string",
              "name": "name",
              "type": "string"
            },
            {
              "internalType": "uint256",
              "name": "total_orders",
              "type": "uint256"
            }
          ],
          "internalType": "struct DeTrace.Customer",
          "name": "",
          "type": "tuple"
        }
      ],
      "stateMutability": "view",
      "type": "function",
      "constant": true
    },
    {
      "inputs": [
        {
          "internalType": "address",
          "name": "_customerId",
          "type": "address"
        }
      ],
      "name": "getCustomerOrders",
      "outputs": [
        {
          "internalType": "uint256[]",
          "name": "",
          "type": "uint256[]"
        }
      ],
      "stateMutability": "view",
      "type": "function",
      "constant": true
    },
    {
      "inputs": [
        {
          "internalType": "uint256",
          "name": "_productId",
          "type": "uint256"
        }
      ],
      "name": "getProductDetails",
      "outputs": [
        {
          "components": [
            {
              "internalType": "uint256",
              "name": "id",
              "type": "uint256"
            },
            {
              "internalType": "string",
              "name": "name",
              "type": "string"
            },
            {
              "internalType": "uint256",
              "name": "price",
              "type": "uint256"
            },
            {
              "internalType": "string",
              "name": "ipfs_hash",
              "type": "string"
            },
            {
              "internalType": "enum DeTrace.Stage",
              "name": "stage",
              "type": "uint8"
            },
            {
              "internalType": "address",
              "name": "manufacturer",
              "type": "address"
            },
            {
              "internalType": "uint256",
              "name": "total_retailers",
              "type": "uint256"
            },
            {
              "internalType": "address",
              "name": "customer",
              "type": "address"
            }
          ],
          "internalType": "struct DeTrace.Product",
          "name": "",
          "type": "tuple"
        },
        {
          "components": [
            {
              "internalType": "address",
              "name": "id",
              "type": "address"
            },
            {
              "internalType": "string",
              "name": "name",
              "type": "string"
            },
            {
              "internalType": "uint256",
              "name": "total_products",
              "type": "uint256"
            }
          ],
          "internalType": "struct DeTrace.Retailer[]",
          "name": "",
          "type": "tuple[]"
        },
        {
          "components": [
            {
              "internalType": "address",
              "name": "id",
              "type": "address"
            },
            {
              "internalType": "string",
              "name": "name",
              "type": "string"
            },
            {
              "internalType": "uint256",
              "name": "total_products",
              "type": "uint256"
            }
          ],
          "internalType": "struct DeTrace.Manufacturer",
          "name": "",
          "type": "tuple"
        },
        {
          "components": [
            {
              "internalType": "address",
              "name": "id",
              "type": "address"
            },
            {
              "internalType": "string",
              "name": "name",
              "type": "string"
            },
            {
              "internalType": "uint256",
              "name": "total_orders",
              "type": "uint256"
            }
          ],
          "internalType": "struct DeTrace.Customer",
          "name": "",
          "type": "tuple"
        }
      ],
      "stateMutability": "view",
      "type": "function",
      "constant": true
    },
    {
      "inputs": [
        {
          "internalType": "uint256",
          "name": "_productId",
          "type": "uint256"
        }
      ],
      "name": "getCurrentStatus",
      "outputs": [
        {
          "internalType": "enum DeTrace.Stage",
          "name": "",
          "type": "uint8"
        },
        {
          "internalType": "address",
          "name": "",
          "type": "address"
        },
        {
          "components": [
            {
              "internalType": "address",
              "name": "id",
              "type": "address"
            },
            {
              "internalType": "string",
              "name": "name",
              "type": "string"
            },
            {
              "internalType": "uint256",
              "name": "total_products",
              "type": "uint256"
            }
          ],
          "internalType": "struct DeTrace.Manufacturer",
          "name": "",
          "type": "tuple"
        },
        {
          "components": [
            {
              "internalType": "address",
              "name": "id",
              "type": "address"
            },
            {
              "internalType": "string",
              "name": "name",
              "type": "string"
            },
            {
              "internalType": "uint256",
              "name": "total_orders",
              "type": "uint256"
            }
          ],
          "internalType": "struct DeTrace.Customer",
          "name": "",
          "type": "tuple"
        },
        {
          "components": [
            {
              "internalType": "address",
              "name": "id",
              "type": "address"
            },
            {
              "internalType": "string",
              "name": "name",
              "type": "string"
            },
            {
              "internalType": "uint256",
              "name": "total_products",
              "type": "uint256"
            }
          ],
          "internalType": "struct DeTrace.Retailer",
          "name": "",
          "type": "tuple"
        }
      ],
      "stateMutability": "view",
      "type": "function",
      "constant": true
    },
    {
      "inputs": [
        {
          "internalType": "address",
          "name": "_user",
          "type": "address"
        }
      ],
      "name": "getUserType",
      "outputs": [
        {
          "internalType": "enum DeTrace.Role",
          "name": "",
          "type": "uint8"
        }
      ],
      "stateMutability": "view",
      "type": "function",
      "constant": true
    }
  ],
  "bytecode": "0x60806040523480156200001157600080fd5b50600080819055507f7b156246723a58575721985ed99046dbbecb42c4dc7265035b5f6e3a9ceab4dc6040516200004890620000b7565b60405180910390a1620000d9565b600082825260208201905092915050565b7f4465547261636520686173206265656e206465706c6f79656400000000000000600082015250565b60006200009f60198362000056565b9150620000ac8262000067565b602082019050919050565b60006020820190508181036000830152620000d28162000090565b9050919050565b615a1c80620000e96000396000f3fe6080604052600436106101665760003560e01c80637acc0b20116100d15780638f5ae7991161008a5780639a268f35116100645780639a268f351461061a578063a0aa13c614610659578063c29b2f201461069a578063c41381a9146106c557610166565b80638f5ae7991461057d57806395d00407146105ad57806398383922146105dd57610166565b80637acc0b20146104345780637efa6959146104785780638642269e146104a35780638ab7bada146104d35780638b3f863f146105105780638f29695a1461054d57610166565b806345b74c171161012357806345b74c17146102c1578063482f63da146102fe578063565040261461033b57806363ba8315146103785780636813b53b146103b55780636b5eb09c146103f557610166565b806303dd3d811461016b5780630756be1f1461019b5780630c60f83d146101cb57806322713cc71461020857806322f974d214610245578063336989ae14610282575b600080fd5b6101856004803603810190610180919061471a565b610702565b6040516101929190614895565b60405180910390f35b6101b560048036038101906101b091906148e3565b61089e565b6040516101c29190614a3e565b60405180910390f35b3480156101d757600080fd5b506101f260048036038101906101ed9190614a8c565b61147a565b6040516101ff9190614895565b60405180910390f35b34801561021457600080fd5b5061022f600480360381019061022a9190614a8c565b6115cb565b60405161023c9190614b09565b60405180910390f35b34801561025157600080fd5b5061026c60048036038101906102679190614a8c565b61171c565b6040516102799190614bda565b60405180910390f35b34801561028e57600080fd5b506102a960048036038101906102a49190614a8c565b6117b9565b6040516102b893929190614c64565b60405180910390f35b3480156102cd57600080fd5b506102e860048036038101906102e39190614a8c565b61188b565b6040516102f59190614bda565b60405180910390f35b34801561030a57600080fd5b5061032560048036038101906103209190614ca2565b611928565b6040516103329190614ce2565b60405180910390f35b34801561034757600080fd5b50610362600480360381019061035d9190614ca2565b611959565b60405161036f9190614ce2565b60405180910390f35b34801561038457600080fd5b5061039f600480360381019061039a9190614a8c565b61198a565b6040516103ac9190614d4d565b60405180910390f35b3480156103c157600080fd5b506103dc60048036038101906103d791906148e3565b611adb565b6040516103ec9493929190614e81565b60405180910390f35b34801561040157600080fd5b5061041c60048036038101906104179190614a8c565b611e89565b60405161042b93929190614c64565b60405180910390f35b34801561044057600080fd5b5061045b600480360381019061045691906148e3565b611f5b565b60405161046f989796959493929190614ef1565b60405180910390f35b34801561048457600080fd5b5061048d612110565b60405161049a9190614ce2565b60405180910390f35b6104bd60048036038101906104b891906148e3565b612116565b6040516104ca9190614a3e565b60405180910390f35b3480156104df57600080fd5b506104fa60048036038101906104f59190614ca2565b612eb1565b6040516105079190614ce2565b60405180910390f35b34801561051c57600080fd5b5061053760048036038101906105329190614a8c565b612ee2565b6040516105449190614fc5565b60405180910390f35b61056760048036038101906105629190614fe0565b6130ca565b6040516105749190614a3e565b60405180910390f35b6105976004803603810190610592919061471a565b613763565b6040516105a49190614b09565b60405180910390f35b6105c760048036038101906105c2919061471a565b61390a565b6040516105d49190614d4d565b60405180910390f35b3480156105e957600080fd5b5061060460048036038101906105ff9190614a8c565b613ab1565b6040516106119190614bda565b60405180910390f35b34801561062657600080fd5b50610641600480360381019061063c9190614a8c565b613b4e565b60405161065093929190614c64565b60405180910390f35b34801561066557600080fd5b50610680600480360381019061067b91906148e3565b613c20565b60405161069195949392919061506b565b60405180910390f35b3480156106a657600080fd5b506106af613fcc565b6040516106bc919061524c565b60405180910390f35b3480156106d157600080fd5b506106ec60048036038101906106e7919061526e565b614255565b6040516106f991906152ae565b60405180910390f35b61070a614351565b6000600460003373ffffffffffffffffffffffffffffffffffffffff1673ffffffffffffffffffffffffffffffffffffffff1681526020019081526020016000206001018054610759906152f8565b90501461079b576040517f08c379a00000000000000000000000000000000000000000000000000000000081526004016107929061539c565b60405180910390fd5b6107a3614351565b33816000019073ffffffffffffffffffffffffffffffffffffffff16908173ffffffffffffffffffffffffffffffffffffffff168152505082816020018190525080600460003373ffffffffffffffffffffffffffffffffffffffff1673ffffffffffffffffffffffffffffffffffffffff16815260200190815260200160002060008201518160000160006101000a81548173ffffffffffffffffffffffffffffffffffffffff021916908373ffffffffffffffffffffffffffffffffffffffff1602179055506020820151816001019080519060200190610887929190614388565b506040820151816002015590505080915050919050565b6108a661440e565b33600073ffffffffffffffffffffffffffffffffffffffff16600360008373ffffffffffffffffffffffffffffffffffffffff1673ffffffffffffffffffffffffffffffffffffffff16815260200190815260200160002060000160009054906101000a900473ffffffffffffffffffffffffffffffffffffffff1673ffffffffffffffffffffffffffffffffffffffff161415610979576040517f08c379a00000000000000000000000000000000000000000000000000000000081526004016109709061542e565b60405180910390fd5b60005483106109bd576040517f08c379a00000000000000000000000000000000000000000000000000000000081526004016109b49061549a565b60405180910390fd5b6000600184815481106109d3576109d26154ba565b5b90600052602060002090600702016040518061010001604052908160008201548152602001600182018054610a07906152f8565b80601f0160208091040260200160405190810160405280929190818152602001828054610a33906152f8565b8015610a805780601f10610a5557610100808354040283529160200191610a80565b820191906000526020600020905b815481529060010190602001808311610a6357829003601f168201915b5050505050815260200160028201548152602001600382018054610aa3906152f8565b80601f0160208091040260200160405190810160405280929190818152602001828054610acf906152f8565b8015610b1c5780601f10610af157610100808354040283529160200191610b1c565b820191906000526020600020905b815481529060010190602001808311610aff57829003601f168201915b505050505081526020016004820160009054906101000a900460ff166002811115610b4a57610b49614910565b5b6002811115610b5c57610b5b614910565b5b81526020016004820160019054906101000a900473ffffffffffffffffffffffffffffffffffffffff1673ffffffffffffffffffffffffffffffffffffffff1673ffffffffffffffffffffffffffffffffffffffff168152602001600582015481526020016006820160009054906101000a900473ffffffffffffffffffffffffffffffffffffffff1673ffffffffffffffffffffffffffffffffffffffff1673ffffffffffffffffffffffffffffffffffffffff1681525050905060006002811115610c2c57610c2b614910565b5b81608001516002811115610c4357610c42614910565b5b14610c83576040517f08c379a0000000000000000000000000000000000000000000000000000000008152600401610c7a9061555b565b60405180910390fd5b60056000858152602001908152602001600020339080600181540180825580915050600190039060005260206000200160009091909190916101000a81548173ffffffffffffffffffffffffffffffffffffffff021916908373ffffffffffffffffffffffffffffffffffffffff1602179055508060c0018051809190610d09906155aa565b81525050600181608001906002811115610d2657610d25614910565b5b90816002811115610d3a57610d39614910565b5b815250506000600260008360a0015173ffffffffffffffffffffffffffffffffffffffff1673ffffffffffffffffffffffffffffffffffffffff1681526020019081526020016000206040518060600160405290816000820160009054906101000a900473ffffffffffffffffffffffffffffffffffffffff1673ffffffffffffffffffffffffffffffffffffffff1673ffffffffffffffffffffffffffffffffffffffff168152602001600182018054610df4906152f8565b80601f0160208091040260200160405190810160405280929190818152602001828054610e20906152f8565b8015610e6d5780601f10610e4257610100808354040283529160200191610e6d565b820191906000526020600020905b815481529060010190602001808311610e5057829003601f168201915b50505050508152602001600282015481525050905060005b8160400151811015610fae5785600660008560a0015173ffffffffffffffffffffffffffffffffffffffff1673ffffffffffffffffffffffffffffffffffffffff1681526020019081526020016000208281548110610ee757610ee66154ba565b5b90600052602060002001541415610f9b57610f4481600660008660a0015173ffffffffffffffffffffffffffffffffffffffff1673ffffffffffffffffffffffffffffffffffffffff1681526020019081526020016000206142a3565b600660008560a0015173ffffffffffffffffffffffffffffffffffffffff1673ffffffffffffffffffffffffffffffffffffffff168152602001908152602001600020908054610f95929190614491565b50610fae565b8080610fa6906155aa565b915050610e85565b50600181604001818151610fc291906155f3565b9150818152505080600260008460a0015173ffffffffffffffffffffffffffffffffffffffff1673ffffffffffffffffffffffffffffffffffffffff16815260200190815260200160002060008201518160000160006101000a81548173ffffffffffffffffffffffffffffffffffffffff021916908373ffffffffffffffffffffffffffffffffffffffff1602179055506020820151816001019080519060200190611070929190614388565b5060408201518160020155905050600760003373ffffffffffffffffffffffffffffffffffffffff1673ffffffffffffffffffffffffffffffffffffffff168152602001908152602001600020826000015190806001815401808255809150506001900390600052602060002001600090919091909150556000600360003373ffffffffffffffffffffffffffffffffffffffff1673ffffffffffffffffffffffffffffffffffffffff1681526020019081526020016000206040518060600160405290816000820160009054906101000a900473ffffffffffffffffffffffffffffffffffffffff1673ffffffffffffffffffffffffffffffffffffffff1673ffffffffffffffffffffffffffffffffffffffff16815260200160018201805461119a906152f8565b80601f01602080910402602001604051908101604052809291908181526020018280546111c6906152f8565b80156112135780601f106111e857610100808354040283529160200191611213565b820191906000526020600020905b8154815290600101906020018083116111f657829003601f168201915b50505050508152602001600282015481525050905060018160400181815161123b9190615627565b9150818152505080600360003373ffffffffffffffffffffffffffffffffffffffff1673ffffffffffffffffffffffffffffffffffffffff16815260200190815260200160002060008201518160000160006101000a81548173ffffffffffffffffffffffffffffffffffffffff021916908373ffffffffffffffffffffffffffffffffffffffff16021790555060208201518160010190805190602001906112e5929190614388565b50604082015181600201559050508260018781548110611308576113076154ba565b5b906000526020600020906007020160008201518160000155602082015181600101908051906020019061133c929190614388565b50604082015181600201556060820151816003019080519060200190611363929190614388565b5060808201518160040160006101000a81548160ff0219169083600281111561138f5761138e614910565b5b021790555060a08201518160040160016101000a81548173ffffffffffffffffffffffffffffffffffffffff021916908373ffffffffffffffffffffffffffffffffffffffff16021790555060c0820151816005015560e08201518160060160006101000a81548173ffffffffffffffffffffffffffffffffffffffff021916908373ffffffffffffffffffffffffffffffffffffffff1602179055509050507fbecca2d2f326ada9f4428c9cf79b47f0fa927aacb38c32ada338ced2c0ead166868460a00151336040516114669392919061567d565b60405180910390a182945050505050919050565b611482614351565b6000600460008473ffffffffffffffffffffffffffffffffffffffff1673ffffffffffffffffffffffffffffffffffffffff1681526020019081526020016000206040518060600160405290816000820160009054906101000a900473ffffffffffffffffffffffffffffffffffffffff1673ffffffffffffffffffffffffffffffffffffffff1673ffffffffffffffffffffffffffffffffffffffff168152602001600182018054611534906152f8565b80601f0160208091040260200160405190810160405280929190818152602001828054611560906152f8565b80156115ad5780601f10611582576101008083540402835291602001916115ad565b820191906000526020600020905b81548152906001019060200180831161159057829003601f168201915b50505050508152602001600282015481525050905080915050919050565b6115d36144e3565b6000600260008473ffffffffffffffffffffffffffffffffffffffff1673ffffffffffffffffffffffffffffffffffffffff1681526020019081526020016000206040518060600160405290816000820160009054906101000a900473ffffffffffffffffffffffffffffffffffffffff1673ffffffffffffffffffffffffffffffffffffffff1673ffffffffffffffffffffffffffffffffffffffff168152602001600182018054611685906152f8565b80601f01602080910402602001604051908101604052809291908181526020018280546116b1906152f8565b80156116fe5780601f106116d3576101008083540402835291602001916116fe565b820191906000526020600020905b8154815290600101906020018083116116e157829003601f168201915b50505050508152602001600282015481525050905080915050919050565b60606000600860008473ffffffffffffffffffffffffffffffffffffffff1673ffffffffffffffffffffffffffffffffffffffff1681526020019081526020016000208054806020026020016040519081016040528092919081815260200182805480156117a957602002820191906000526020600020905b815481526020019060010190808311611795575b5050505050905080915050919050565b60046020528060005260406000206000915090508060000160009054906101000a900473ffffffffffffffffffffffffffffffffffffffff1690806001018054611802906152f8565b80601f016020809104026020016040519081016040528092919081815260200182805461182e906152f8565b801561187b5780601f106118505761010080835404028352916020019161187b565b820191906000526020600020905b81548152906001019060200180831161185e57829003601f168201915b5050505050908060020154905083565b60606000600660008473ffffffffffffffffffffffffffffffffffffffff1673ffffffffffffffffffffffffffffffffffffffff16815260200190815260200160002080548060200260200160405190810160405280929190818152602001828054801561191857602002820191906000526020600020905b815481526020019060010190808311611904575b5050505050905080915050919050565b6006602052816000526040600020818154811061194457600080fd5b90600052602060002001600091509150505481565b6008602052816000526040600020818154811061197557600080fd5b90600052602060002001600091509150505481565b61199261451a565b6000600360008473ffffffffffffffffffffffffffffffffffffffff1673ffffffffffffffffffffffffffffffffffffffff1681526020019081526020016000206040518060600160405290816000820160009054906101000a900473ffffffffffffffffffffffffffffffffffffffff1673ffffffffffffffffffffffffffffffffffffffff1673ffffffffffffffffffffffffffffffffffffffff168152602001600182018054611a44906152f8565b80601f0160208091040260200160405190810160405280929190818152602001828054611a70906152f8565b8015611abd5780601f10611a9257610100808354040283529160200191611abd565b820191906000526020600020905b815481529060010190602001808311611aa057829003601f168201915b50505050508152602001600282015481525050905080915050919050565b611ae361440e565b6060611aed6144e3565b611af5614351565b600060018681548110611b0b57611b0a6154ba565b5b90600052602060002090600702016040518061010001604052908160008201548152602001600182018054611b3f906152f8565b80601f0160208091040260200160405190810160405280929190818152602001828054611b6b906152f8565b8015611bb85780601f10611b8d57610100808354040283529160200191611bb8565b820191906000526020600020905b815481529060010190602001808311611b9b57829003601f168201915b5050505050815260200160028201548152602001600382018054611bdb906152f8565b80601f0160208091040260200160405190810160405280929190818152602001828054611c07906152f8565b8015611c545780601f10611c2957610100808354040283529160200191611c54565b820191906000526020600020905b815481529060010190602001808311611c3757829003601f168201915b505050505081526020016004820160009054906101000a900460ff166002811115611c8257611c81614910565b5b6002811115611c9457611c93614910565b5b81526020016004820160019054906101000a900473ffffffffffffffffffffffffffffffffffffffff1673ffffffffffffffffffffffffffffffffffffffff1673ffffffffffffffffffffffffffffffffffffffff168152602001600582015481526020016006820160009054906101000a900473ffffffffffffffffffffffffffffffffffffffff1673ffffffffffffffffffffffffffffffffffffffff1673ffffffffffffffffffffffffffffffffffffffff16815250509050600060056000888152602001908152602001600020805480602002602001604051908101604052809291908181526020018280548015611de557602002820191906000526020600020905b8160009054906101000a900473ffffffffffffffffffffffffffffffffffffffff1673ffffffffffffffffffffffffffffffffffffffff1681526020019060010190808311611d9b575b5050505050905060606000611dfd8460a001516115cb565b90506000611e0e8560e0015161147a565b905060005b8451811015611e7057611e3f858281518110611e3257611e316154ba565b5b602002602001015161198a565b848281518110611e5257611e516154ba565b5b60200260200101819052508080611e68906155aa565b915050611e13565b5084838383985098509850985050505050509193509193565b60026020528060005260406000206000915090508060000160009054906101000a900473ffffffffffffffffffffffffffffffffffffffff1690806001018054611ed2906152f8565b80601f0160208091040260200160405190810160405280929190818152602001828054611efe906152f8565b8015611f4b5780601f10611f2057610100808354040283529160200191611f4b565b820191906000526020600020905b815481529060010190602001808311611f2e57829003601f168201915b5050505050908060020154905083565b60018181548110611f6b57600080fd5b9060005260206000209060070201600091509050806000015490806001018054611f94906152f8565b80601f0160208091040260200160405190810160405280929190818152602001828054611fc0906152f8565b801561200d5780601f10611fe25761010080835404028352916020019161200d565b820191906000526020600020905b815481529060010190602001808311611ff057829003601f168201915b505050505090806002015490806003018054612028906152f8565b80601f0160208091040260200160405190810160405280929190818152602001828054612054906152f8565b80156120a15780601f10612076576101008083540402835291602001916120a1565b820191906000526020600020905b81548152906001019060200180831161208457829003601f168201915b5050505050908060040160009054906101000a900460ff16908060040160019054906101000a900473ffffffffffffffffffffffffffffffffffffffff16908060050154908060060160009054906101000a900473ffffffffffffffffffffffffffffffffffffffff16905088565b60005481565b61211e61440e565b33600073ffffffffffffffffffffffffffffffffffffffff16600460008373ffffffffffffffffffffffffffffffffffffffff1673ffffffffffffffffffffffffffffffffffffffff16815260200190815260200160002060000160009054906101000a900473ffffffffffffffffffffffffffffffffffffffff1673ffffffffffffffffffffffffffffffffffffffff1614156121f1576040517f08c379a00000000000000000000000000000000000000000000000000000000081526004016121e890615726565b60405180910390fd5b6000548310612235576040517f08c379a000000000000000000000000000000000000000000000000000000000815260040161222c9061549a565b60405180910390fd5b60006001848154811061224b5761224a6154ba565b5b9060005260206000209060070201604051806101000160405290816000820154815260200160018201805461227f906152f8565b80601f01602080910402602001604051908101604052809291908181526020018280546122ab906152f8565b80156122f85780601f106122cd576101008083540402835291602001916122f8565b820191906000526020600020905b8154815290600101906020018083116122db57829003601f168201915b505050505081526020016002820154815260200160038201805461231b906152f8565b80601f0160208091040260200160405190810160405280929190818152602001828054612347906152f8565b80156123945780601f1061236957610100808354040283529160200191612394565b820191906000526020600020905b81548152906001019060200180831161237757829003601f168201915b505050505081526020016004820160009054906101000a900460ff1660028111156123c2576123c1614910565b5b60028111156123d4576123d3614910565b5b81526020016004820160019054906101000a900473ffffffffffffffffffffffffffffffffffffffff1673ffffffffffffffffffffffffffffffffffffffff1673ffffffffffffffffffffffffffffffffffffffff168152602001600582015481526020016006820160009054906101000a900473ffffffffffffffffffffffffffffffffffffffff1673ffffffffffffffffffffffffffffffffffffffff1673ffffffffffffffffffffffffffffffffffffffff16815250509050600160028111156124a4576124a3614910565b5b816080015160028111156124bb576124ba614910565b5b146124fb576040517f08c379a00000000000000000000000000000000000000000000000000000000081526004016124f2906157b8565b60405180910390fd5b6000600560008360000151815260200190815260200160002060018360c0015161252591906155f3565b81548110612536576125356154ba565b5b9060005260206000200160009054906101000a900473ffffffffffffffffffffffffffffffffffffffff1690506000600360008373ffffffffffffffffffffffffffffffffffffffff1673ffffffffffffffffffffffffffffffffffffffff1681526020019081526020016000206040518060600160405290816000820160009054906101000a900473ffffffffffffffffffffffffffffffffffffffff1673ffffffffffffffffffffffffffffffffffffffff1673ffffffffffffffffffffffffffffffffffffffff168152602001600182018054612615906152f8565b80601f0160208091040260200160405190810160405280929190818152602001828054612641906152f8565b801561268e5780601f106126635761010080835404028352916020019161268e565b820191906000526020600020905b81548152906001019060200180831161267157829003601f168201915b5050505050815260200160028201548152505090506000600460003373ffffffffffffffffffffffffffffffffffffffff1673ffffffffffffffffffffffffffffffffffffffff1681526020019081526020016000206040518060600160405290816000820160009054906101000a900473ffffffffffffffffffffffffffffffffffffffff1673ffffffffffffffffffffffffffffffffffffffff1673ffffffffffffffffffffffffffffffffffffffff168152602001600182018054612755906152f8565b80601f0160208091040260200160405190810160405280929190818152602001828054612781906152f8565b80156127ce5780601f106127a3576101008083540402835291602001916127ce565b820191906000526020600020905b8154815290600101906020018083116127b157829003601f168201915b5050505050815260200160028201548152505090506002846080019060028111156127fc576127fb614910565b5b908160028111156128105761280f614910565b5b8152505080600001518460e0019073ffffffffffffffffffffffffffffffffffffffff16908173ffffffffffffffffffffffffffffffffffffffff16815250506000600560008981526020019081526020016000206001600560008b81526020019081526020016000208054905061288891906155f3565b81548110612899576128986154ba565b5b9060005260206000200160009054906101000a900473ffffffffffffffffffffffffffffffffffffffff1690506000600360008373ffffffffffffffffffffffffffffffffffffffff1673ffffffffffffffffffffffffffffffffffffffff1681526020019081526020016000206040518060600160405290816000820160009054906101000a900473ffffffffffffffffffffffffffffffffffffffff1673ffffffffffffffffffffffffffffffffffffffff1673ffffffffffffffffffffffffffffffffffffffff168152602001600182018054612978906152f8565b80601f01602080910402602001604051908101604052809291908181526020018280546129a4906152f8565b80156129f15780601f106129c6576101008083540402835291602001916129f1565b820191906000526020600020905b8154815290600101906020018083116129d457829003601f168201915b50505050508152602001600282015481525050905060005b8160400151811015612b265789600760008573ffffffffffffffffffffffffffffffffffffffff1673ffffffffffffffffffffffffffffffffffffffff1681526020019081526020016000208281548110612a6757612a666154ba565b5b90600052602060002001541415612b1357612ac081600760008673ffffffffffffffffffffffffffffffffffffffff1673ffffffffffffffffffffffffffffffffffffffff1681526020019081526020016000206142a3565b600760008573ffffffffffffffffffffffffffffffffffffffff1673ffffffffffffffffffffffffffffffffffffffff168152602001908152602001600020908054612b0d929190614491565b50612b26565b8080612b1e906155aa565b915050612a09565b50600181604001818151612b3a91906155f3565b9150818152505080600360008473ffffffffffffffffffffffffffffffffffffffff1673ffffffffffffffffffffffffffffffffffffffff16815260200190815260200160002060008201518160000160006101000a81548173ffffffffffffffffffffffffffffffffffffffff021916908373ffffffffffffffffffffffffffffffffffffffff1602179055506020820151816001019080519060200190612be4929190614388565b5060408201518160020155905050600860003373ffffffffffffffffffffffffffffffffffffffff1673ffffffffffffffffffffffffffffffffffffffff16815260200190815260200160002086600001519080600181540180825580915050600190039060005260206000200160009091909190915055600183604001818151612c6f9190615627565b9150818152505082600460003373ffffffffffffffffffffffffffffffffffffffff1673ffffffffffffffffffffffffffffffffffffffff16815260200190815260200160002060008201518160000160006101000a81548173ffffffffffffffffffffffffffffffffffffffff021916908373ffffffffffffffffffffffffffffffffffffffff1602179055506020820151816001019080519060200190612d19929190614388565b50604082015181600201559050508560018a81548110612d3c57612d3b6154ba565b5b9060005260206000209060070201600082015181600001556020820151816001019080519060200190612d70929190614388565b50604082015181600201556060820151816003019080519060200190612d97929190614388565b5060808201518160040160006101000a81548160ff02191690836002811115612dc357612dc2614910565b5b021790555060a08201518160040160016101000a81548173ffffffffffffffffffffffffffffffffffffffff021916908373ffffffffffffffffffffffffffffffffffffffff16021790555060c0820151816005015560e08201518160060160006101000a81548173ffffffffffffffffffffffffffffffffffffffff021916908373ffffffffffffffffffffffffffffffffffffffff1602179055509050507f41ead87203d5b5ee8e9a8625ba6db3143d789ed55263a7bfb72626e95348f4f689856000015133604051612e9a9392919061567d565b60405180910390a185975050505050505050919050565b60076020528160005260406000208181548110612ecd57600080fd5b90600052602060002001600091509150505481565b60008073ffffffffffffffffffffffffffffffffffffffff16600260008473ffffffffffffffffffffffffffffffffffffffff1673ffffffffffffffffffffffffffffffffffffffff16815260200190815260200160002060000160009054906101000a900473ffffffffffffffffffffffffffffffffffffffff1673ffffffffffffffffffffffffffffffffffffffff1614612f8257600090506130c5565b600073ffffffffffffffffffffffffffffffffffffffff16600360008473ffffffffffffffffffffffffffffffffffffffff1673ffffffffffffffffffffffffffffffffffffffff16815260200190815260200160002060000160009054906101000a900473ffffffffffffffffffffffffffffffffffffffff1673ffffffffffffffffffffffffffffffffffffffff161461302157600190506130c5565b600073ffffffffffffffffffffffffffffffffffffffff16600460008473ffffffffffffffffffffffffffffffffffffffff1673ffffffffffffffffffffffffffffffffffffffff16815260200190815260200160002060000160009054906101000a900473ffffffffffffffffffffffffffffffffffffffff1673ffffffffffffffffffffffffffffffffffffffff16146130c057600290506130c5565b600390505b919050565b6130d261440e565b33600073ffffffffffffffffffffffffffffffffffffffff16600260008373ffffffffffffffffffffffffffffffffffffffff1673ffffffffffffffffffffffffffffffffffffffff16815260200190815260200160002060000160009054906101000a900473ffffffffffffffffffffffffffffffffffffffff1673ffffffffffffffffffffffffffffffffffffffff1614156131a5576040517f08c379a000000000000000000000000000000000000000000000000000000000815260040161319c9061584a565b60405180910390fd5b600073ffffffffffffffffffffffffffffffffffffffff16600260003373ffffffffffffffffffffffffffffffffffffffff1673ffffffffffffffffffffffffffffffffffffffff16815260200190815260200160002060000160009054906101000a900473ffffffffffffffffffffffffffffffffffffffff1673ffffffffffffffffffffffffffffffffffffffff161415613277576040517f08c379a000000000000000000000000000000000000000000000000000000000815260040161326e906158dc565b60405180910390fd5b6000600260003373ffffffffffffffffffffffffffffffffffffffff1673ffffffffffffffffffffffffffffffffffffffff1681526020019081526020016000206040518060600160405290816000820160009054906101000a900473ffffffffffffffffffffffffffffffffffffffff1673ffffffffffffffffffffffffffffffffffffffff1673ffffffffffffffffffffffffffffffffffffffff168152602001600182018054613329906152f8565b80601f0160208091040260200160405190810160405280929190818152602001828054613355906152f8565b80156133a25780601f10613377576101008083540402835291602001916133a2565b820191906000526020600020905b81548152906001019060200180831161338557829003601f168201915b5050505050815260200160028201548152505090506133bf61440e565b6000548160000181815250508681602001819052508581604001818152505084816060018190525081600001518160a0019073ffffffffffffffffffffffffffffffffffffffff16908173ffffffffffffffffffffffffffffffffffffffff168152505060008160800190600281111561343c5761343b614910565b5b908160028111156134505761344f614910565b5b8152505060008160c001818152505060018190806001815401808255809150506001900390600052602060002090600702016000909190919091506000820151816000015560208201518160010190805190602001906134b1929190614388565b506040820151816002015560608201518160030190805190602001906134d8929190614388565b5060808201518160040160006101000a81548160ff0219169083600281111561350457613503614910565b5b021790555060a08201518160040160016101000a81548173ffffffffffffffffffffffffffffffffffffffff021916908373ffffffffffffffffffffffffffffffffffffffff16021790555060c0820151816005015560e08201518160060160006101000a81548173ffffffffffffffffffffffffffffffffffffffff021916908373ffffffffffffffffffffffffffffffffffffffff160217905550505060016000808282546135b59190615627565b92505081905550600660003373ffffffffffffffffffffffffffffffffffffffff1673ffffffffffffffffffffffffffffffffffffffff168152602001908152602001600020816000015190806001815401808255809150506001900390600052602060002001600090919091909150556001826040018181516136399190615627565b9150818152505081600260003373ffffffffffffffffffffffffffffffffffffffff1673ffffffffffffffffffffffffffffffffffffffff16815260200190815260200160002060008201518160000160006101000a81548173ffffffffffffffffffffffffffffffffffffffff021916908373ffffffffffffffffffffffffffffffffffffffff16021790555060208201518160010190805190602001906136e3929190614388565b506040820151816002015590505060096005600083600001518152602001908152602001600020908054613718929190614551565b507f7729e6201ef9e0ddfbfd62dadbf36f7a731e6667ccb2411649655c253f3555b781600001513360405161374e9291906158fc565b60405180910390a18093505050509392505050565b61376b6144e3565b6000600260003373ffffffffffffffffffffffffffffffffffffffff1673ffffffffffffffffffffffffffffffffffffffff16815260200190815260200160002060010180546137ba906152f8565b9050146137fc576040517f08c379a00000000000000000000000000000000000000000000000000000000081526004016137f390615997565b60405180910390fd5b6138046144e3565b33816000019073ffffffffffffffffffffffffffffffffffffffff16908173ffffffffffffffffffffffffffffffffffffffff1681525050828160200181905250600081604001818152505080600260003373ffffffffffffffffffffffffffffffffffffffff1673ffffffffffffffffffffffffffffffffffffffff16815260200190815260200160002060008201518160000160006101000a81548173ffffffffffffffffffffffffffffffffffffffff021916908373ffffffffffffffffffffffffffffffffffffffff16021790555060208201518160010190805190602001906138f3929190614388565b506040820151816002015590505080915050919050565b61391261451a565b6000600360003373ffffffffffffffffffffffffffffffffffffffff1673ffffffffffffffffffffffffffffffffffffffff1681526020019081526020016000206001018054613961906152f8565b9050146139a3576040517f08c379a000000000000000000000000000000000000000000000000000000000815260040161399a9061539c565b60405180910390fd5b6139ab61451a565b33816000019073ffffffffffffffffffffffffffffffffffffffff16908173ffffffffffffffffffffffffffffffffffffffff1681525050828160200181905250600081604001818152505080600360003373ffffffffffffffffffffffffffffffffffffffff1673ffffffffffffffffffffffffffffffffffffffff16815260200190815260200160002060008201518160000160006101000a81548173ffffffffffffffffffffffffffffffffffffffff021916908373ffffffffffffffffffffffffffffffffffffffff1602179055506020820151816001019080519060200190613a9a929190614388565b506040820151816002015590505080915050919050565b60606000600760008473ffffffffffffffffffffffffffffffffffffffff1673ffffffffffffffffffffffffffffffffffffffff168152602001908152602001600020805480602002602001604051908101604052809291908181526020018280548015613b3e57602002820191906000526020600020905b815481526020019060010190808311613b2a575b5050505050905080915050919050565b60036020528060005260406000206000915090508060000160009054906101000a900473ffffffffffffffffffffffffffffffffffffffff1690806001018054613b97906152f8565b80601f0160208091040260200160405190810160405280929190818152602001828054613bc3906152f8565b8015613c105780601f10613be557610100808354040283529160200191613c10565b820191906000526020600020905b815481529060010190602001808311613bf357829003601f168201915b5050505050908060020154905083565b600080613c2b6144e3565b613c33614351565b613c3b61451a565b60008060018881548110613c5257613c516154ba565b5b90600052602060002090600702016040518061010001604052908160008201548152602001600182018054613c86906152f8565b80601f0160208091040260200160405190810160405280929190818152602001828054613cb2906152f8565b8015613cff5780601f10613cd457610100808354040283529160200191613cff565b820191906000526020600020905b815481529060010190602001808311613ce257829003601f168201915b5050505050815260200160028201548152602001600382018054613d22906152f8565b80601f0160208091040260200160405190810160405280929190818152602001828054613d4e906152f8565b8015613d9b5780601f10613d7057610100808354040283529160200191613d9b565b820191906000526020600020905b815481529060010190602001808311613d7e57829003601f168201915b505050505081526020016004820160009054906101000a900460ff166002811115613dc957613dc8614910565b5b6002811115613ddb57613dda614910565b5b81526020016004820160019054906101000a900473ffffffffffffffffffffffffffffffffffffffff1673ffffffffffffffffffffffffffffffffffffffff1673ffffffffffffffffffffffffffffffffffffffff168152602001600582015481526020016006820160009054906101000a900473ffffffffffffffffffffffffffffffffffffffff1673ffffffffffffffffffffffffffffffffffffffff1673ffffffffffffffffffffffffffffffffffffffff16815250509050600081608001519050613ea86144e3565b613eb0614351565b613eb861451a565b60006002811115613ecc57613ecb614910565b5b846002811115613edf57613ede614910565b5b1415613efc578460a001519550613ef5866115cb565b9250613fae565b600280811115613f0f57613f0e614910565b5b846002811115613f2257613f21614910565b5b1415613f3f578460e001519550613f388661147a565b9150613fad565b600560008d815260200190815260200160002060018660c00151613f6391906155f3565b81548110613f7457613f736154ba565b5b9060005260206000200160009054906101000a900473ffffffffffffffffffffffffffffffffffffffff169550613faa8661198a565b90505b5b83868484849a509a509a509a509a5050505050505091939590929450565b60606001805480602002602001604051908101604052809291908181526020016000905b8282101561424c5783829060005260206000209060070201604051806101000160405290816000820154815260200160018201805461402e906152f8565b80601f016020809104026020016040519081016040528092919081815260200182805461405a906152f8565b80156140a75780601f1061407c576101008083540402835291602001916140a7565b820191906000526020600020905b81548152906001019060200180831161408a57829003601f168201915b50505050508152602001600282015481526020016003820180546140ca906152f8565b80601f01602080910402602001604051908101604052809291908181526020018280546140f6906152f8565b80156141435780601f1061411857610100808354040283529160200191614143565b820191906000526020600020905b81548152906001019060200180831161412657829003601f168201915b505050505081526020016004820160009054906101000a900460ff16600281111561417157614170614910565b5b600281111561418357614182614910565b5b81526020016004820160019054906101000a900473ffffffffffffffffffffffffffffffffffffffff1673ffffffffffffffffffffffffffffffffffffffff1673ffffffffffffffffffffffffffffffffffffffff168152602001600582015481526020016006820160009054906101000a900473ffffffffffffffffffffffffffffffffffffffff1673ffffffffffffffffffffffffffffffffffffffff1673ffffffffffffffffffffffffffffffffffffffff168152505081526020019060010190613ff0565b50505050905090565b6005602052816000526040600020818154811061427157600080fd5b906000526020600020016000915091509054906101000a900473ffffffffffffffffffffffffffffffffffffffff1681565b6000808390505b600183805490506142bb91906155f3565b81101561432057826001826142d09190615627565b815481106142e1576142e06154ba565b5b90600052602060002001548382815481106142ff576142fe6154ba565b5b90600052602060002001819055508080614318906155aa565b9150506142aa565b5081805480614332576143316159b7565b5b6001900381819060005260206000200160009055905581905092915050565b6040518060600160405280600073ffffffffffffffffffffffffffffffffffffffff16815260200160608152602001600081525090565b828054614394906152f8565b90600052602060002090601f0160209004810192826143b657600085556143fd565b82601f106143cf57805160ff19168380011785556143fd565b828001600101855582156143fd579182015b828111156143fc5782518255916020019190600101906143e1565b5b50905061440a91906145a3565b5090565b604051806101000160405280600081526020016060815260200160008152602001606081526020016000600281111561444a57614449614910565b5b8152602001600073ffffffffffffffffffffffffffffffffffffffff16815260200160008152602001600073ffffffffffffffffffffffffffffffffffffffff1681525090565b8280548282559060005260206000209081019282156144d25760005260206000209182015b828111156144d15782548255916001019190600101906144b6565b5b5090506144df91906145a3565b5090565b6040518060600160405280600073ffffffffffffffffffffffffffffffffffffffff16815260200160608152602001600081525090565b6040518060600160405280600073ffffffffffffffffffffffffffffffffffffffff16815260200160608152602001600081525090565b8280548282559060005260206000209081019282156145925760005260206000209182015b82811115614591578254825591600101919060010190614576565b5b50905061459f91906145a3565b5090565b5b808211156145bc5760008160009055506001016145a4565b5090565b6000604051905090565b600080fd5b600080fd5b600080fd5b600080fd5b6000601f19601f8301169050919050565b7f4e487b7100000000000000000000000000000000000000000000000000000000600052604160045260246000fd5b614627826145de565b810181811067ffffffffffffffff82111715614646576146456145ef565b5b80604052505050565b60006146596145c0565b9050614665828261461e565b919050565b600067ffffffffffffffff821115614685576146846145ef565b5b61468e826145de565b9050602081019050919050565b82818337600083830152505050565b60006146bd6146b88461466a565b61464f565b9050828152602081018484840111156146d9576146d86145d9565b5b6146e484828561469b565b509392505050565b600082601f830112614701576147006145d4565b5b81356147118482602086016146aa565b91505092915050565b6000602082840312156147305761472f6145ca565b5b600082013567ffffffffffffffff81111561474e5761474d6145cf565b5b61475a848285016146ec565b91505092915050565b600073ffffffffffffffffffffffffffffffffffffffff82169050919050565b600061478e82614763565b9050919050565b61479e81614783565b82525050565b600081519050919050565b600082825260208201905092915050565b60005b838110156147de5780820151818401526020810190506147c3565b838111156147ed576000848401525b50505050565b60006147fe826147a4565b61480881856147af565b93506148188185602086016147c0565b614821816145de565b840191505092915050565b6000819050919050565b61483f8161482c565b82525050565b600060608301600083015161485d6000860182614795565b506020830151848203602086015261487582826147f3565b915050604083015161488a6040860182614836565b508091505092915050565b600060208201905081810360008301526148af8184614845565b905092915050565b6148c08161482c565b81146148cb57600080fd5b50565b6000813590506148dd816148b7565b92915050565b6000602082840312156148f9576148f86145ca565b5b6000614907848285016148ce565b91505092915050565b7f4e487b7100000000000000000000000000000000000000000000000000000000600052602160045260246000fd5b600381106149505761494f614910565b5b50565b60008190506149618261493f565b919050565b600061497182614953565b9050919050565b61498181614966565b82525050565b6000610100830160008301516149a06000860182614836565b50602083015184820360208601526149b882826147f3565b91505060408301516149cd6040860182614836565b50606083015184820360608601526149e582826147f3565b91505060808301516149fa6080860182614978565b5060a0830151614a0d60a0860182614795565b5060c0830151614a2060c0860182614836565b5060e0830151614a3360e0860182614795565b508091505092915050565b60006020820190508181036000830152614a588184614987565b905092915050565b614a6981614783565b8114614a7457600080fd5b50565b600081359050614a8681614a60565b92915050565b600060208284031215614aa257614aa16145ca565b5b6000614ab084828501614a77565b91505092915050565b6000606083016000830151614ad16000860182614795565b5060208301518482036020860152614ae982826147f3565b9150506040830151614afe6040860182614836565b508091505092915050565b60006020820190508181036000830152614b238184614ab9565b905092915050565b600081519050919050565b600082825260208201905092915050565b6000819050602082019050919050565b6000614b638383614836565b60208301905092915050565b6000602082019050919050565b6000614b8782614b2b565b614b918185614b36565b9350614b9c83614b47565b8060005b83811015614bcd578151614bb48882614b57565b9750614bbf83614b6f565b925050600181019050614ba0565b5085935050505092915050565b60006020820190508181036000830152614bf48184614b7c565b905092915050565b614c0581614783565b82525050565b600082825260208201905092915050565b6000614c27826147a4565b614c318185614c0b565b9350614c418185602086016147c0565b614c4a816145de565b840191505092915050565b614c5e8161482c565b82525050565b6000606082019050614c796000830186614bfc565b8181036020830152614c8b8185614c1c565b9050614c9a6040830184614c55565b949350505050565b60008060408385031215614cb957614cb86145ca565b5b6000614cc785828601614a77565b9250506020614cd8858286016148ce565b9150509250929050565b6000602082019050614cf76000830184614c55565b92915050565b6000606083016000830151614d156000860182614795565b5060208301518482036020860152614d2d82826147f3565b9150506040830151614d426040860182614836565b508091505092915050565b60006020820190508181036000830152614d678184614cfd565b905092915050565b600081519050919050565b600082825260208201905092915050565b6000819050602082019050919050565b6000606083016000830151614db36000860182614795565b5060208301518482036020860152614dcb82826147f3565b9150506040830151614de06040860182614836565b508091505092915050565b6000614df78383614d9b565b905092915050565b6000602082019050919050565b6000614e1782614d6f565b614e218185614d7a565b935083602082028501614e3385614d8b565b8060005b85811015614e6f5784840389528151614e508582614deb565b9450614e5b83614dff565b925060208a01995050600181019050614e37565b50829750879550505050505092915050565b60006080820190508181036000830152614e9b8187614987565b90508181036020830152614eaf8186614e0c565b90508181036040830152614ec38185614ab9565b90508181036060830152614ed78184614845565b905095945050505050565b614eeb81614966565b82525050565b600061010082019050614f07600083018b614c55565b8181036020830152614f19818a614c1c565b9050614f286040830189614c55565b8181036060830152614f3a8188614c1c565b9050614f496080830187614ee2565b614f5660a0830186614bfc565b614f6360c0830185614c55565b614f7060e0830184614bfc565b9998505050505050505050565b60048110614f8e57614f8d614910565b5b50565b6000819050614f9f82614f7d565b919050565b6000614faf82614f91565b9050919050565b614fbf81614fa4565b82525050565b6000602082019050614fda6000830184614fb6565b92915050565b600080600060608486031215614ff957614ff86145ca565b5b600084013567ffffffffffffffff811115615017576150166145cf565b5b615023868287016146ec565b9350506020615034868287016148ce565b925050604084013567ffffffffffffffff811115615055576150546145cf565b5b615061868287016146ec565b9150509250925092565b600060a0820190506150806000830188614ee2565b61508d6020830187614bfc565b818103604083015261509f8186614ab9565b905081810360608301526150b38185614845565b905081810360808301526150c78184614cfd565b90509695505050505050565b600081519050919050565b600082825260208201905092915050565b6000819050602082019050919050565b6000610100830160008301516151186000860182614836565b506020830151848203602086015261513082826147f3565b91505060408301516151456040860182614836565b506060830151848203606086015261515d82826147f3565b91505060808301516151726080860182614978565b5060a083015161518560a0860182614795565b5060c083015161519860c0860182614836565b5060e08301516151ab60e0860182614795565b508091505092915050565b60006151c283836150ff565b905092915050565b6000602082019050919050565b60006151e2826150d3565b6151ec81856150de565b9350836020820285016151fe856150ef565b8060005b8581101561523a578484038952815161521b85826151b6565b9450615226836151ca565b925060208a01995050600181019050615202565b50829750879550505050505092915050565b6000602082019050818103600083015261526681846151d7565b905092915050565b60008060408385031215615285576152846145ca565b5b6000615293858286016148ce565b92505060206152a4858286016148ce565b9150509250929050565b60006020820190506152c36000830184614bfc565b92915050565b7f4e487b7100000000000000000000000000000000000000000000000000000000600052602260045260246000fd5b6000600282049050600182168061531057607f821691505b60208210811415615324576153236152c9565b5b50919050565b7f54686973206164647265737320697320616c726561647920726567697374657260008201527f65642061732072657461696c6572000000000000000000000000000000000000602082015250565b6000615386602e83614c0b565b91506153918261532a565b604082019050919050565b600060208201905081810360008301526153b581615379565b9050919050565b7f4f6e6c792072657461696c6572732063616e20706572666f726d20746869732060008201527f616374696f6e0000000000000000000000000000000000000000000000000000602082015250565b6000615418602683614c0b565b9150615423826153bc565b604082019050919050565b600060208201905081810360008301526154478161540b565b9050919050565b7f50726f6475637420646f6573206e6f7420657869737400000000000000000000600082015250565b6000615484601683614c0b565b915061548f8261544e565b602082019050919050565b600060208201905081810360008301526154b381615477565b9050919050565b7f4e487b7100000000000000000000000000000000000000000000000000000000600052603260045260246000fd5b7f50726f6475637420686173206265656e2072656c6561736564206f7220736f6c60008201527f6400000000000000000000000000000000000000000000000000000000000000602082015250565b6000615545602183614c0b565b9150615550826154e9565b604082019050919050565b6000602082019050818103600083015261557481615538565b9050919050565b7f4e487b7100000000000000000000000000000000000000000000000000000000600052601160045260246000fd5b60006155b58261482c565b91507fffffffffffffffffffffffffffffffffffffffffffffffffffffffffffffffff8214156155e8576155e761557b565b5b600182019050919050565b60006155fe8261482c565b91506156098361482c565b92508282101561561c5761561b61557b565b5b828203905092915050565b60006156328261482c565b915061563d8361482c565b9250827fffffffffffffffffffffffffffffffffffffffffffffffffffffffffffffffff038211156156725761567161557b565b5b828201905092915050565b60006060820190506156926000830186614c55565b61569f6020830185614bfc565b6156ac6040830184614bfc565b949350505050565b7f4f6e6c7920637573746f6d6572732063616e20706572666f726d20746869732060008201527f616374696f6e0000000000000000000000000000000000000000000000000000602082015250565b6000615710602683614c0b565b915061571b826156b4565b604082019050919050565b6000602082019050818103600083015261573f81615703565b9050919050565b7f50726f6475637420686173206e6f74206265656e2072656c6561736564206f7260008201527f20686173206265656e20616c726561647920736f6c6400000000000000000000602082015250565b60006157a2603683614c0b565b91506157ad82615746565b604082019050919050565b600060208201905081810360008301526157d181615795565b9050919050565b7f4f6e6c79206d616e756661637475726572732063616e20706572666f726d207460008201527f68697320616374696f6e00000000000000000000000000000000000000000000602082015250565b6000615834602a83614c0b565b915061583f826157d8565b604082019050919050565b6000602082019050818103600083015261586381615827565b9050919050565b7f4f6e6c79206d616e756661637475726572732063616e206164642070726f647560008201527f6374000000000000000000000000000000000000000000000000000000000000602082015250565b60006158c6602283614c0b565b91506158d18261586a565b604082019050919050565b600060208201905081810360008301526158f5816158b9565b9050919050565b60006040820190506159116000830185614c55565b61591e6020830184614bfc565b9392505050565b7f54686973206164647265737320697320616c726561647920726567697374657260008201527f6564206173206d616e7566616374757265720000000000000000000000000000602082015250565b6000615981603283614c0b565b915061598c82615925565b604082019050919050565b600060208201905081810360008301526159b081615974565b9050919050565b7f4e487b7100000000000000000000000000000000000000000000000000000000600052603160045260246000fdfea264697066735822122056f9b788a55e3912bfcae596606040beb62a1dd2bed9a8b3cda6f6ee1cc7b49964736f6c634300080b0033",
  "immutableReferences": {},
  "source": "// SPDX-License-Identifier: MIT\r\npragma solidity >=0.4.22 <0.9.0;\r\n\r\ncontract DeTrace {\r\n\r\n  enum Role{\r\n    manufacturer,\r\n    retailer,\r\n    customer,\r\n    not_registered\r\n  }\r\n\r\n  enum Stage{\r\n    manufactured,\r\n    released,\r\n    sold\r\n  }\r\n\r\n  struct Product{\r\n    uint256 id;\r\n    string name;\r\n    uint price;\r\n    string ipfs_hash;\r\n    Stage stage;\r\n    address manufacturer;\r\n    uint total_retailers;\r\n    address customer;\r\n  }\r\n\r\n  struct Manufacturer{\r\n    address id;\r\n    string name;\r\n    uint total_products;\r\n  }\r\n\r\n  struct Retailer{\r\n    address id;\r\n    string name;\r\n    uint total_products;\r\n  }\r\n\r\n  struct Customer{\r\n    address id;\r\n    string name;\r\n    uint total_orders;\r\n  }\r\n\r\n  uint256 public total_products;\r\n  Product[] public products;\r\n  mapping(address => Manufacturer) public manufacturers;\r\n  mapping(address => Retailer) public retailers;\r\n  mapping(address => Customer) public customers;\r\n  mapping(uint => address[]) public Product_Retailers;\r\n\r\n  mapping(address=>uint[]) public manufacturer_inventory;\r\n  mapping(address=>uint[]) public retailer_inventory;\r\n  mapping(address=>uint[]) public customer_orders;\r\n\r\n  address[] address_array;\r\n\r\n  event DeTrace_deployed(string _message);\r\n  event Product_Added(uint _productId,address _manufacturerAddress);\r\n  event Product_Released(uint _productId, address _manufacturerAddress, address _retailerAddress);\r\n  event Product_Sold(uint _productId, address _retailerAddress, address _customerAddress);\r\n\r\n  constructor(){\r\n    total_products = 0;\r\n    emit DeTrace_deployed('DeTrace has been deployed');\r\n  }\r\n\r\n  modifier isManufacturer(address _manufacturerAddress){\r\n    require(manufacturers[_manufacturerAddress].id != address(0x0), 'Only manufacturers can perform this action');\r\n    _;\r\n  }\r\n\r\n  modifier isRetailer(address _retailerAddress){\r\n    require(retailers[_retailerAddress].id != address(0x0), 'Only retailers can perform this action');\r\n    _;\r\n  }\r\n\r\n  modifier isCustomer(address _customerAddress){\r\n    require(customers[_customerAddress].id != address(0x0), 'Only customers can perform this action');\r\n    _;\r\n  }\r\n\r\n  function removeElement(uint index, uint[] storage array) internal returns(uint[] storage){\r\n    for (uint i = index; i<array.length-1; i++){\r\n      array[i] = array[i+1];\r\n    }\r\n    array.pop();\r\n    return array;\r\n  }\r\n\r\n  function getProducts() public view returns(Product[] memory){\r\n    return products;\r\n  }\r\n\r\n  function addManufacturer(string memory _name) public payable returns (Manufacturer memory){\r\n    \r\n    require(bytes(manufacturers[msg.sender].name).length == 0 , 'This address is already registered as manufacturer');\r\n\r\n    Manufacturer memory _manufacturer;\r\n    _manufacturer.id = msg.sender;\r\n    _manufacturer.name = _name;\r\n    _manufacturer.total_products = 0;\r\n\r\n    manufacturers[msg.sender] = _manufacturer;\r\n\r\n    return _manufacturer;\r\n  }\r\n\r\n  function addRetailer(string memory _name) public payable returns (Retailer memory){\r\n    \r\n    require(bytes(retailers[msg.sender].name).length == 0 , 'This address is already registered as retailer');\r\n\r\n    Retailer memory _retailer;\r\n    _retailer.id = msg.sender;\r\n    _retailer.name = _name;\r\n    _retailer.total_products = 0;\r\n\r\n    retailers[msg.sender] = _retailer;\r\n\r\n    return _retailer;\r\n  }  \r\n\r\n  function addCustomer(string memory _name) public payable returns (Customer memory){\r\n    \r\n    require(bytes(customers[msg.sender].name).length == 0 , 'This address is already registered as retailer');\r\n\r\n    Customer memory _customer;\r\n    _customer.id = msg.sender;\r\n    _customer.name = _name;\r\n\r\n    customers[msg.sender] = _customer;\r\n\r\n    return _customer;\r\n  }\r\n\r\n  function addProduct(string memory _name, uint _price, string memory _ipfs_hash) public isManufacturer(msg.sender) payable returns(Product memory){\r\n\r\n    require(manufacturers[msg.sender].id != address(0), 'Only manufacturers can add product');\r\n\r\n    //get the manufacturer\r\n    Manufacturer memory _manufacturer = manufacturers[msg.sender];\r\n    \r\n    //create the product\r\n    Product memory _product;\r\n    _product.id = total_products;\r\n    _product.name = _name;\r\n    _product.price = _price;\r\n    _product.ipfs_hash = _ipfs_hash;\r\n    _product.manufacturer = _manufacturer.id;\r\n    _product.stage = Stage.manufactured;\r\n    _product.total_retailers = 0;\r\n\r\n    //add the product to records\r\n    products.push(_product);\r\n    total_products += 1;\r\n\r\n    //add the product to the manufacturer inventory records\r\n    manufacturer_inventory[msg.sender].push(_product.id);\r\n    _manufacturer.total_products += 1;\r\n    manufacturers[msg.sender] = _manufacturer;\r\n\r\n    //Add into proper mappings\r\n    Product_Retailers[_product.id] = address_array;\r\n\r\n    emit Product_Added(_product.id, msg.sender);\r\n\r\n    return _product;\r\n  }\r\n\r\n  function releaseProduct(uint _productId) public isRetailer(msg.sender) payable returns (Product memory){\r\n\r\n    require(_productId < total_products,'Product does not exist');\r\n\r\n    //Get the product\r\n    Product memory _product = products[_productId];\r\n\r\n    //check if the product has already been released or manufactured\r\n    require(_product.stage == Stage.manufactured, 'Product has been released or sold');\r\n\r\n    //Shift ownership from manufacturer to retailer\r\n    Product_Retailers[_productId].push(msg.sender);\r\n    _product.total_retailers++;\r\n    _product.stage = Stage.released;\r\n\r\n    //Remove the element from the inventory of manufacturer and update count\r\n    Manufacturer memory _manufacturer = manufacturers[_product.manufacturer];\r\n    for(uint i=0; i<_manufacturer.total_products; i++){\r\n      if(manufacturer_inventory[_product.manufacturer][i] == _productId ) {\r\n        manufacturer_inventory[_product.manufacturer] = removeElement(i, manufacturer_inventory[_product.manufacturer]);\r\n        // delete manufacturer_inventory[_product.manufacturer][i];\r\n        break;\r\n      }\r\n    }\r\n    _manufacturer.total_products -= 1;\r\n    manufacturers[_product.manufacturer] = _manufacturer;\r\n\r\n    //Add the product to retailer's inventory and update count\r\n    retailer_inventory[msg.sender].push(_product.id);\r\n    Retailer memory _retailer = retailers[msg.sender];\r\n    _retailer.total_products += 1;\r\n    retailers[msg.sender] = _retailer;\r\n\r\n    //save the updated product details\r\n    products[_productId] = _product;\r\n\r\n    emit Product_Released(_productId, _product.manufacturer, msg.sender);\r\n\r\n    return _product;\r\n  }\r\n\r\n  function buyProduct(uint _productId) public isCustomer(msg.sender) payable returns (Product memory){\r\n    require(_productId < total_products,'Product does not exist');\r\n\r\n    //Get the product\r\n    Product memory _product = products[_productId];\r\n\r\n    //check if the product has already been released or manufactured\r\n    require(_product.stage == Stage.released, 'Product has not been released or has been already sold');\r\n\r\n    //Get the details of the retailer who is selling\r\n    address _retailerId = Product_Retailers[_product.id][_product.total_retailers - 1];\r\n    Retailer memory _retailer = retailers[_retailerId];\r\n    \r\n    //Get the details of the customer\r\n    Customer memory _customer = customers[msg.sender];\r\n\r\n    //Shift ownership from retailer to customer\r\n    _product.stage = Stage.sold;\r\n    _product.customer = _customer.id;\r\n  \r\n    //Remove the element from the inventory of retailer and update count\r\n    address _current_retailer_address = Product_Retailers[_productId][Product_Retailers[_productId].length - 1];\r\n    Retailer memory _current_retailer = retailers[_current_retailer_address];\r\n    for(uint i=0; i<_current_retailer.total_products; i++){\r\n      if(retailer_inventory[_current_retailer_address][i] == _productId){\r\n        retailer_inventory[_current_retailer_address] = removeElement(i, retailer_inventory[_current_retailer_address]);\r\n        // delete retailer_inventory[_current_retailer_address][i];\r\n        break; \r\n      }\r\n    }\r\n    _current_retailer.total_products -= 1;\r\n    retailers[_current_retailer_address] = _current_retailer;\r\n\r\n    //Add the product to customer's orders and update count\r\n    customer_orders[msg.sender].push(_product.id);\r\n    _customer.total_orders += 1;\r\n    customers[msg.sender] = _customer;\r\n\r\n    //save the updated product details\r\n    products[_productId] = _product;\r\n\r\n    emit Product_Sold(_productId, _retailer.id, msg.sender);\r\n  \r\n    return _product;\r\n  }\r\n\r\n  function getManufacturerDetails(address _manufacturerId) public view returns(Manufacturer memory){\r\n    Manufacturer memory _manufacturer = manufacturers[_manufacturerId];\r\n    return _manufacturer;\r\n  }\r\n\r\n  function getManufacturerInventory(address _manufacturerId) public view returns(uint[] memory){\r\n    uint[] memory _product_ids = manufacturer_inventory[_manufacturerId];\r\n    return _product_ids;\r\n  }\r\n\r\n  function getRetailerDetails(address _retailerId) public view returns(Retailer memory){\r\n    Retailer memory _retailer = retailers[_retailerId];\r\n    return _retailer;\r\n  }\r\n\r\n  function getRetailerInventory(address _retailerId) public view returns(uint[] memory){   \r\n    uint[] memory _product_ids = retailer_inventory[_retailerId];\r\n    return _product_ids;\r\n  }\r\n\r\n  function getCustomerDetails(address _customerId) public view returns(Customer memory){\r\n    Customer memory _customer = customers[_customerId];\r\n    return _customer;\r\n  }\r\n\r\n  function getCustomerOrders(address _customerId) public view returns(uint[] memory){\r\n    uint[] memory _product_ids = customer_orders[_customerId];\r\n    return _product_ids;\r\n  }\r\n\r\n  function getProductDetails(uint _productId) public view returns(Product memory, Retailer[] memory, Manufacturer memory, Customer memory){\r\n    //Get the product\r\n    Product memory _product = products[_productId];\r\n\r\n    //Get all the retailers addresses\r\n    address[] memory _retailer_addresses = Product_Retailers[_productId];\r\n\r\n    //Initialize an empty reailters array\r\n    Retailer[] memory _retailers;\r\n\r\n    //Get the manufacturer\r\n    Manufacturer memory _manufacturer = getManufacturerDetails(_product.manufacturer);\r\n\r\n    //Get the customer\r\n    Customer memory _customer = getCustomerDetails(_product.customer);\r\n\r\n    //Push all the retailers in the _retailers array\r\n    for (uint256 i = 0; i < _retailer_addresses.length; i++) {\r\n      _retailers[i] = getRetailerDetails(_retailer_addresses[i]);\r\n    }\r\n    return (_product, _retailers, _manufacturer, _customer);\r\n  }\r\n\r\n  function getCurrentStatus(uint _productId) public view returns (Stage, address, Manufacturer memory, Customer memory, Retailer memory ) {\r\n    //Initilize an empty address for owner\r\n    address _owner_address;\r\n\r\n    //Get product details\r\n    Product memory _product = products[_productId];\r\n\r\n    //Get product stage\r\n    Stage _stage = _product.stage;\r\n\r\n    //Instantiate each user\r\n    Manufacturer memory _manufacturer;\r\n    Customer memory _customer;\r\n    Retailer memory _retailer;\r\n\r\n    //Check for each stage\r\n    if(_stage == Stage.manufactured){\r\n      _owner_address = _product.manufacturer;\r\n      _manufacturer = getManufacturerDetails(_owner_address);\r\n    } else if(_stage == Stage.sold) {\r\n      _owner_address = _product.customer;\r\n      _customer = getCustomerDetails(_owner_address);\r\n    } else {\r\n      _owner_address = Product_Retailers[_productId][_product.total_retailers - 1];\r\n      _retailer = getRetailerDetails(_owner_address);\r\n    }\r\n    return (_stage, _owner_address, _manufacturer, _customer, _retailer);\r\n  }\r\n\r\n  function getUserType(address _user) public view returns (Role){\r\n\r\n    if(manufacturers[_user].id != address(0x0)) return Role.manufacturer;\r\n\r\n    if(retailers[_user].id != address(0x0)) return Role.retailer;\r\n\r\n    if(customers[_user].id != address(0x0)) return Role.customer;\r\n\r\n    return Role.not_registered;\r\n  }\r\n}\r\n",
  "sourcePath": "C:\\Users\\Kailash\\Desktop\\DeTrace\\contracts\\contracts\\DeTrace.sol",
  "compiler": {
    "name": "solc",
    "version": "0.8.11+commit.d7f03943.Emscripten.clang"
  },
  "schemaVersion": "3.4.5",
  "updatedAt": "2022-04-09T18:57:10.653Z",
  "networkType": "ethereum",
  "devdoc": {
    "kind": "dev",
    "methods": {},
    "version": 1
  },
  "userdoc": {
    "kind": "user",
    "methods": {},
    "version": 1
  }
}